:020000040800F2
:100000000050002001010008D5060008D5060008B0
:10001000D5060008D5060008D50600080000000037
:10002000000000000000000000000000D5060008ED
:10003000D506000800000000D506000819010008D8
:100040001B0100081B0100081B0100081B01000820
:100050001B0100081B0100081B0100081B01000810
:100060001B0100081B0100081B0100081B01000800
:100070001B0100081B0100081B0100081B010008F0
:100080001B0100081B0100081B0100081B010008E0
:10009000712800081B0100081B0100081B01000853
:1000A0001B0100081B0100081B0100081B010008C0
:1000B0001B0100081B0100081B0100081B010008B0
:1000C0001B0100081B0100081B0100081B010008A0
:1000D0001B010008310E00081B0100081B0100086D
:1000E0001B0100081B0100081B010008DFF80CD0F1
:1000F00000F02AF8004800471D2A000800500020A0
:100100000648804706480047FEE7FEE7FEE7FEE7B1
:10011000FEE7FEE7FEE7FEE7FEE7FEE7D10B00089D
:10012000ED00000840EA01039B0703D009E008C97D
:10013000121F08C0042AFAD203E011F8013B00F8AC
:10014000013B521EF9D27047064C074D06E0E068AD
:1001500040F0010394E8070098471034AC42F6D30E
:10016000FFF7C8FF383100087831000810B50E4895
:10017000806940F01D000C49886101210B4800F0A6
:1001800095F90B490B4800F008F90B49094800F0B4
:1001900004F90A490A4800F000F90A490A4800F03F
:1001A000FCF800F0AFFA10BD001002400002300071
:1001B000582F0008000801405C2F0008602F00083D
:1001C000000C0140642F00080010014008B50A49E6
:1001D00009684FF47A72B1FBF2F1891C0622B1FB77
:1001E000F2F148430146009100BF00BF009A521E41
:1001F0000092FBD100BF08BD0000002030B500F028
:100200000F010D4B042404FB01331A6810F0800F1A
:1002100008D048F6CF731340074C042505FB014472
:10022000236007E04CF68F731340034C042505FB55
:100230000144236030BD0000005C004070B500F058
:100240000F02104C042505FB0244236810F0800FB8
:100250000BD001F030045C4048F6BF752C40094DCE
:10026000042606FB02552C600AE001F440545C4071
:100270004BF68F752C40034D042606FB02552C606F
:1002800070BD0000005C004030B5044604254FF40A
:10029000302000F06FF80546042D17D10C48006996
:1002A00040F002000A49086108464461006940F0D4
:1002B000400008614FF4302000F05CF80546044827
:1002C000006941F6FD71084001490861284630BDCA
:1002D0000020024004200B49C96811F0010F01D031
:1002E00001200EE00749C96811F0040F01D0022077
:1002F00007E00449C96811F0100F01D0032000E0A5
:1003000004207047002002400348006940F080004C
:1003100001490861704700000020024070B50446A2
:100320000D460426F00200F025F80646042E11D1F1
:100330000948006940F00100074908612580F00282
:1003400000F018F806460448006941F6FE710840BE
:1003500001490861304670BD00200240024803494F
:100360004860034848607047230167450020024009
:10037000AB89EFCD00B502460423FFF7ABFF034680
:1003800003E0FFF7A7FF0346521E012B01D1002A0D
:10039000F7D102B90523184600BD2DE9F041024608
:1003A00000250026002000230024002791F803C028
:1003B0000CF00F0591F803C01CF0100F03D091F85A
:1003C00002C04CEA050591F800C0BCF1000F31D025
:1003D000146800202BE04FF0010C0CFA00F3B1F888
:1003E00000C00CEA03069E4220D183004FF00F0CA0
:1003F0000CFA03F7BC4305FA03FC4CEA040491F839
:1004000003C0BCF1280F06D14FF0010C0CFA00FC20
:10041000C2F814C00AE091F803C0BCF1480F05D13E
:100420004FF0010C0CFA00FCC2F810C0401C082868
:10043000D1D31460B1F800C0BCF1FF0F34DD5468B3
:1004400000202EE000F1080C4FF0010808FA0CF330
:10045000B1F800C00CEA03069E4221D183004FF0A0
:100460000F0C0CFA03F7BC4305FA03FC4CEA040436
:1004700091F803C0BCF1280F05D100F1080C08FA6F
:100480000CF8C2F8148091F803C0BCF1480F07D1F2
:1004900000F1080C4FF0010808FA0CF8C2F81080BF
:1004A000401C0828CED35460BDE8F081F0B50A4660
:1004B000002300240021002500F00046B6F1004F83
:1004C00002D11D4EF16901E01B4E7168C0F3034576
:1004D00083B200F44016B6F5401F08D121F07061D8
:1004E000154E766826F07066134F7E6012E000F4B9
:1004F0008016B6F5801F06D1032606FA05F4A1433F
:1005000041F0706106E0460D360103FA06F6B1438C
:1005100041F0706122B1460D360103FA06F631430F
:1005200000F00046B6F1004F02D1034EF16101E048
:10053000014E7160F0BD0000000001402DE9F04760
:1005400004460D464FF0FF0A2078D02872DB207851
:10055000D7286FDC207805F8010B14F8010BD03890
:10056000082868D2DFE800F004121518213356720B
:100570005048076805F8017B380A05F8010B380C6C
:1005800005F8010B380E05F8010B74E0FFF7E6FEE5
:1005900071E0FFF7B9FE6EE027683846FFF774FE9A
:1005A000042801D04FF0FF0A65E0D4F80080A68847
:1005B00006E018F8011BFF2902D04FF0FF0A04E003
:1005C0003000A6F101018EB2F3D100BF53E02768DD
:1005D000A688382E02DD4FF0FF0A1AE0A41D12E0B3
:1005E00014F8019B2EB114F8011B49EA0129701E71
:1005F00086B249463846FFF791FE042802D04FF0F4
:10060000FF0A05E0BF1C3000A6F101018EB2E7D160
:1006100000BF30E0D4F80080A6883E2E02DD4FF007
:10062000FF0A12E0002005F8010B09E026B998F84E
:1006300000A005E023E01AE018F8010B05F8010B13
:100640003000A6F101018EB2F0D114E000BFBFF37B
:100650004F8F1948006800F4E06018490843001DF6
:1006600015490860BFF34F8F00BF00BFFEE76D1E46
:100670004FF0FF0A00BF00BF85F800A017E0104848
:10068000006890B10F4BDFF840C0DCF800C003EB0E
:100690008C110E4BDFF838C0DCF800C003EB8C1077
:1006A000074B1B685A68904701E0FF202870BDE89F
:1006B000F0870000002004E00CED00E00000FA05E7
:1006C00014000020FC12002068000020FC02002022
:1006D0006000002072B600F015F811E000F058F844
:1006E000FA20FFF773FD00F04BF800F02BF8FA202A
:1006F000FFF76CFD00F01EF84FF4FA70FFF766FD8F
:10070000ECE7000010B50848806940F00800064991
:1007100088614FF440500549086005490348143882
:10072000FFF73BFE10BD000000100240140C01401A
:10073000382F00084FF4005001490860704700004E
:10074000140C01404FF4005001490860704700004C
:10075000100C014000B5024612F0010F02D0FFF765
:10076000F1FF01E0FFF7E6FF00BD0000034800686D
:1007700080F4005001490860704700000C0C0140F3
:100780004FF480500149086070470000140C01408C
:100790004FF480500149086070470000100C014080
:1007A00000B5024612F0010F02D0FFF7F1FF01E0A1
:1007B000FFF7E6FF00BD000070B5002400F04CFA22
:1007C000054615F0040F01D044F0400415F0020F67
:1007D00001D044F0400415F0010F01D044F01004A2
:1007E00000F058FA054615F0080F01D044F008044F
:1007F00015F0040F01D044F0020415F0020F01D0EF
:1008000044F0010400F014FA08B144F0040405486F
:100810000068604005D0A0B200F0C0FD08B10148FA
:10082000046070BD1800002010F0010F09D000BF57
:100830000949096821F0F00141F04001064A1160C0
:1008400009E000BF0449096821F0F00141F070019E
:10085000014A116000BF7047040C014010B5F02040
:100860000D49086048150D49086000BF0B48103855
:10087000006820F0F00040F040000849103908609E
:1008800000BF074904481038FFF787FD05490248B3
:100890001038FFF782FD10BD10080140140C014014
:1008A000482F00084C2F000810B504490448FFF7F2
:1008B00074FD04490448FFF770FD10BD502F000877
:1008C00000080140542F0008000C014010B53020F2
:1008D0000D49086048150D4908600D490A4810384F
:1008E000FFF75BFD0B4908481038FFF756FD00BFC6
:1008F00006481038006820F0F00040F0400003493E
:100900001039086000BF10BD10080140140C0140F0
:10091000402F0008442F000810B50748806940F0B8
:1009200004000549886188150449086004490348A2
:100930001438FFF732FD10BD0010024014080140CA
:100940003C2F000829B1064A92690243044B9A6180
:1009500004E0034A92698243014B9A6170470000A8
:100960000010024030B500210022002400232D4D4C
:100970006D6805F00C0121B1042905D0082923D1A7
:1009800005E0294D056022E0274D05601FE0254D5B
:100990006D6805F47012234D6D6805F480340225EE
:1009A00005EB92421CB9214D554305600BE01D4DEE
:1009B0006D6815F4003F03D01C4D5543056002E0FF
:1009C000194D5543056002E0174D056000BF00BF9B
:1009D000144D6D6805F0F0010909154D6B5C056853
:1009E000DD4045600F4D6D6805F4E061090A104D6A
:1009F0006B5C4568DD4085600A4D6D6805F46051AB
:100A0000C90A0B4D6B5C4568DD40C560054D6D68DE
:100A100005F44041890B074D6B5CC568B5FBF3F5E8
:100A2000056130BD0010024000127A0000093D004F
:100A3000700000208000002010B500F001F810BD0B
:100A400008B5002000903748006840F480303549F0
:100A5000086000BF3348006810F4003F03D10098DD
:100A6000B0F5A06FF6D12F48006810F4003F08D110
:100A70002C48006820F480302A490860012000904A
:100A800001E0002000902848006840F0100026494E
:100A900008600846006820F0030008600846006807
:100AA00040F0020008601F4840681E494860084640
:100AB000406848600846406840F4806048600846E6
:100AC000406820F47C104860009828B108464068CF
:100AD00040F4D000486005E01248406840F4E81057
:100AE000104948600F48006840F080700D49086068
:100AF00000BF0C48006810F0007FFAD00948406839
:100B000020F00300074948600846406840F00200B2
:100B1000486000BF0348406800F00C000828F9D185
:100B200008BD0000001002400020024010B5002166
:100B300000200022214B5B6803F00C0121B1042945
:100B400006D0082928D107E01D4B1E4C236027E062
:100B50001B4B1C4C236023E0184B5B6803F47010A4
:100B6000164B5B6803F48032022303EB904022B9FA
:100B7000154B4343134C23600DE0104B5B6813F49B
:100B8000003F04D0104B43430E4C236003E00C4B5A
:100B900043430C4C236003E0094B0A4C236000BF25
:100BA00000BF064B5B68C3F30313084CE15C054BC5
:100BB0001B68CB40034C236010BD000000100240B6
:100BC00000127A000000002000093D00040000200F
:100BD00010B51348006840F001001149086008464C
:100BE0004068104908400E494860084600680E49B0
:100BF00008400B4908600846006820F4802008601F
:100C00000846406820F4FE0048604FF41F008860EA
:100C1000FFF712FF4FF000600449086010BD0000AC
:100C2000001002400000FFF8FFFFF6FE08ED00E0B4
:100C300001480068704700004C00002008B5012101
:100C4000684600F037F8012802D19DF8000008BD81
:100C50004FF0FF30FBE7000000200C49097811F04D
:100C6000010F01D040F002000849097811F0040F8B
:100C700001D040F004000649096831B903490978F8
:100C800011F0020F01D040F0020070474400002034
:100C90004C0000200020704701B50121684600F09B
:100CA00087F8012802D19DF8000008BD4FF0FF3001
:100CB000FBE7000030B50246002309B9002030BD33
:100CC00022E01548B0F94400134CB4F94640A04264
:100CD0001AD0114CB4F84200441C0F4DA5F8424004
:100CE0002C46245C02F8014B2846B0F8420000F084
:100CF0003F002C46A4F842002046B0F84600401CB5
:100D000000B2A4F846005B1C0800A1F10104A1B2E6
:100D1000D7D11846D3E70000A402002070B52520E3
:100D200000F01F02012191401B4A430942F82310A1
:100D300000BF002019490860194908601949087165
:100D400008208871002048714FF4E130086008469F
:100D500000F084FB144C002503E0002004F8010B94
:100D60006D1C482DF9D3114C002503E0002004F838
:100D7000010B6D1C482DF9D3252000F01F02012125
:100D8000914042094FF0E02303EB8202C2F80011C8
:100D900000BF012070BD000080E100E0480000209D
:100DA0004C000020500000205C020020A402002023
:100DB0002DE9F04104460D46002615B90020BDE896
:100DC000F08123E01848B0F844001749B1F8461004
:100DD000401A07B2402F19DA14F8012B1249B1F862
:100DE0004000411C104BA3F8401019460A54084615
:100DF000B0F8400000F03F00A1F840000846B0F80D
:100E00004400401C00B2A1F84400761C2800A5F163
:100E100001018DB2D6D1012240F22771034800F0C2
:100E2000CEF83046CBE700005C02002000380140DD
:100E300070B53B4800883B49086040F2277138484C
:100E400000F093F850B338480068012803D13448C3
:100E500000F04BF929E03548B0F944003349B1F9C5
:100E6000461088421BD03148B0F84260701C2F4AAF
:100E7000A2F842001046815D294800F03BF92B485A
:100E8000B0F8420000F03F002849A1F842000846AF
:100E9000B0F84600401C00B2A1F8460005E0002270
:100EA00040F227711E4800F08AF840F225511C4894
:100EB00000F05BF890B31E48B0F844001C49B1F84C
:100EC0004610401A05B2402D28DA154800F008F9FE
:100ED000C4B21749B1F84000411C154AA2F84010AD
:100EE00011460C5444B902210D4800F031F818B1F4
:100EF00001201049086002E000200E4908600C48FB
:100F0000B0F8400000F03F000949A1F84000084651
:100F1000B0F84400401C00B2A1F8440070BD0000CD
:100F20000038014044000020480000205C020020FE
:100F3000A40200204C00002021B1828942F400521A
:100F4000828104E082894DF6FF731A4082817047E6
:100F500002460020B1F5007F00D100BF13880B428C
:100F600001D0012000E00020704770B50246002447
:100F7000002300250020A1F510666A3E00D100BFC5
:100F8000C1F3421501F01F03012606FA03F3012DF8
:100F900002D19689334006E0022D02D1168A3340F1
:100FA00001E0968A33400C12012606FA04F41688F2
:100FB000344013B10CB1012000E0002070BDF0B549
:100FC00003460024002600250020A1F510676A3F93
:100FD00000D100BF1846C1F3421401F01F060127DB
:100FE00007FA06F5012C01D10C3004E0022C01D1E6
:100FF000103000E014301AB107682F43076002E098
:101000000768AF430760F0BD2DE9F04786B005469D
:101010000E460024A24600BFA1460027B08900B1B9
:1010200000BF2F462C8A4CF6FF700440F088044322
:101030002C82AC894EF6F3100440B0883189084305
:10104000718908430443AC81AC8A4FF6FF400440E9
:10105000B0890443AC8201A8FFF784FC1F48874293
:1010600002D1DDF810A001E0DDF80CA0A88910F491
:10107000004F08D00AEBCA0000EB0A1031684900A3
:10108000B0FBF1F807E00AEBCA0000EB0A10316888
:101090008900B0FBF1F86420B8FBF0F004012009EE
:1010A000642101FB1089A88910F4004F08D0322078
:1010B00000EBC900B0FBF1F000F00700044308E0CA
:1010C000322000EB09106421B0FBF1F000F00F00BA
:1010D00004432C8106B0BDE8F087000000380140D1
:1010E00001468888C0F308007047818941F00101FA
:1010F00081817047C1F308028280704700207047E9
:1011000070B50B4D0C460346D5E90C0188420BD94E
:10111000401A844200DD044622461846FFF702F8D2
:10112000686B2044686300E00024204670BD000026
:10113000AC000020002070472DE9F041194C0D460D
:101140000746D4E90401401A17490A88101A0028F2
:1011500002DC0020BDE8F081854200DD0546D4E9CF
:1011600006020026904210D3104A09884319114400
:101170008B420AD90E1A904632463946FEF7D2FF04
:101180003744AD1B4046C4F8188035B12A4639466D
:10119000FEF7C8FFA0692844A0612169A81901448D
:1011A0002161D7E7AC000020882F0008D201002081
:1011B00010B5054C6068002805D10120606000F082
:1011C00005F80020606010BDAC0000202DE9F0475C
:1011D000244CA06800283CD0D4E90401451AE068FA
:1011E0004FF0000A284336D01F48204FD4E906218B
:1011F0000388FE18914202D898B2854203D148195B
:10120000B04200D9751ADFF86C90DFF8648099F865
:10121000002038F81200A84200DA054616482A468F
:10122000007840F0800001F0E9FAE0694119E161DD
:1012300060698E422844606100D1E7612169814282
:101240000CD199F8001038F81100A84206D10120FD
:10125000E060BDE8F087C4F808A0FAE7C4F80CA085
:10126000F7E70000AC000020882F0008D201002022
:10127000902F000887000020852F000810B50B4C28
:10128000206A18B1A06A401CA06210BD0120206233
:10129000606200F00DF8002060622062D4E90C0169
:1012A0008842F2D0401AFFF745FF10BDAC00002085
:1012B00010B5134C144A1348216B1288144B081AAA
:1012C000101A124A1B7832F8132090420EDB114894
:1012D000007800F0EBFE216B08442063A06A002830
:1012E0000CD0616A002909D1401E06E00120E062AD
:1012F000606A002802D0A06A401CA06210BD0000F5
:10130000AC000020120200208A2F0008902F000855
:1013100087000020862F000810B50446400702D53C
:101320002046FFF7ABFF200704D52046BDE810405C
:10133000FFF73EBF10BD704708B501216846FFF7B3
:10134000DFFE012802D04FF0FF3008BD9DF80000FD
:1013500008BD0020704700207047000010B50B4802
:1013600000F042F8002810D0084A094811680170BE
:101370000B0A43700B0C8370090EC1701179017157
:101380005179417191798171012010BDE4000020F3
:101390001001002010B500F039F810BD0F4910B54C
:1013A0000978C1B10E49A12202230A7020224A7095
:1013B00000228A70CA700A714A718B71CA710872F0
:1013C000000A487207480A22007840F0800001F0C5
:1013D00015FA012010BD002010BD0000850000207E
:1013E00052020020842F0008014607480079087146
:1013F000054880798871044840794871024800683E
:1014000008600120704700005000002010B5012145
:101410000846FFF797FA01210420FFF793FA0849DD
:101420000848FEF7BAFF08490648FEF7B6FF012153
:101430008803FFF787FAFFF771FC012010BD000059
:1014400028310008000801402C31000810B5FFF7D2
:1014500065FC10BD014601207047000070B50546CF
:10146000284CA879082801D0002070BD0020A08059
:10147000687920B1012809D002280BD102E00020B0
:10148000208109E04FF48060208105E04FF4C060C6
:10149000208101E00020E8E700BF287920B1012881
:1014A00009D002280BD102E00020E08009E04FF4CF
:1014B0000050E08005E04FF44050E08001E0002063
:1014C000D3E700BF287910490871A8798871687935
:1014D000487128680860286820600C20608100201E
:1014E000A08121460948FFF78FFD012240F22551D6
:1014F0000648FFF764FD01210448FFF71DFD0120A8
:10150000B3E70000EC02002050000020003801404A
:1015100001B501216846FFF70FFE012802D04FF008
:10152000FF3008BD9DF8000008BD000010B5104850
:101530000024104944608460C4600461C0E905412E
:10154000C0E9071444620C498462C0E90B4141635D
:101550000480FFF77BFF06484FF4165138300160D6
:101560000471447108218171FFF778FF10BD0000FC
:10157000AC000020D20100201202002010B5FFF7BD
:10158000D5FF10BD70B5174C00250126206A50B953
:10159000D4E90C10814206D11348814203D0206364
:1015A000E56225626063A06A70B1206A60B9E06A92
:1015B00050B92662FFF77CFE2562D4E90C0188420F
:1015C00002D0401AFFF7B6FDD4E90101084308D163
:1015D000D4E90401884204D06660A660FFF7F6FDF6
:1015E000656070BDAC000020120200200020704732
:1015F0000020704700207047024910B50880FFF7AF
:1016000029FF10BDAC000020084810B5C178026861
:1016100061F31F6206490A6002790A7142794A71D0
:10162000807988710846FFF719FF10BD100100206E
:10163000E400002010B504462046FEF7DFFD43F22B
:1016400030012046FEF7FAFD10BD000010B502463D
:10165000937803F00F019088937813F0800F0AD0ED
:10166000294B1B88294C246804EB01142360431C7C
:1016700023F0010020E0244B1B88244C246804EB59
:101680000114A3603E280ED900F11F0323F01F00B0
:101690000123C3EB401343F400431C4C246804EBC8
:1016A0000114E36008E0431C23F001004302174CDF
:1016B000246804EB0114E360134B1B880344124CB1
:1016C0002380D37813F0030306D0012B07D0022B1D
:1016D00008D0032B0FD10BE04FF400700BE04FF458
:1016E000806008E0002000230BB140F4807002E02D
:1016F0004FF4C06000BF00BF0843054B042404FB47
:101700000133186010BD00003C00002038000020AC
:10171000005C004030B94021034A1180114609881D
:1017200080311180704700003C00002000F088BA32
:1017300078B14FF480710B4A116001210A4A11609F
:1017400000211160121D11604FF4E051121F116051
:1017500006E00321044A11609115024A121D11602E
:101760007047000010080140405C004010B50B4C71
:101770000B48A28801788A4200D9CAB21AB907492F
:101780000020183908718020216801F037F821689D
:1017900001442160A188081AA08010BD9C0000208F
:1017A0006D2F000810B5064C0020216800F07EFC6B
:1017B000216801442160A188081AA08010BD0000A2
:1017C0009C000020704710B5044600212046FEF71B
:1017D00035FD10BD10B5044643F220012046FEF74A
:1017E0002DFD10BD2DE9F047DFF844820646A8F133
:1017F000080580074FF0000AA5F1180424D500F071
:10180000D1FF98F800004746C009FFF7DBFFF888D2
:10181000A8803978C1F3411010B1012877D17DE05B
:1018200098F80120834FDFF810920C2A6FD2DFE87E
:1018300002F0060C951C952B3B953F45526100F03C
:1018400045FD33E0FFF792FF96E0002000F07CFDBD
:1018500000285CD000F0ACFF386820B16169002935
:1018600021D0082050E0484653E0012000F06CFDF4
:10187000002873D000F09CFF38680028F3D061691D
:10188000002979D004203FE011F01F0F66D198F8AD
:101890000200012140F08000207000F07F0000F085
:1018A0006FFF00F085FF67E000F032FC78B3C9E716
:1018B00011F01F0F52D15E481F3819E000F094FD5F
:1018C00028B300F075FF386818B1616929B30120A9
:1018D0001AE05A481DE001F01F0101293ED161784C
:1018E000A9B198F80400A178884237D25449084435
:1018F0002860A7E700F040FE48B100F059FF3868C3
:1019000030B1616949B1022001F0FEFA34E025E00E
:101910004C48016809B1084680472DE011F01F00CE
:1019200004D0012805D0022818D111E000F02AF9CE
:1019300013E000F02DF9F8B900F080F9E0B900F0FB
:10194000CFF8C8B900F0CEF8B0B900F01FF904E044
:1019500000F0C4F880B900F017F968B998F80010E1
:10196000090604D4B8F8060008B1002000E0802081
:1019700000F010FFA5F804A0700735D598F8000016
:10198000474600062ED4A88858B3FFF70BFFA88857
:1019900038BB3878C0F34111F1B101291CD110F0E6
:1019A0001F0004D0012805D0022815D10EE000F058
:1019B00077F810E000F07AF898B900F047F880B9AD
:1019C00000F046F868B900F06FF804E000F03CF869
:1019D00038B900F067F820B9802000F0DBFEA5F8E8
:1019E00004A001E000F0EAFE300713D598F80000EB
:1019F000000606D5A888217908430BD0FFF7B6FE6C
:101A000008E02078010605D500F07F002070002155
:101A100000F0B6FE700602D50020FFF70BFE300680
:101A200004D5BDE8F0478020FFF704BEBDE8F0878D
:101A3000A4000020FC2F0008F82F0008F02F000859
:101A40002C000020F42F0008002070470020704771
:101A500010B51048104A01791278914203D00F4A0C
:101A60001278914214D1417821B1022905D0202960
:101A70000ED10AE0FFF7BCFD02E04088FFF7BAFD97
:101A800030B100F095FE012010BDFFF7BDFDF7E776
:101A9000002010BDA4000020822F0008832F000822
:101AA00000207047002070470020704710B509489B
:101AB000094A01791278914209D14078092806D162
:101AC00000F0B8FA18B100F073FE012010BD00203C
:101AD00010BD0000A40000206E2F000800207047F9
:101AE0000020704770B52249224A08791278904246
:101AF00003D0214A1278904238D11D4849781F4CB2
:101B00001F4D408804291FD007DC79B101290FD06F
:101B100002290BD0032929D111E0202906D021293F
:101B20001AD022291BD0232920D11BE02C6011E0E0
:101B3000FFF711FC05E02C60FFF718FE0AE0FFF745
:101B400008FC0028F7D111E0FFF7D8FA0CE000BF3D
:101B500000F02EFE012070BDFFF700FCF1E7FFF75B
:101B60004BFD01E0FFF742FD0028F1D1002070BDE0
:101B7000A4000020822F0008832F000810010020FD
:101B80009C00002000207047002070470020704714
:101B90002DE9F041224C23492079097888423DD132
:101BA0006078214D214E224F0C2837D2DFE800F01B
:101BB0003606212D363636363616243200F058F9E0
:101BC00060B3E078012802D0032803D003E019486D
:101BD000286000E02E60FFF7C9FD13E0E0780228DE
:101BE00002D0032803D00DE0134828600AE02E60DD
:101BF00008E000F025F90AE000F0F4F90CE000BF7D
:101C000000F0D6FD0120BDE8F08100F027F928B1F1
:101C10002F60E0E700F004FA0028F1D10020F2E79D
:101C2000A40000206E2F00089C0000203600002039
:101C30001001002051010020920100200020704777
:101C4000064800214170C16001614161418081808D
:101C50008161C161C180016201817047EC00002097
:101C60002DE9F047474CA0886188484DDFF818817E
:101C70006F1C0026884216D3A069A0B96661A680B1
:101C8000012329786A1C184600F0C6FF608060882E
:101C900048B1656198F80000012801D8676102E049
:101CA0006088401C608060884FF00109B0BBE0682C
:101CB00008B1E66032E0206980B398F8001001298D
:101CC0000DD82E70A68002236A1C0021012000F08E
:101CD000A3FF6080608800B1676126611EE02F78F5
:101CE000C846202F00D3002708FA07F1014244D04C
:101CF000781CC1B22970A68002236A1C012000F062
:101D00008BFF6080608818B165616088401C6080CE
:101D1000206908FA07F820EA080020616088A169B4
:101D2000084328D06088A188DFF86880401A85B20F
:101D3000174F98F8000037F81000A84200D2054667
:101D400015482A466169007840F0800000F056FD91
:101D50006069124928446061A088284480B2A0804C
:101D6000098888420CD298F8000037F81000A84281
:101D700006D1C4F81890BDE8F0877F1CFFB2B0E729
:101D8000A661F8E7EC0000207A2F0008500100203F
:101D9000762F0008870000206F2F00087C2F000896
:101DA000F8B5184C184D0026E08800B9E5611748D1
:101DB000E169007800F07AF90004E169000C01445F
:101DC000E161E18801448BB2E3800AD010490988BF
:101DD0008B4206D2104A0F49127831F81210814214
:101DE0000FD90E48017801200129009002D8064A37
:101DF000002102E029785B1E6A1C022001F026F80F
:101E0000E680F8BDEC00002091010020702F000852
:101E10007E2F0008762F0008870000207B2F000807
:101E200010B50446000702D52046FFF719FF6007EA
:101E300004D52046BDE81040FFF7B2BF10BD00003A
:101E4000034804498078085C034908700120704702
:101E5000A4000020340000201001002010B500F084
:101E6000D9FE02490870012010BD000010010020B9
:101E70000B4910B5C8780022012804D0022804D0EC
:101E8000032806D103E0074A02E0002010BD064AFD
:101E9000521C8978002300F0BFFE012010BD000015
:101EA000A400002050010020350000202DE9F05F43
:101EB0004348007800287CD0424800273D460178FE
:101EC0004A1C0270404A1378042203EB430A02FAC8
:101ED0000AF2521E914201DB057001273B490022A4
:101EE0000C88FF2C01D2641C0C80394C8E4609886A
:101EF00034F81390894500D10122834600210069FE
:101F00009BF8006043E000BF4FF0000C6FB1314B15
:101F10005C5CFF2C01D2641C5C542F4C645C24B1CB
:101F20005B5CA34201D34FF0010C2B4B4FF0020836
:101F300008FA0AF85B5C03FA08F44C4502DA0BB1C4
:101F4000012400E0002432B12CB14FF0010808FA5E
:101F500001F848EA0000DFF8848018F80180434562
:101F60000AD01C4B5B5C434503D301238B401843D1
:101F70000026194B03F80180BCF1000F05D014B9FD
:101F800001238B401843134B5D54491CC9B2144BB9
:101F90001B789942B8D3CBF8100059468BF80060F3
:101FA0000AB1AEF80050002808D04888002805D1B2
:101FB00000E003E0BDE8F05FFFF752BEBDE8F09F30
:101FC00085000020EC000020870000203000002069
:101FD000722F00083200002033000020340000205F
:101FE0007A2F000810B50A4809498078C97810B1DD
:101FF000084A815409E00020074B084A02E01954BE
:10200000401CC0B21478A042F9D3012010BD0000DA
:10201000A400002033000020340000207A2F0008A4
:10202000034810B5807800F00FFF012010BD0000BC
:10203000A40000200C4908B5C8780022012804D06B
:10204000022804D0032806D103E0002008BD074A77
:1020500000E0074A521C00230093CB88897800F0E7
:10206000F5FE012008BD0000A40000209101002021
:102070003500002010B50548C06940F40000034950
:10208000C86100F005F8FEF747FC10BD00100240E3
:1020900014200121814042094FF0E02303EB82022A
:1020A000C2F8001100BF7047704700002DE9F043EF
:1020B00005460C4605F00F061248006800EB0610B6
:1020C00080681149022202FB00190E48006800EBEB
:1020D00006108089C0F309074FF0000805E039F8C1
:1020E000041B2180A41C08F10108781CB8EB500FD8
:1020F000F5D34FF440512846FEF7A0F83846BDE826
:10210000F0830000380000200060004070470000AD
:102110007CB54248A0F120050178A0F1080411F037
:102120001F0102D0012973D15FE0C6783B483B49CB
:1021300020383B4AC0788978082E69D2DFE806F05B
:10214000680413426868082D3648206012204AE06F
:10215000117809B901285BD018B1334820600A20F2
:1021600041E03248FAE712780AB9012850D018B194
:102170002F480090002008E02E48FAE7009A1378D4
:1021800013B153881A440092401C8142F6D1009842
:102190000178E1B32060408825E012780AB901286F
:1021A00036D018B124480090002008E02348FAE710
:1021B000009A137813B153881A440092401C81424C
:1021C000F6D1E4E71E480090002005E0009B1A7855
:1021D0000AB11A440092401C8142F7D1009801785C
:1021E000A9B120600078019005E001A9684600F0DF
:1021F0002BF800280DD0A188019881420CD91149F3
:1022000080B2A0800978491E084203D004E0FFE7AD
:1022100000207CBD0120287101207CBDA40000208D
:10222000692F0008263000083930000838300008CF
:10223000A63000083A300008A8300008A73000088F
:10224000AA3000086D2F000830B5164A164C174BFF
:10225000D5781279212D02D0222D20D115E02478B5
:10226000A2421CD1124A1478124A12780CB9012ADF
:1022700015D042B1104A02601046104A128810442C
:102280001860092008E00E4AF5E72078824206D15E
:102290000C4818600C4800880860012030BD002000
:1022A00030BD0000A40000206E2F00089C0000201C
:1022B000692F000887000020A6300008243000089D
:1022C0003A300008003000082230000870B51C4881
:1022D0001B4D0078A5F1080510F01F040AD018481E
:1022E000A5F11801174B4A780079012C06D0022C71
:1022F00024D109E012481A3828601DE0F2B189782B
:1023000088421BD2002015E000F08F04200605D57E
:1023100004F00F064FF48030B04001E00120A040EF
:102320000AB922070AD18A68024207D0C968014265
:10233000E8D0012018802B60012070BD002070BD06
:10234000A40000201001002070B5264A0146A2F129
:102350002004107810F01F031046408804D0012B91
:1023600028D0022B26D110E0012823D129B100F07A
:1023700043FAE08840F0020005E0002000F03CFA5B
:10238000E08820F00200E08029E0127902F08F0658
:10239000320605D506F00F024FF48035954001E076
:1023A0000125B54062782AB1320703D0A2682A42DB
:1023B00000D008B1002070BD29B1304600F0EAF924
:1023C000E06828430AE02069284208D13046FFF738
:1023D00031F93046FFF79AFEE068A843E06001203B
:1023E00070BD0000A40000202DE9F84F5C4F0020D4
:1023F0000090387810F01F0F6FD1B8784FF00009B7
:102400004FF0010B4FF4803AA7F1200600287AD054
:10241000544801783046C07809B901285DD008B128
:10242000514C6BE0514C69E06078022804D00428DC
:1024300044D0052860D144E06179B87881423BD12D
:1024400070702079B0700020494A4A4903E000BF0B
:1024500002F80090401C0B889842F9D30125B04641
:102460000BFA05F0D8F80810084202D02846FFF70A
:10247000AAF9D8F808100AFA05F0084203D045F086
:102480008000FFF7A0F96D1C102DE9D34FF001106B
:10249000C8E902090120C8F81090FFF73BF9E0797C
:1024A0004006B8F8060002D540F0010001E020F037
:1024B0000100A8F806001FE060881EE0E0780090A8
:1024C0001AE00098C0B9A07800F08F05280605D55D
:1024D00005F00F010AFA01F002E03CE00BFA05F00A
:1024E000B16801432046B160FFF7B0F82846FFF716
:1024F00071F9284600F034F9207804442078002847
:1025000092D124E0FFE7C84686F8019001245D4699
:102510004FEA0A09B16805FA04F0084202D02046E1
:10252000FFF751F9B16809FA04F0084203D044F00A
:102530008000FFF748F9641C102CEBD34FF001101A
:10254000C6E902080020C6F81080FFF7E3F8B87863
:102550007178884202D00020BDE8F88F0120FBE7A7
:10256000A4000020692F0008A63000083A300008B7
:102570002C0000206A2F00082DE9FC5F444E002744
:102580003D463078BB4600F01F00B84601287DD19B
:10259000A6F120014878002875D03E48BA46027856
:1025A0000846C0780AB9012870D0894608B13A4C6B
:1025B00065E03A4C63E06078022804D0042809D032
:1025C00005285AD117E0617999F80100814254D069
:1025D000608853E0A7783079E5784FF00008B8427A
:1025E0004BD1B078A84248D12D484FF0010A10F8DD
:1025F00007B0C55541E03079B8423ED1A07800F02F
:102600008F000190000605D5019800F00F014FF4EE
:10261000803001E00199012088400090B078A84204
:1026200017D1D9F80810009A20461143C9F80810AC
:10263000D9F80C109143C9F80C10FFF707F801986E
:10264000FFF7C8F8019800F08BF8009948EA0108F4
:1026500013E05D4511D1009918EA010F0DD1D9F8A9
:102660000810009A9143C9F80810D9F80C1091434A
:10267000C9F80C100198FFF7A6F8207804442078D8
:10268000002898D15046BDE8FC9FFFE70020FAE7FC
:10269000A4000020692F0008A63000083A30000886
:1026A0002C0000200020284908602848006808B154
:1026B000481400E0002040F41C402449096811B18E
:1026C0004FF4804100E0002108432149096811B11D
:1026D0004FF4007100E0002108431D49096811B161
:1026E0004FF4807100E0002108431749091F08607A
:1026F00040201849088000201749086012490C3111
:102700000860144800881549096808601148008865
:1027100040301049088008460088104909688860E0
:102720000C48008840300B49088048F2FF700B4984
:102730000968C8604FF44850034944390860802054
:102740000149083108607047445C0040AC2F000824
:10275000A82F00083C000020400000203800002086
:1027600010B504462046FDF749FD10BDFEF706BF33
:1027700010B5FFF79BFBBDE81040FEF703BF00005C
:1027800001B1704740F08002014B1A6000BFF8E7CA
:102790004C5C004010B5044641F210012046FDF7A4
:1027A0004DFD10BD01490020FFF780BCA4000020B2
:1027B00000221146802000F021B8000001490020CD
:1027C000FFF774BC100100200548006840F00800C5
:1027D000034908600846006840F00400086070473C
:1027E000405C00400348006820F008000149086090
:1027F00070470000405C0040704700002DE9F04742
:1028000007460D46144607F00F061648006800EB11
:10281000061000681449022202FB001A4FF000085B
:1028200005E028884AF8040BAD1C08F10108601C7B
:10283000B8EB500FF5D30B48006800EB061044606E
:102840000A48042101FB060000681FFA80F909F01C
:102850003000102803D030213846FDF7EFFC204629
:10286000BDE8F0873800002000600040005C0040B8
:1028700070B55A48046814F4806F0DD0FFF712FF4A
:1028800000F044FB5648006810B155480068804786
:102890006FF480605149086014F4006F0BD0FFF7AB
:1028A00093FF5048006810B14E48006880476FF4AD
:1028B00000604A49086014F4805F0BD0FFF792FF74
:1028C0004948006810B14848006880476FF480505C
:1028D0004249086014F4007F09D04448006810B1F0
:1028E0004248006880476FF400703C49086014F467
:1028F000807F0ED001203E4908603848001F0068E4
:1029000020F480703549091F08606FF48070091D3C
:10291000086014F4804F0AD03648006818B10220CD
:102920003449096888476FF480402C49086014F4E2
:10293000005F0AD02F48006818B101202D490968AE
:1029400088476FF40050254908603FE06FF400406D
:102950002249086004F00F0520484438042101FB97
:102960000500066816F4004F19D026F4004048F61A
:102970008F71084019494439042202FB051108608F
:102980001D4850F8250050B116F4006F01D0022206
:1029900000E004221046184A52F82510884716F025
:1029A000800F13D026F0800048F68F7108400B4945
:1029B0004439042202FB051108600F4850F8250035
:1029C00020B10D4850F825100820884703480068BA
:1029D000044610F4004FB9D170BD0000445C0040C3
:1029E000982F00089C2F0008A02F0008A82F00088F
:1029F00040000020AC2F0008B02F000802E008C8FB
:102A0000121F08C1002AFAD170477047002001E068
:102A100001C1121F002AFBD170470000FDF7A6FB81
:102A2000FEF784F8FDF78EFE6748006838B1664807
:102A30006649086008460068016865488847FDF7F0
:102A400079FE0020634908601AE062480168006866
:102A5000401C604A106011B9FDF774FE0DE05D483E
:102A60000068052802D1FDF765FE06E059480068B8
:102A7000192802D10020574908600A20FDF7A6FB5B
:102A80005548006810F4006FDFD1FDF753FE00F0E9
:102A90002DFA012000F0BCF800204E4908601AE031
:102AA0004C4801680068401C4A4A106011B9FDF7A3
:102AB00049FE0DE047480068052802D1FDF73AFEBF
:102AC00006E044480068322802D1002041490860ED
:102AD0000A20FDF77BFB00F093F80028E0D0FDF71B
:102AE00029FE6420FDF772FB00203A4908603B484C
:102AF0003B4908604FF0FF303A4908603A490860A6
:102B000061E03248006880B9324801680068401CC2
:102B1000304A10603548814204D1002011460860D7
:102B2000FDF724FE00F032F91BE000F02FF9A8B900
:102B30002B480068B0F57A7F02D1FDF703FE07E06D
:102B40002748006820B9FDF7F5FD244824490860AE
:102B500023480068401E2249086002E01F482049BF
:102B60000860FDF729FE1F480068401C03D1FEF7EE
:102B7000E3FB1C4908601B480068401C0BD0194946
:102B80000878FEF789F817490968884203D14FF0A1
:102B9000FF301449086014480068401C03D1FEF758
:102BA0004DF81149086010480068401C0BD00E49D0
:102BB0000878FEF7ADFC0C490968884203D14FF054
:102BC000FF30094908609CE700400008140000201D
:102BD000302F00082400002008080140400D0300A9
:102BE000280000201C0000202000002040420F0090
:102BF00010B500F0ABF8BDE81040FEF7CBBB00000D
:102C000002484078002800D001207047840000204E
:102C1000FEF78EBD002070472DE9F04104460F46B7
:102C200015461E46012C02D0032C38D136E026B1C1
:102C3000012E04D0022E2FD100E000BF2CE0194855
:102C4000006819490968884202D118480078F8B12B
:102C50001748144A126800EB821140222846FDF7FB
:102C600061FA10480068401C0E4908600846006878
:102C7000402801D1002008600A4800680A49096814
:102C8000884202D10020094908704020BDE8F08147
:102C900001200849087000BF00BF00E000BF00BF6E
:102CA0000020F3E76C000020680000206500002091
:102CB000FC120020640000202DE9F04107461D4869
:102CC00016460088824202DD0020BDE8F0811A48E5
:102CD00000780028F9D0194C01224FF00008E2607A
:102CE00000E098B16288002AFBD1154D3246681C7D
:102CF0002F70FDF717FA6561A4F80480668011480B
:102D0000007801280BD86D1C65610BE0C4F80C80BD
:102D1000C4F81480A4F80480A4F80280D4E7608882
:102D2000401C60800020FEF79BFF074800F80780EA
:102D30000120CAE77C2F000885000020EC0000205D
:102D4000500100207A2F000832000020002008499E
:102D500008700849086008490860012007490870A0
:102D60000020074908700749086007490860704754
:102D7000580000205C00002060000020640000205B
:102D800065000020680000206C00002010B5254878
:102D9000006825490968884203D124480078002842
:102DA0003DD0234A234B1B6802EB8311224A1D4B63
:102DB0001B6802EB8310FDF7C1FB1A480068441C36
:102DC000402C00D1002417480460006816490968A7
:102DD000884202D10020154908701848007860B177
:102DE0000020164908701248124A126800EB82113E
:102DF00040220020FFF760FF0FE00E480068441CEF
:102E0000402C00D100240B48046000680C4909687C
:102E1000884202D101200B490870012010BD00201A
:102E2000FCE70000600000205C000020580000204B
:102E3000FC12002068000020FC020020640000203A
:102E40006C00002065000020704700002DE9F04173
:102E50000646884614461D46069F022E02D0032EC3
:102E600036D134E005B933E02078072807D11A4875
:102E7000006818B1184909688868804728E0174831
:102E8000007830B11648006816490968884200D1B8
:102E90001EE01549124A126801EB82102A462146AB
:102EA000FDF740F90E480068401C0D4908600846CF
:102EB0000068402801D100200860094800680949DD
:102EC0000968884202D101200449087000E000BF6F
:102ED00000BFBDE8F0810000140000205800002071
:102EE0005C00002060000020FC020020054910B5B5
:102EF0000020C870FFF77CFEFFF7D6F8BDE8104051
:102F0000FFF7B8B8840000207047000006484FF073
:102F1000011201780548C180002101704170C0E9AB
:102F20000221016170470000682F00088400002022
:102F300055070008A1070008003002100001021028
:102F4000C00000483000031040000048B0000310EB
:102F5000F00000480002004803800028080000003C
:102F6000FFCF002800E00028000003000340020318
:102F70000300010040004000040001014000400047
:102F8000010000010102020040004000400010006A
:102F900040004000000000006D2700080000000015
:102FA0000000000000000000712700080000000081
:102FB000E51700083713000819130008211E000840
:102FC0000000000000000000000000000000000001
:102FD00000000000000000000000000000000000F1
:102FE00000000000000000000000000000000000E1
:102FF0002D17000800000000000000000000000085
:103000000600FF0901A101150026FF007508954083
:103010000901810295400901910295010901B1025E
:10302000C0002100540012010002EF02014051C211
:1030300001F0000101020001000009026B00030120
:10304000008032080B0002020201030904000001A3
:1030500002020003052400100105240101010424DB
:10306000020205240600010705810340000209044D
:103070000100020A000004070502024000000705E3
:103080008202400000090402000203000005092139
:10309000000100012221000705830340000107050C
:1030A00003034000010000000000040309041203B0
:1030B00058003800390033002000410052004D0014
:1030C000140343004D005300490053002D004400F9
:1030D000410050001C0343004D00530049005300C1
:1030E0002D004400410050002000430044004300F4
:1030F0001C0343004D005300490053002D004400C1
:103100004100500020004400430049001C034300DC
:103110004D005300490053002D0044004100500071
:10312000200048004900440000040348000203183E
:1031300000040300000203007831000800000020B2
:1031400010010000FC290008883200080028002037
:1031500008000000FC290008883200081001002047
:10316000EC2100000C2A00089032000808280020FA
:10317000400000000C2A000800A24A0400000000E1
:103180000000000001020304060708090000000017
:10319000FFFFFFFF00000000000000000000000033
:1031A000000000000000000000000000000000001F
:1031B000006000400000000000000000000000006F
:1031C00000000000000000000000000000000000FF
:1031D00000000000000000000000000000000000EF
:1031E00000000000000000000000000001020304D5
:1031F0000102030406070809020406080000000093
:1032000000000000000000000000000000000000BE
:1032100000000000000000000000000000000000AE
:10322000000000000000000000000000000000009E
:10323000000000000000000000000000000000008E
:10324000000000000000000000000000000000007E
:10325000000000000000000000000000000000006E
:10326000000000000000000000000000000000005E
:10327000000000000000000000000000000000004E
:10328000000000000000000000000000000000003E
:020000040800F2
:10400000B56E0008D9470008A96E000870B50646CD
:104010000D46307808B9012400E03478012C02D034
:10402000022C0CD105E0012009490870FCF74EFC78
:1040300009E0022006490870FCF710FC03E00020AC
:104040002870012070BD00BF2C700120FAE700002D
:104050000828002018B502460B461078547840EA2C
:1040600004210B4800680B4CB0FBF4F0801C0324C7
:10407000B0FBF4F041430846009000BF00BF009C35
:10408000641E0094FBD100BF00201870012018BDF1
:104090000000002040420F0010B5044600200449F3
:1040A0000870FCF701FC00202070012010BD00000A
:1040B0000828002002460020052A1AD008DC012A20
:1040C0000FD0022A0ED0032A0DD0042A21D10BE0F2
:1040D000062A0FD0F02A0ED0FE2A16D0FF2A18D1B9
:1040E0000DE016E015E014E00B4B1B680B6004209C
:1040F0000FE00EE00DE003230B70012009E04023E8
:104100000B7000234B70022003E040230B70012052
:1041100000BF00BF70470000C86E000870B50446BD
:104120000D4613480078022804D000BFFF202870F5
:10413000012070BD21780E48C175C07D0C49897D74
:10414000884200DBF2E7082000F0EAFF6078A178FF
:1041500040EA0120E17840EA0140217940EA016625
:10416000304601F0FFFE002028700120E1E700004A
:1041700008280020F0B502460E4612F8013B11480F
:1041800083750025002109E012F8014B0D48183015
:104190004454083020F811502544491C9942F3D367
:1041A000002108E007481830405C2D1A05483030DF
:1041B00020F81150491C9942F4D30020307001209E
:1041C000F0BD00000828002070B506460C461148D6
:1041D0000078022804D000BFFF202070012070BDAD
:1041E00031780C48C175C07D0A49897D884200DB61
:1041F000F2E70E2000F094FF01F0A4F9054600203C
:1042000020706570280AA070280CE070280E2071BC
:104210000520E4E7082800202DE9F04704460D4674
:10422000002005F8010B4FF0010814F8019B12E083
:1042300014F8017B2A462146384601F067FA07F058
:104240003F0606B94026F01DC608344417F0800F1B
:1042500001D03544B0445FEA0900A9F10109E7D172
:104260004046BDE8F08700002DE9F04F87B00646D4
:104270000C46002005900025A346A41CD8490870D0
:104280008146049016F8011BD648C175C07DD549FA
:10429000897D884200DB99E116F8010B069046E122
:1042A00016F8017B17F0010F01D00B2000E00A2067
:1042B000824617F0020F78D00498002846D0C948EB
:1042C000B0F80A80D14514D117F0100F11D100BFFA
:1042D000F8B201A901F06CFA0546022D24D15FEA7B
:1042E0000800A8F101081FD0BD4800780028EFD0D1
:1042F0001AE0B9F10A0F04D04FF00A09484600F05D
:104300000FFF00BF01A90E2001F052FA0546022D51
:1043100008D15FEA0800A8F1010803D0B04800788E
:104320000028EFD000200490012D00D005E1019875
:1043300004F8010B0198000A04F8010B0198000C25
:1043400004F8010B0198000E04F8010B17F0100F90
:1043500060D03078717840EA0120B17840EA0140BD
:10436000F17840EA01600390361D9E4880890290F2
:10437000D14503D0D146484600F0D2FE9948B0F866
:104380000A8000BFF8B2002101F012FA0546022DA2
:1043900008D15FEA0800A8F1010803D0904800782E
:1043A0000028EFD0012D01D0C7E056E000BF8D48B6
:1043B000B0F80A8000BFF8B201A901F0F9F905468A
:1043C000022D08D15FEA0800A8F1010803D0844853
:1043D00000780028EFD0012D00D00EE08148006960
:1043E000019908400399884207D00298411E029122
:1043F00018B17B4800780028D9D000BF79480069FF
:10440000019908400399884201D045F01005012D1B
:1044100022D092E0049800281ED1D14503D0D14685
:10442000484600F07DFE6F48B0F80A8000BFF8B241
:10443000002101F0BDF90546022D08D15FEA080010
:10444000A8F1010803D0664800780028EFD0012DBC
:1044500000D072E00120049062E0049878B3B9F1D2
:104460000A0F04D04FF00A09484600F059FE5D4893
:10447000B0F80A8000BF01A90E2001F099F90546A5
:10448000022D08D15FEA0800A8F1010803D05448C2
:1044900000780028EFD0012D00D04EE0019804F8FC
:1044A000010B0198000A04F8010B0198000C04F8B4
:1044B000010B0198000E04F8010B002004903078E5
:1044C000717840EA0120B17840EA0140F17840EA91
:1044D00001600190361D17F0200F04D0414801996A
:1044E000016101251CE0D14503D0D146484600F0CA
:1044F00017FE3C48B0F80A8000BFF8B201A901F0ED
:1045000057F90546022D08D15FEA0800A8F1010815
:1045100003D0334800780028EFD0012D00D00CE004
:104520000598401C05902E48007800B105E00698DB
:10453000411E069100287FF4B3AE00BF012D44D187
:10454000B9F10A0F04D04FF00A09484600F0E8FD1F
:10455000049830B32348B0F80A8000BF01A90E20A8
:1045600001F026F90546022D08D15FEA0800A8F1FE
:10457000010803D01A4800780028EFD0012D00D0A0
:1045800024E0019804F8010B0198000A04F8010BDB
:104590000198000C04F8010B0198000E04F8010BBF
:1045A00013E01048B0F80A8000BF00210E2001F08F
:1045B000FFF80546022D08D15FEA0800A8F10108BE
:1045C00003D0074800780028EFD000BF05988BF88B
:1045D00000008BF80150A4EB0B0007B0BDE8F08F92
:1045E00004280020082800202DE9FC5F04460D4621
:1045F0004FF0000B0026A946ED1C00206249087010
:1046000014F8011B6148C175C07D6049897D8842ED
:1046100000DBADE02078617840EA0128A41CB8F105
:10462000000F00D1A4E014F8017B17F0010F01D0B6
:104630000B2000E00A200090009800F071FD17F0B8
:10464000020F4FD05148B0F80AA000BFF8B20021C5
:1046500001F0AEF80646022E08D15FEA0A00AAF180
:10466000010A03D0484800780028EFD0012E00D07E
:104670007EE031E0B8F1000F06D100980A2802D0A0
:104680000A2000F04DFD0E274048B0F80AA000BFF8
:10469000F8B201A901F08CF80646022E08D15FEAB3
:1046A0000A00AAF1010A03D0374800780028EFD0A9
:1046B000012E00D05CE0019805F8010B0198000A7A
:1046C00005F8010B0198000C05F8010B0198000E8C
:1046D00005F8010B0BF1010B5FEA0800A8F10108D6
:1046E000C8D144E024E02078617840EA0120A17834
:1046F00040EA0140E17840EA01600190241D23482E
:10470000B0F80AA000BFF8B201A901F051F80646BE
:10471000022E08D15FEA0A00AAF1010A03D01A4862
:1047200000780028EFD0012E00D021E00BF1010B22
:104730005FEA0800A8F10108D5D100980A2802D044
:104740000A2000F0EDFC1148B0F80AA000BF0021DB
:104750000E2001F02DF80646022E08D15FEA0A006D
:10476000AAF1010A03D0084800780028EFD000BF62
:1047700089F800B04FEA1B2089F8010089F802602F
:10478000A5EB0900BDE8FC9F0428002008280020B4
:1047900070B504460D46207810B1012810D107E00D
:1047A000627802F001000B4A1268116888470BE03A
:1047B000627802F00100074A12685168884703E0F6
:1047C000FF202870012070BD00BF0020287001204C
:1047D000F9E700000028002070B506460D46307845
:1047E000802807DB30789F2804DC2946304600F01B
:1047F000C3F870BD307805F8010B16F8010B1728C7
:1048000074D2DFE800F00C141A205A607BAF9625B2
:104810002BAFAFAFAFAF30363C42484E540030788C
:10482000691CFFF747FC04462C70A01CE1E72946F1
:104830003046FFF7ADFF044699E029463046FFF7C2
:10484000E5FB044693E02846FFF726FC04468EE08D
:1048500029463046FFF7FEFB044688E0284600F074
:1048600090F8044683E02946304600F069FB044690
:104870007DE02946304600F029FB044677E02946D2
:10488000304600F00DFC044671E02946304600F049
:104890009FF804466BE029463046FFF7BDFC04460E
:1048A00065E029463046FFF765FC04465FE029468F
:1048B0003046FFF789FC044659E02946304600F0AF
:1048C00019FC044653E02B480078012802D0022846
:1048D0000DD105E02946304600F08CF804460BE087
:1048E00029463046FFF7C0FC044605E03AE00020C8
:1048F00028706870022400BF00BF38E01D480078AF
:10490000012802D002280CD105E02946304600F0EB
:1049100021FA04460BE029463046FFF765FE0446BF
:1049200005E0002028706870A870032400BF00BF55
:104930001DE010480078012802D002280CD105E0C3
:104940002946304600F024F8044609E0294630465E
:10495000FFF7E4FB044603E0FF202870022048E74D
:1049600000BF04E0FF2005F8010C012041E700BF73
:10497000601C3EE7082800200246FF200870012046
:104980007047014600BF0020487008700220704741
:1049900038B504460D460D480078012803D0FF20A5
:1049A0002870012038BD6078A17840EA0120E178C4
:1049B00040EA0140217940EA016000906946002008
:1049C00001F0E6FC002028700120EBE70828002019
:1049D00010B50246137803F00300401C044C207508
:1049E000C3F380040248447500200870012010BD04
:1049F000082800202DE9F04F85B006460C4600201F
:104A000003900025A146A41CD0490870824602905C
:104A1000761C16F8010B049045E116F8018B18F08E
:104A2000020F7DD0BAF1000F3CD0C948478908F089
:104A30001100012811D100BF6946404601F0A8FCD1
:104A40000546022D1CD13800A7F101018FB217D005
:104A5000BE4800780028EFD012E000BF69460E2063
:104A600001F096FC0546022D08D13800A7F101019E
:104A70008FB203D0B54800780028EFD04FF0000A7D
:104A8000012D00D016E1009804F8010B0098000AEF
:104A900004F8010B0098000C04F8010B0098000EBC
:104AA00004F8010B18F0100F5AD03078717840EAF2
:104AB0000120B17840EA0140F17840EA016B361DEF
:104AC000A3488089019018F0010F15D0A0484789AC
:104AD00000BF0021404601F05BFC0546022D08D1D5
:104AE0003800A7F101018FB203D098480078002860
:104AF000EFD0012D00D0DDE000BF9548478900BF11
:104B00006946404601F044FC0546022D0AD13800B2
:104B1000A7F101018FB205D08C480078002800E091
:104B200063E0EDD0012D00D00EE0894800690099C6
:104B30000840584508D00198411E89B2019118B12A
:104B4000824800780028D8D000BF814800690099C9
:104B50000840584501D045F01005012D42D0A9E08C
:104B60007B48478918F0010F19D0BAF1000F39D1ED
:104B700000BF0021404601F00BFC0546022D08D184
:104B80003800A7F101018FB203D0704800780028E7
:104B9000EFD0012D00D08DE04FF0010A22E000BFE0
:104BA0006946404601F0F4FB0546022D08D1380065
:104BB000A7F101018FB203D0644800780028EFD03C
:104BC000012D00D076E0009804F8010B0098000A4F
:104BD00004F8010B0098000C04F8010B0098000E7B
:104BE00004F8010B0020029055E0BAF1000F26D026
:104BF0005748478900BF69460E2001F0C9FB0546AA
:104C0000022D08D13800A7F101018FB203D04F481F
:104C100000780028EFD0012D00D04BE0009804F878
:104C2000010B0098000A04F8010B0098000C04F82E
:104C3000010B0098000E04F8010B4FF0000A3078C9
:104C4000717840EA0120B17840EA0140F17840EA09
:104C500001600090361D18F0200F04D03C480099E8
:104C60000161012517E03A48478900BF694640467F
:104C700001F08EFB0546022D08D13800A7F1010195
:104C80008FB203D0314800780028EFD0012D00D03A
:104C900010E0012002900398401CC0B203902B4802
:104CA000007800B106E00498411EC9B204910028C2
:104CB0007FF4B3AE00BF012D3DD1BAF1000F25D076
:104CC0002348478900BF69460E2001F061FB054675
:104CD000022D08D13800A7F101018FB203D01B4883
:104CE00000780028EFD0012D00D025E0009804F8CE
:104CF000010B0098000A04F8010B0098000C04F85E
:104D0000010B0098000E04F8010B14E0029890B11A
:104D10000F48478900BF00210E2001F039FB0546EE
:104D2000022D08D13800A7F101018FB203D0074846
:104D300000780028EFD000BF039889F8000089F8B8
:104D40000150A4EB090005B0BDE8F08F0428002055
:104D5000082800202DE9F84F04460D464FF0000BBF
:104D60000026A846ED1C002056490870641C2078D7
:104D7000617840EA012AA41CBAF1000F00D194E046
:104D800014F8017B17F0020F4FD017F0010F16D067
:104D90004D48B0F80A9000BFF8B2002101F0F8FACF
:104DA0000646022E08D15FEA0900A9F1010903D0E5
:104DB000444800780028EFD0012E00D075E02EE0A6
:104DC000BAF1000F03D117F0010F00D00E273E48B3
:104DD000B0F80A9000BFF8B2694601F0D9FA064669
:104DE000022E08D15FEA0900A9F1010903D0354874
:104DF00000780028EFD0012E00D056E0009805F88A
:104E0000010B0098000A05F8010B0098000C05F84A
:104E1000010B0098000E05F8010B0BF1010B5FEA86
:104E20000A00AAF1010ACBD13EE024E020786178A3
:104E300040EA0120A17840EA0140E17840EA0160BF
:104E40000090241D2048B0F80A9000BFF8B26946CF
:104E500001F09EFA0646022E08D15FEA0900A9F188
:104E6000010903D0174800780028EFD0012E00D0A8
:104E70001BE00BF1010B5FEA0A00AAF1010AD5D190
:104E80001148B0F80A9000BF00210E2001F080FA0E
:104E90000646022E08D15FEA0900A9F1010903D0F4
:104EA000084800780028EFD000BF88F800B04FEA2B
:104EB0001B2088F8010088F80260A5EB0800BDE817
:104EC000F88F0000042800200828002030B5024692
:104ED0000C461078557840EA0520957840EA054060
:104EE000D57840EA05631BB9FF202070012030BD52
:104EF00011480068B3EB900F04D301200F4D687088
:104F0000686014E000200D4D6870581E0A4D2D6831
:104F100000EB5500B0FBF3F1022905D9891E881C6E
:104F20000325B0FBF5F100E00121044841600020B9
:104F300020700120DBE7000000000020082800208E
:104F40002DE9F0470646884634787578B078F178D0
:104F500040EA0120317940EA0140717940EA016775
:104F600015F0010F07D014F0010F02D001F08EF9F7
:104F700001E001F07DF915F0020F07D014F0020FE7
:104F800002D001F0D5F901E001F0C4F915F0040FE9
:104F900002D0A01001F0DAF915F0200F02D0601154
:104FA00000BF00BF15F0800F02D0E011FBF73CFC02
:104FB000002F52D03748874200D9074600BF002053
:104FC0004FF0E02188613448006878433349B0FBF2
:104FD000F1F04FF0E02148610520086100BF00BFFB
:104FE00015F0010F04D001F049F9604000D024E031
:104FF00015F0020F05D001F093F990EA640000D09B
:105000001BE015F0040F05D001F098F990EAA40018
:1050100000D012E015F0200F05D000BF002090EA6C
:10502000641000D009E015F0800F05D001F0A4F95C
:1050300090EAE41000D000E007E000BF4FF0E0206D
:105040000069C0F300400028CAD000BF00BF0020A4
:105050004FF0E021086100BF00BF01F00FF9814669
:1050600001F05EF949EA400901F068F949EA80096E
:1050700001F07AF949EAC000002140EA411901F043
:105080007BF949EAC010C4B288F800400120BDE8AD
:10509000F0870000C0C62D000000002040420F0035
:1050A00070B504460D4614F8016B0EB94FF48076C6
:1050B0002146304601F0C4FE00202870012070BD5A
:1050C00010B50948006840080849B0FBF1F0801E9F
:1050D0000749486064210648418101200449087558
:1050E000FBF7E2FB10BD00000000002040420F0073
:1050F0000828002002461078084B187250789378E0
:1051000040EA032305484381D078137940EA03231A
:105110000248838100200870012070470828002081
:1051200010B504460548407818B1204600F008F84C
:1051300002E0204600F0A6F810BD0000082800207C
:1051400070B5054601F0F4F801F092F800BF00BF19
:1051500001F09CF800BF00BF01F08AF800BF00BF5B
:1051600001F094F800BF00BF01F0D4F801F080F81E
:1051700000BF00BF01F08AF800BF00BF01F078F85F
:1051800000BF00BF01F082F800BF00BF012001F0A6
:10519000DDF83B48C17D203030F8114008E001F0D7
:1051A00067F800BF00BF01F071F800BF00BF641EC8
:1051B000002CF4D13248C17D1830405C441E0CE014
:1051C000E8B201F0C3F801F053F800BF00BF01F0EE
:1051D0005DF800BF00BF6D08641E002CF0D12848A8
:1051E000C17D303030F811402CB3E8B201F0AEF898
:1051F00001F03EF800BF00BF01F048F800BF00BF5B
:10520000012001F0A3F8641E08E001F031F800BFAE
:1052100000BF01F03BF800BF00BF641E002CF4D1BA
:1052200001F086F801F024F800BF00BF01F02EF86D
:1052300000BF00BF0DE001F07BF8E8B201F086F896
:1052400001F016F800BF00BF01F020F800BF00BF5A
:1052500000BF01F00DF800BF00BF01F017F800BF5C
:1052600000BF01F057F801F003F800BF00BF01F0E4
:105270000DF800BF00BF012001F068F870BD00000C
:105280000828002038B5054601F052F800F0F0FF7C
:10529000AB494868009000BF00BF0099491E0091CB
:1052A000FBD100BF00F0F2FFA5494868009000BFA5
:1052B00000BF0099491E0091FBD100BF00F0D8FF4C
:1052C0009F494868009000BF00BF0099491E0091A7
:1052D000FBD100BF00F0DAFF99494868009000BF99
:1052E00000BF0099491E0091FBD100BF01F012F8E8
:1052F00000F0BEFF92494868009000BF00BF0099CF
:10530000491E0091FBD100BF00F0C0FF8C494868E6
:10531000009000BF00BF0099491E0091FBD100BF63
:1053200000F0A6FF86494868009000BF00BF0099C2
:10533000491E0091FBD100BF00F0A8FF80494868DA
:10534000009000BF00BF0099491E0091FBD100BF33
:10535000012000F0FBFF7A48C17D203030F8114079
:1053600018E000F085FF76494868009000BF00BF54
:105370000099491E0091FBD100BF00F087FF7049E2
:105380004868009000BF00BF0099491E0091FBD102
:1053900000BF641E002CE4D16948C17D1830405C18
:1053A000441E1CE0E8B200F0D1FF00F061FF644948
:1053B0004868009000BF00BF0099491E0091FBD1D2
:1053C00000BF00F063FF5E494868009000BF00BF67
:1053D0000099491E0091FBD100BF6D08641E002C8E
:1053E000E0D15748C17D303030F81140002C54D006
:1053F000E8B200F0ABFF00F03BFF51494868009075
:1054000000BF00BF0099491E0091FBD100BF00F012
:105410003DFF4B494868009000BF00BF0099491EFE
:105420000091FBD100BF012000F090FF641E18E046
:1054300000F01EFF42494868009000BF00BF00997D
:10544000491E0091FBD100BF00F020FF3C49486895
:10545000009000BF00BF0099491E0091FBD100BF22
:10546000641E002CE4D100F063FF00F001FF34491A
:105470004868009000BF00BF0099491E0091FBD111
:1054800000BF00F003FF2E494868009000BF00BF36
:105490000099491E0091FBD11CE000F049FFE8B2E1
:1054A00000F054FF00F0E4FE25494868009000BF7A
:1054B00000BF0099491E0091FBD100BF00F0E6FE3D
:1054C0001F494868009000BF00BF0099491E009125
:1054D000FBD100BF00F0CCFE19494868009000BF26
:1054E00000BF0099491E0091FBD100BF00F0CEFE25
:1054F00013494868009000BF00BF0099491E009101
:10550000FBD100BF00F006FF00F0B2FE0C49486876
:10551000009000BF00BF0099491E0091FBD100BF61
:1055200000F0B4FE06494868009000BF00BF009933
:10553000491E0091FBD100BF012000F007FF38BDDC
:1055400008280020F8B500F0F3FE00F091FE6E4947
:105550004868009000BF00BF0099491E0091FBD130
:1055600000BF00F093FE68494868009000BF00BF8C
:105570000099491E0091FBD100BF00F0CBFE00F066
:1055800077FE61494868009000BF00BF0099491E3E
:105590000091FBD100BF00F079FE5B4948680090A4
:1055A00000BF00BF0099491E0091FBD100BF00F071
:1055B0005FFE55494868009000BF00BF0099491E32
:1055C0000091FBD100BF00F061FE4F494868009098
:1055D00000BF00BF0099491E0091FBD100BF4A489F
:1055E000C57D18E000F044FE47494868009000BFC0
:1055F00000BF0099491E0091FBD100BF00F046FE9C
:1056000041494868009000BF00BF0099491E0091C1
:10561000FBD100BF6D1E002DE4D100241F251EE02C
:1056200000F026FE38494868009000BF00BF00998E
:10563000491E0091FBD100BF00F096FE064600F027
:1056400025FE31494868009000BF00BF0099491EFF
:105650000091FBD100BF44EAC67464086D1E002DA2
:10566000DED100F065FE00F003FE27494868009097
:1056700000BF00BF0099491E0091FBD100BF00F0A0
:1056800073FE064600F002FE1F494868009000BF06
:1056900000BF0099491E0091FBD100BF44EAC674C7
:1056A00000F0E6FD18494868009000BF00BF00996F
:1056B000491E0091FBD100BF00F0E8FD1249486887
:1056C000009000BF00BF0099491E0091FBD100BFB0
:1056D00000F020FE00F0CCFD0B494868009000BFB0
:1056E00000BF0099491E0091FBD100BF00F0CEFD24
:1056F00005494868009000BF00BF0099491E00910D
:10570000FBD100BF2046F8BD082800202DE9F84F46
:1057100004460F46904604F03F0606B9402614F0B2
:10572000400F02D000F004FE01E000F0F3FD38E08D
:1057300017F801AB00254FF0080926E00AF0FF003A
:1057400000F004FE00F094FD18494868009000BF86
:1057500000BF0099491E0091FBD100BF00F004FE7C
:10576000834600F093FD11494868009000BF00BFD8
:105770000099491E0091FBD100BF4FEA5A0A6D08FB
:1057800045EACB15A9F10109761EB9F1000F01D048
:10579000002ED3D125FA09F514F0800F01D008F8B6
:1057A000015B002EC4D1BDE8F88F0000082800205E
:1057B00070B504460D460648407820B1294620467B
:1057C00000F008F870BD2946204600F03FF9F9E7DF
:1057D000082800202DE9F0470646884600F0A8FD7D
:1057E00000F046FD00BF00BF00F050FD00BF00BF4D
:1057F00000F090FD00F03CFD00BF00BF00F046FD52
:1058000000BF00BF00F034FD00BF00BF00F03EFD50
:1058100000BF00BF8C48C47D08E000F029FD00BF38
:1058200000BF00F033FD00BF00BF641E002CF4D1A8
:10583000C6F3470000F08AFD00F01AFD00BF00BF6C
:1058400000F092FD074600F021FD00BF00BF4FEAC7
:105850004709C6F3870000F079FD00F009FD00BF9D
:1058600000BF00F081FD074600F010FD00BF00BF43
:1058700049EA0709C6F3C70000F068FD00F0F8FC2C
:1058800000BF00BF00F070FD074600F0FFFC00BF46
:1058900000BF49EA8709B9F1010F0AD000F048FDBD
:1058A00000F0E6FC00BF00BF00F0F0FC00BF00BF4E
:1058B000A0E016F0020F52D000251F240EE000F0E9
:1058C000D7FC00BF00BF00F04FFD074600F0DEFC34
:1058D00000BF00BF45EAC7756D08641E002CEED1FD
:1058E0005948817DC07D081A441E14B300F0C0FCE5
:1058F00000BF00BF00F038FD074600F0C7FC00BF46
:1059000000BF641E08E000F0B3FC00BF00BF00F061
:10591000BDFC00BF00BF641E002CF4D100F008FDE8
:1059200000F0A6FC00BF00BF00F0B0FC00BF00BF4D
:105930000DE000F0FDFC00F09BFC00BF00BF00F09C
:1059400013FD074600F0A2FC00BF00BF00BF45EA00
:10595000C775B8F1000F4CD0C8F8005049E0D8F82E
:1059600000501F240CE0E8B200F0F0FC00F080FCD6
:1059700000BF00BF00F08AFC00BF00BF6D08641EBE
:10598000002CF0D13048817DC07D081A441E14B32C
:10599000E8B200F0DBFC00F06BFC00BF00BF00F0E1
:1059A00075FC00BF00BF641E08E000F061FC00BF92
:1059B00000BF00F06BFC00BF00BF641E002CF4D1E0
:1059C00000F0B6FC00F054FC00BF00BF00F05EFC2D
:1059D00000BF00BF0DE000F0ABFCE8B200F0B6FC89
:1059E00000F046FC00BF00BF00F050FC00BF00BF4D
:1059F00000BF00BF00F03CFC00BF00BF00F046FC51
:105A000000BF00BF00F086FC00F032FC00BF00BF0A
:105A100000F03CFC00BF00BF012000F097FC0A48EA
:105A2000047A08E000F024FC00BF00BF00F02EFC68
:105A300000BF00BF00BF2000A4F10104F2D109F0B3
:105A4000FF00BDE8F0870000082800202DE9F8439A
:105A50000746894600F06CFC00F00AFCFE494868E5
:105A6000009000BF00BF0099491E0091FBD100BF0C
:105A700000F00CFCF8494868009000BF00BF009996
:105A8000491E0091FBD100BF00F044FC00F0F0FB88
:105A9000F1494868009000BF00BF0099491E00917D
:105AA000FBD100BF00F0F2FBEB494868009000BF5B
:105AB00000BF0099491E0091FBD100BF00F0D8FB48
:105AC000E5494868009000BF00BF0099491E009159
:105AD000FBD100BF00F0DAFBDF494868009000BF4F
:105AE00000BF0099491E0091FBD100BFDA48C47D78
:105AF00018E000F0BDFBD8494868009000BF00BF27
:105B00000099491E0091FBD100BF00F0BFFBD249B4
:105B10004868009000BF00BF0099491E0091FBD16A
:105B200000BF641E002CE4D1C7F3470000F00EFC58
:105B300000F09EFBC8494868009000BF00BF009974
:105B4000491E0091FBD100BF00F00EFC064600F09C
:105B50009DFBC1494868009000BF00BF0099491EE5
:105B60000091FBD100BF4FEA4608C7F3870000F061
:105B7000EDFB00F07DFBB8494868009000BF00BF16
:105B80000099491E0091FBD100BF00F0EDFB0646D5
:105B900000F07CFBB0494868009000BF00BF00994E
:105BA000491E0091FBD100BF48EA0608C7F3C700B1
:105BB00000F0CCFB00F05CFBA7494868009000BFF8
:105BC00000BF0099491E0091FBD100BF00F0CCFB43
:105BD000064600F05BFBA0494868009000BF00BF8C
:105BE0000099491E0091FBD100BF48EA8608B8F130
:105BF000010F1AD000F09CFB00F03AFB9649486870
:105C0000009000BF00BF0099491E0091FBD100BF6A
:105C100000F03CFB90494868009000BF00BF00992D
:105C2000491E0091FBD100BF42E117F0020F7CD06A
:105C300000251F241EE000F01BFB874948680090E8
:105C400000BF00BF0099491E0091FBD100BF00F0CA
:105C50008BFB064600F01AFB7F494868009000BFA6
:105C600000BF0099491E0091FBD100BF45EAC675EF
:105C70006D08641E002CDED17748817DC07D081A36
:105C8000441E002C52D000F0F3FA7349486800908B
:105C900000BF00BF0099491E0091FBD100BF00F07A
:105CA00063FB064600F0F2FA6B494868009000BFBB
:105CB00000BF0099491E0091FBD100BF641E18E08F
:105CC00000F0D6FA64494868009000BF00BF009910
:105CD000491E0091FBD100BF00F0D8FA5E49486828
:105CE000009000BF00BF0099491E0091FBD100BF8A
:105CF000641E002CE4D100F01BFB00F0B9FA5649F9
:105D00004868009000BF00BF0099491E0091FBD178
:105D100000BF00F0BBFA50494868009000BF00BFC8
:105D20000099491E0091FBD11DE024E000F000FB2A
:105D300000F09EFA48494868009000BF00BF0099F3
:105D4000491E0091FBD100BF00F00EFB064600F09B
:105D50009DFA41494868009000BF00BF0099491E64
:105D60000091FBD100BF45EAC675B9F1000F01D023
:105D7000C9F800509BE0D9F800501F241CE0E8B29D
:105D800000F0E4FA00F074FA33494868009000BF6C
:105D900000BF0099491E0091FBD100BF00F076FAC8
:105DA0002D494868009000BF00BF0099491E00912E
:105DB000FBD100BF6D08641E002CE0D12648817D18
:105DC000C07D081A441E002C54D0E8B200F0BEFA80
:105DD00000F04EFA20494868009000BF00BF0099CB
:105DE000491E0091FBD100BF00F050FA1A494868E3
:105DF000009000BF00BF0099491E0091FBD100BF79
:105E0000641E18E000F034FA13494868009000BF9F
:105E100000BF0099491E0091FBD100BF00F036FA87
:105E20000D494868009000BF00BF0099491E0091CD
:105E3000FBD100BF641E002CE4D100F079FA00F021
:105E400017FA05494868009000BF00BF0099491E35
:105E50000091FBD100BF01E00828002000F016FAF5
:105E60003F494868009000BF00BF0099491E00915B
:105E7000FBD11CE000F05CFAE8B200F067FA00F039
:105E8000F7F937494868009000BF00BF0099491EE4
:105E90000091FBD100BF00F0F9F93149486800904A
:105EA00000BF00BF0099491E0091FBD100BF00BF99
:105EB00000F0DEF92A494868009000BF00BF009951
:105EC000491E0091FBD100BF00F0E0F92449486869
:105ED000009000BF00BF0099491E0091FBD100BF98
:105EE00000F018FA00F0C4F91D494868009000BF9E
:105EF00000BF0099491E0091FBD100BF00F0C6F918
:105F000017494868009000BF00BF0099491E0091E2
:105F1000FBD100BF012000F019FA1148047A17E004
:105F200000F0A6F90E494868009000BF00BF009934
:105F3000491E0091FBD100BF00F0A8F9084948684C
:105F4000009000BF00BF0099491E0091FBD100BF27
:105F50002000A4F10104E3D108F0FF00BDE8F883BC
:105F60000828002038B5054600F0E2F900F080F975
:105F7000BE494868009000BF00BF0099491E0091CB
:105F8000FBD100BF00F082F9B8494868009000BF1B
:105F900000BF0099491E0091FBD100BF00F0BAF983
:105FA00000F066F9B1494868009000BF00BF009951
:105FB000491E0091FBD100BF00F068F9AB49486869
:105FC000009000BF00BF0099491E0091FBD100BFA7
:105FD00000F04EF9A5494868009000BF00BF009945
:105FE000491E0091FBD100BF00F050F99F4948685D
:105FF000009000BF00BF0099491E0091FBD100BF77
:106000009A48C47D18E000F033F998494868009038
:1060100000BF00BF0099491E0091FBD100BF00F0F6
:1060200035F992494868009000BF00BF0099491EA9
:106030000091FBD100BF641E002CE4D1002000F0D1
:1060400085F900F015F989494868009000BF00BF44
:106050000099491E0091FBD100BF00F017F9834958
:106060004868009000BF00BF0099491E0091FBD115
:1060700000BF00F0FDF87D494868009000BF00BFF8
:106080000099491E0091FBD100BF00F0FFF877494D
:106090004868009000BF00BF0099491E0091FBD1E5
:1060A00000BF00F0E5F871494868009000BF00BFEC
:1060B0000099491E0091FBD100BF00F0E7F86B4941
:1060C0004868009000BF00BF0099491E0091FBD1B5
:1060D00000BF1F241CE0E8B200F038F900F0C8F857
:1060E00062494868009000BF00BF0099491E0091B6
:1060F000FBD100BF00F0CAF85C494868009000BFBF
:1061000000BF0099491E0091FBD100BF6D08641EBD
:10611000002CE0D15548817DC07D081A441E002C1A
:1061200051D0E8B200F012F900F0A2F84F494868E7
:10613000009000BF00BF0099491E0091FBD100BF35
:1061400000F0A4F849494868009000BF00BF0099DA
:10615000491E0091FBD100BF641E18E000F088F8D2
:1061600042494868009000BF00BF0099491E009155
:10617000FBD100BF00F08AF83C494868009000BF9E
:1061800000BF0099491E0091FBD100BF641E002C86
:10619000E4D100F0CDF800F06BF834494868009085
:1061A00000BF00BF0099491E0091FBD100BF00F065
:1061B0006DF82E494868009000BF00BF0099491E45
:1061C0000091FBD11CE000F0B3F8E8B200F0BEF89B
:1061D00000F04EF825494868009000BF00BF0099C4
:1061E000491E0091FBD100BF00F050F81F494868DC
:1061F000009000BF00BF0099491E0091FBD100BF75
:1062000000F036F819494868009000BF00BF0099B7
:10621000491E0091FBD100BF00F038F813494868CF
:10622000009000BF00BF0099491E0091FBD100BF44
:1062300000F070F800F01CF80C494868009000BFAE
:1062400000BF0099491E0091FBD100BF00F01EF86D
:1062500006494868009000BF00BF0099491E0091A0
:10626000FBD100BF012000F071F838BD08280020E4
:106270002020014908607047140801400248006866
:10628000C0F34010704700000C0801402020014975
:1062900008607047100801400448006810F0100FB3
:1062A00001D0012070470020FCE7000008080140F1
:1062B00010F0010F03D01021034A116003E01021F8
:1062C000014A121D116070471008014000BF0748C5
:1062D000006820F4702040F4002004490860102079
:1062E00002491031086000BF7047000000080140FB
:1062F00000BF0748006820F4702040F44030044993
:106300000860102002491431086000BF7047000087
:10631000000801401020014908607047140801403E
:1063200002480068C0F300107047000008080140F0
:1063300010200149086070471008014002480068B9
:10634000C0F3C010704700000C08014010F0010FAE
:1063500003D08021034A116003E08021014A121D0D
:10636000116070471008014002480068C0F38010B7
:1063700070470000080801400448006810F4007FDE
:1063800001D0012070470020FCE70000080C01400C
:1063900070B504460D460648407820B1294620468F
:1063A00000F008F870BD2946204600F08DF9F9E7A5
:1063B000082800202DE9F04706468A4600270120DC
:1063C000FFF776FFFFF754FF00BF00BFFFF75EFF48
:1063D00000BF00BF3546E8B2FFF76AFFFFF748FF8E
:1063E00000BF00BFFFF752FF00BF00BF2F44751072
:1063F000E8B2FFF75DFFFFF73BFF00BF00BFFFF70D
:1064000045FF00BF00BF2F44B510E8B2FFF750FFB3
:10641000FFF72EFF00BF00BFFFF738FF00BF00BF30
:106420002F44F510E8B2FFF743FFFFF721FF00BF4D
:1064300000BFFFF72BFF00BF00BF2F44F8B2FFF7EC
:1064400037FFFFF715FF00BF00BFFFF71FFF00BFBB
:1064500000BF0020FFF72CFFFFF70AFF00BF00BFBF
:10646000FFF714FF00BF00BF0120FFF721FFFFF778
:10647000FFFE00BF00BFFFF709FF00BF00BFFFF72F
:1064800025FF9048047D08E0FFF7F2FE00BF00BF43
:10649000FFF7FCFE00BF00BF641E002CF4D1FFF725
:1064A000E7FE00BF00BFFFF7F7FE0546FFF7EEFE71
:1064B00000BF00BFA846FFF7DBFE00BF00BFFFF72D
:1064C000EBFE0546FFF7E2FE00BF00BF48EA4508C5
:1064D000FFF7CEFE00BF00BFFFF7DEFE0546FFF769
:1064E000D5FE00BF00BF48EA8508B8F1010F7BD197
:1064F00016F0020F3ED0A1460027202410E0FFF73F
:10650000B7FE00BF00BFFFF7C7FE0546FFF7BEFEA0
:1065100000BF00BF2F444FEA590949EAC579641EFC
:10652000002CECD1FFF7A4FE00BF00BFFFF7B4FEC4
:106530000546FFF7ABFE00BF00BF87EA050010F07D
:10654000010F01D04FF00808BAF1000F01D0CAF8CE
:1065500000905C48047D08E0FFF78AFE00BF00BFA2
:10656000FFF794FE00BF00BF641E002CF4D1FFF7BC
:10657000BFFE32E05348047D08E0FFF779FE00BF1C
:1065800000BFFFF783FE00BF00BF641E002CF4D1E4
:10659000FFF7AEFEDAF80090002720240FE009F0A4
:1065A000FF00FFF785FEFFF763FE00BF00BFFFF7A8
:1065B0006DFE00BF00BF4F444FEA5909641E002C16
:1065C000EDD1F8B2FFF774FEFFF752FE00BF00BF37
:1065D000FFF75CFE00BF00BF00BF3A48047A7CB101
:1065E0000020FFF765FE09E011E0FFF741FE00BF64
:1065F00000BFFFF74BFE00BF00BF641E002CF4D1AC
:106600000120FFF755FE08F0FF00BDE8F087B8F164
:10661000020F02D0B8F1040F3ED12A48407D78B174
:1066200016F0020F0CD0212408E0FFF721FE00BF76
:1066300000BFFFF72BFE00BF00BF641E002CF4D18B
:106640002048047D08E0FFF713FE00BF00BFFFF7FE
:106650001DFE00BF00BF641E002CF4D1FFF748FEF2
:106660001848407D90B116F0020F0FD10020FFF7BF
:106670001FFE212408E0FFF7FBFD00BF00BFFFF76E
:1066800005FE00BF00BF641E002CF4D10120FFF7FF
:106690000FFE08F0FF00B8E70A48007D00F1210472
:1066A00008E0FFF7E5FD00BF00BFFFF7EFFD00BF0B
:1066B00000BF641E002CF4D10120FFF7F9FD08F0A3
:1066C000FF00A2E70828002003B587B00020039050
:1066D0000120FFF7EDFDFFF7CBFDFE48406801907C
:1066E0000198009000BF00BF0098401E0090FBD1B1
:1066F00000BFFFF7CBFDF74840680190019800907C
:1067000000BF00BF0098401E0090FBD100BF07985B
:1067100005900598C0B20190FFF7CAFDFFF7A8FDEC
:10672000EC48406801900198009000BF00BF0098BD
:10673000401E0090FBD100BFFFF7A8FDE548406870
:1067400001900198009000BF00BF0098401E00908B
:10675000FBD100BF059903980844039007984010A7
:1067600005900598C0B20190FFF7A2FDFFF780FDEC
:10677000D848406801900198009000BF00BF009881
:10678000401E0090FBD100BFFFF780FDD14840685C
:1067900001900198009000BF00BF0098401E00903B
:1067A000FBD100BF05990398084403900798801017
:1067B00005900598C0B20190FFF77AFDFFF758FDEC
:1067C000C448406801900198009000BF00BF009845
:1067D000401E0090FBD100BFFFF758FDBD48406848
:1067E00001900198009000BF00BF0098401E0090EB
:1067F000FBD100BF05990398084403900798C01087
:1068000005900598C0B20190FFF752FDFFF730FDEB
:10681000B048406801900198009000BF00BF009808
:10682000401E0090FBD100BFFFF730FDA948406833
:1068300001900198009000BF00BF0098401E00909A
