:020000040800F2
:100000000050002001010008DD060008DD060008A0
:10001000DD060008DD060008DD060008000000001F
:10002000000000000000000000000000DD060008E5
:10003000DD06000800000000DD06000819010008C8
:100040001B0100081B0100081B0100081B01000820
:100050001B0100081B0100081B0100081B01000810
:100060001B0100081B0100081B0100081B01000800
:100070001B0100081B0100081B0100081B010008F0
:100080001B0100081B0100081B0100081B010008E0
:10009000C52E00081B0100081B0100081B010008F9
:1000A0001B0100081B0100081B0100081B010008C0
:1000B0001B0100081B0100081B0100081B010008B0
:1000C0001B0100081B0100081B0100081B010008A0
:1000D0001B010008350E00081B0100081B01000869
:1000E0001B0100081B0100081B010008DFF80CD0F1
:1000F00000F02AF800480047713000080050002046
:100100000648804706480047FEE7FEE7FEE7FEE7B1
:10011000FEE7FEE7FEE7FEE7FEE7FEE7D90B000895
:10012000ED00000840EA01039B0703D009E008C97D
:10013000121F08C0042AFAD203E011F8013B00F8AC
:10014000013B521EF9D27047064C074D06E0E068AD
:1001500040F0010394E8070098471034AC42F6D30E
:10016000FFF7C8FFD83700081838000810B50E4848
:10017000806940F01D000C49886101210B4800F0A6
:1001800099F90B490B4800F00AF90B49094800F0AE
:1001900006F90A490A4800F002F90A490A4800F03B
:1001A000FEF800F0B3FA10BD00100240000230006B
:1001B0000036000800080140043600080836000830
:1001C000000C01400C3600080010014008B50B4936
:1001D00009684FF47A72B1FBF2F1891C0622B1FB77
:1001E000F2F148430146009100BF00BF009A521E41
:1001F0000092002AFAD100BF08BD000000000020D4
:1002000030B500F00F010D4C04EB8103D3F8002C46
:1002100000F0800343B148F6CF731340254605EB49
:100220008104C4F8003C07E04CF68F731340034D83
:1002300005EB8104C4F8003C30BD000000500040D4
:1002400070B500F00F02104D05EB8204D4F8003CAD
:1002500000F080045CB101F030045C4048F6BF75EA
:100260002C40094E06EB8205C5F8004C0AE001F46B
:1002700040545C404BF68F752C40034E06EB8205D4
:10028000C5F8004C70BD00000050004030B5044679
:1002900004254FF4302000F06FF80546042D17D1E7
:1002A0000C48006940F002000A49086108464461B0
:1002B000006940F0400008614FF4302000F05CF825
:1002C00005460448006941F6FD710840014908618E
:1002D000284630BD0020024004200B49C96801F0C7
:1002E000010109B101200EE00749C96801F00401CC
:1002F00009B1022007E00449C96801F0100109B101
:10030000032000E0042070470020024003480069F9
:1003100040F0800001490861704700000020024061
:1003200070B504460D460426F00200F025F8064696
:10033000042E11D10948006940F001000749086105
:100340002580F00200F018F806460448006941F6DE
:10035000FE71084001490861304670BD002002402E
:1003600002480349486003484860704723016745D5
:1003700000200240AB89EFCD00B502460423FFF711
:10038000ABFF034603E0FFF7A7FF0346521E012B16
:1003900001D1002AF7D102B90523184600BD2DE985
:1003A000F0410246002500260020002300240027FB
:1003B00091F803C00CF00F0591F803C00CF0100C7D
:1003C000BCF1000F03D091F802C04CEA050591F88A
:1003D00000C0BCF1000F31D0146800202BE04FF0BA
:1003E000010C0CFA00F3B1F800C00CEA03069E42BF
:1003F00020D183004FF00F0C0CFA03F7BC4305FA31
:1004000003FC4CEA040491F803C0BCF1280F06D1A8
:100410004FF0010C0CFA00FCC2F814C00AE091F88D
:1004200003C0BCF1480F05D14FF0010C0CFA00FCE1
:10043000C2F810C0401C0828D1D31460B1F800C025
:10044000BCF1FF0F34DD546800202EE000F1080CF1
:100450004FF0010808FA0CF3B1F800C00CEA0306EB
:100460009E4221D183004FF00F0C0CFA03F7BC43DE
:1004700005FA03FC4CEA040491F803C0BCF1280F10
:1004800005D100F1080C08FA0CF8C2F8148091F8B4
:1004900003C0BCF1480F07D100F1080C4FF0010870
:1004A00008FA0CF8C2F81080401C0828CED354601B
:1004B000BDE8F081F0B50A460023002400210025A4
:1004C00000F00046B6F1004F02D11D4EF16901E087
:1004D0001B4E7168C0F3034583B200F44016B6F5B5
:1004E000401F08D121F07061154E766826F07066C5
:1004F000134F7E6012E000F48016B6F5801F06D11F
:10050000032606FA05F4A14341F0706106E0460DAA
:10051000360103FA06F6B14341F0706122B1460D8F
:10052000360103FA06F6314300F00046B6F1004FFB
:1005300002D1034EF16101E0014E7160F0BD000097
:10054000000001402DE9F04704460D464FF0FF0A38
:100550002078D02872DB2078D7286FDC207805F847
:10056000010B14F8010BD038082868D2DFE800F03E
:1005700004121518213356725048076805F8017B9C
:10058000380A05F8010B380C05F8010B380E05F890
:10059000010B74E0FFF7E4FE71E0FFF7B7FE6EE0D9
:1005A00027683846FFF772FE042801D04FF0FF0A93
:1005B00065E0D4F80080A68806E018F8011BFF2942
:1005C00002D04FF0FF0A04E03000A6F101018EB224
:1005D000F3D100BF53E02768A688382E02DD4FF024
:1005E000FF0A1AE0A41D12E014F8019B2EB114F8C2
:1005F000011B49EA0129701E86B249463846FFF7B9
:100600008FFE042802D04FF0FF0A05E0BF1C300027
:10061000A6F101018EB2E7D100BF30E0D4F800802E
:10062000A6883E2E02DD4FF0FF0A12E0002005F8FA
:10063000010B09E026B998F800A005E023E01AE0D4
:1006400018F8010B05F8010B3000A6F101018EB27C
:10065000F0D114E000BFBFF34F8F1948006800F4D9
:10066000E06018490843001D15490860BFF34F8F2B
:1006700000BF00BFFEE76D1E4FF0FF0A00BF00BFC6
:1006800085F800A017E01048006890B10F4BDFF824
:1006900040C0DCF800C003EB8C110E4BDFF838C013
:1006A000DCF800C003EB8C10074B1B685A689047BE
:1006B00001E0FF202870BDE8F0870000002004E082
:1006C0000CED00E00000FA0514000020FC120020F0
:1006D00068000020FC0200206000002072B600F0DC
:1006E00015F811E000F058F8FA20FFF76FFD00F060
:1006F0004BF800F02BF8FA20FFF768FD00F01EF829
:100700004FF4FA70FFF762FDECE7000010B50848FF
:10071000806940F00800064988614FF4405005495F
:100720000860054903481438FFF739FE10BD000082
:1007300000100240140C0140E03500084FF4005056
:100740000149086070470000140C01404FF400504C
:100750000149086070470000100C014000B50246D6
:1007600002F0010010B1FFF7F1FF01E0FFF7E6FF33
:1007700000BD00000348006880F400500149086093
:10078000704700000C0C01404FF480500149086094
:1007900070470000140C01404FF48050014908607C
:1007A00070470000100C014000B5024602F0010045
:1007B00010B1FFF7F1FF01E0FFF7E6FF00BD000019
:1007C00070B5002400F04CFA054605F0040008B1AD
:1007D00044F0400405F0020008B144F0400405F084
:1007E000010008B144F0100400F058FA054605F085
:1007F000080008B144F0080405F0040008B144F012
:10080000020405F0020008B144F0010400F014FAFB
:1008100008B144F0040405480068604028B1A0B263
:1008200000F050FE08B10148046070BD28000020AF
:1008300000F0010149B100BF0949096821F0F00148
:1008400041F04001064A116009E000BF044909680F
:1008500021F0F00141F07001014A116000BF7047C2
:10086000040C014010B5F0200D49086048150D49F1
:10087000086000BF0B481038006820F0F00040F01E
:10088000400008491039086000BF07490448103883
:10089000FFF785FD054902481038FFF780FD10BDC0
:1008A00010080140140C0140F0350008F435000830
:1008B00010B504490448FFF772FD04490448FFF7E6
:1008C0006EFD10BDF835000800080140FC35000839
:1008D000000C014010B530200D49086048150D4945
:1008E00008600D490A481038FFF759FD0B490848C0
:1008F0001038FFF754FD00BF06481038006820F09C
:10090000F00040F0400003491039086000BF10BDFE
:1009100010080140140C0140E8350008EC350008CF
:1009200010B50748806940F00400054988618815C2
:1009300004490860044903481438FFF730FD10BD2E
:100940000010024014080140E435000829B1064AAD
:1009500092690243044B9A6104E0034A926982431C
:10096000014B9A61704700000010024030B5002131
:100970000022002400232D4D6D6805F00C0121B1EB
:10098000042905D0082923D105E0294D056022E07E
:10099000274D05601FE0254D6D6805F47012234D4D
:1009A0006D6805F48034022505EB92421CB9214D97
:1009B000554305600BE01D4D6D6805F400351DB114
:1009C0001C4D5543056002E0194D5543056002E09A
:1009D000174D056000BF00BF144D6D6805F0F001B4
:1009E0000909154D6B5C0568DD4045600F4D6D686C
:1009F00005F4E061090A104D6B5C4568DD408560D7
:100A00000A4D6D6805F46051C90A0B4D6B5C456871
:100A1000DD40C560054D6D6805F44041890B074D0B
:100A20006B5CC568B5FBF3F5056130BD0010024095
:100A300000127A0000093D007000002080000020B4
:100A400010B500F001F810BD08B50020009037483F
:100A5000006840F480303549086000BF33480068C2
:100A600000F4003018B90098B0F5A06FF6D12F4807
:100A7000006800F4003040B92C48006820F4803051
:100A80002A4908600120009001E0002000902848D9
:100A9000006840F01000264908600846006820F011
:100AA000030008600846006840F0020008601F4824
:100AB00040681E49486008464068486008464068EB
:100AC00040F4806048600846406820F47C1048602C
:100AD000009828B10846406840F4D000486005E01E
:100AE0001248406840F4E810104948600F48006818
:100AF00040F080700D49086000BF0C48006800F0AD
:100B000000700028F9D00948406820F00300074928
:100B100048600846406840F00200486000BF034853
:100B2000406800F00C000828F9D108BD0010024010
:100B30000020024010B5002100200022214B5B68FC
:100B400003F00C0121B1042906D0082928D107E0BF
:100B50001D4B1E4C236027E01B4B1C4C236023E0E5
:100B6000184B5B6803F47010164B5B6803F480321B
:100B7000022303EB904022B9154B4343134C2360EF
:100B80000DE0104B5B6803F4003323B1104B43437B
:100B90000E4C236003E00C4B43430C4C236003E0FA
:100BA000094B0A4C236000BF00BF064B5B68C3F3D0
:100BB0000313084CE15C054B1B68CB40034C2360DE
:100BC00010BD00000010024000127A00000000205A
:100BD00000093D000400002010B51348006840F0F3
:100BE00001001149086008464068104908400E4954
:100BF0004860084600680E4908400B4908600846EE
:100C0000006820F4802008600846406820F4FE0058
:100C100048604FF41F008860FFF712FF4FF000603C
:100C20000449086010BD0000001002400000FFF8F9
:100C3000FFFFF6FE08ED00E0014800687047000085
:100C40004C00002008B50121684600F037F8012863
:100C500002D19DF8000008BD4FF0FF30FBE7000017
:100C600000200C49097801F0010109B140F00200AF
:100C70000849097801F0040109B140F0040006496F
:100C8000096831B90349097801F0020109B140F05E
:100C900002007047440000204C00002000207047F4
:100CA00001B50121684600F085F8012802D19DF8C0
:100CB000000008BD4FF0FF30FBE7000030B50246F2
:100CC000002309B9002030BD22E01548B0F94400E6
:100CD000134CB4F94640A0421AD0114CB4F842006B
:100CE000441C0F4DA5F842402C46245C02F8014BF1
:100CF0002846B0F8420000F03F002C46A4F842001D
:100D00002046B0F84600401C00B2A4F846005B1C28
:100D10000800A1F10104A1B2D7D11846D3E7000021
:100D2000A402002070B5252000F01F02012191408F
:100D30001A4A430942F8231000BF002018490860EE
:100D40001849086018490871082088710020487106
:100D50004FF4E1300860084600F016FC134C002503
:100D600003E0002004F8010B6D1C482DF9D3104C52
:100D7000002503E0002004F8010B6D1C482DF9D379
:100D8000252000F01F02012191404209920002F14A
:100D9000E022C2F8001100BF012070BD80E100E038
:100DA000480000204C000020500000205C02002081
:100DB000A40200202DE9F04104460D46002615B995
:100DC0000020BDE8F08123E01848B0F8440017493E
:100DD000B1F84610401A07B2402F19DA14F8012B67
:100DE0001249B1F84000411C104BA3F840101946BD
:100DF0000A540846B0F8400000F03F00A1F8400057
:100E00000846B0F84400401C00B2A1F84400761C2B
:100E10002800A5F101018DB2D6D1012240F227713F
:100E2000034800F0CEF83046CBE700005C0200201B
:100E30000038014070B53B4800883B49086040F2EB
:100E40002771384800F093F850B3384800680128FB
:100E500003D1344800F04BF929E03548B0F944009B
:100E60003349B1F9461088421BD03148B0F842608E
:100E7000701C2F4AA2F842001046815D294800F0FC
:100E80003BF92B48B0F8420000F03F002849A1F898
:100E900042000846B0F84600401C00B2A1F84600E7
:100EA00005E0002240F227711E4800F08AF840F267
:100EB00025511C4800F05BF890B31E48B0F8440080
:100EC0001C49B1F84610401A05B2402D28DA1548E1
:100ED00000F008F9C4B21749B1F84000411C154AA6
:100EE000A2F8401011460C5444B902210D4800F0FC
:100EF00031F818B101201049086002E000200E49C5
:100F000008600C48B0F8400000F03F000949A1F823
:100F100040000846B0F84400401C00B2A1F844006C
:100F200070BD00000038014044000020480000204F
:100F30005C020020A40200204C00002021B1828924
:100F400042F40052828104E082894DF6FF731A4018
:100F50008281704702460020B1F5007F00D100BFBA
:100F600013880B400BB1012000E00020704770B5E2
:100F70000246002400230025002040F66A16B142F4
:100F800000D100BFC1F3421501F01F03012606FA8C
:100F900003F3012D02D19689334006E0022D02D1E0
:100FA000168A334001E0968A33400C12012606FA75
:100FB00004F41688344013B10CB1012000E0002085
:100FC00070BDF0B50346002400260025002040F641
:100FD0006A17B94200D100BF1846C1F3421401F0AC
:100FE0001F06012707FA06F5012C01D10C3004E099
:100FF000022C01D1103000E014301AB107682F43E1
:10100000076002E00768AF430760F0BD2DE9F047D5
:1010100086B005460E460024A24600BFA146002722
:10102000B08900B100BF2F462C8A4CF6FF700440F7
:10103000F08804432C82AC894EF6F3100440B0884B
:1010400031890843718908430443AC81AC8A4FF667
:10105000FF400440B0890443AC8201A8FFF786FC3E
:101060001F48874202D1DDF810A001E0DDF80CA096
:10107000A88900F4004040B10AEBCA0000EB0A1056
:1010800031684900B0FBF1F807E00AEBCA0000EB59
:101090000A1031688900B0FBF1F86420B8FBF0F069
:1010A00004012009642101FB1089A88900F4004093
:1010B00040B1322000EBC900B0FBF1F000F00700B6
:1010C000044308E0322000EB09106421B0FBF1F08A
:1010D00000F00F0004432C8106B0BDE8F08700004B
:1010E0000038014001468888C0F3080070478189B4
:1010F00041F0010181817047C1F30802828070478D
:10110000014600207047000070B506460C460E48A8
:1011100000680E490968884213D90B4800680B49DA
:101120000968451AAC4200DD2C4622460748016892
:101130003046FEF7F7FF0548006820440349086081
:1011400000E00024204670BDB0000020B400002064
:1011500001460020704700002DE9F04707460C4685
:10116000B8462448006824490968A0EB01092348CF
:101170000088A0EB0906002E02DC0020BDE8F08705
:10118000B44200DD344600251D4800681D49096849
:1011900088421AD31A48006820441B49174A12880B
:1011A0001144884211D9184814490988084414493F
:1011B0000968451A2A46414611480068FEF7B2FF01
:1011C000A844641B10480E49086054B122464146A9
:1011D0000B480068FEF7A6FF09480068204408494C
:1011E00008602C44034800682044024908602046F7
:1011F000C4E7000090000020940000203036000872
:10120000980000209C000020D201002010B5044668
:101210000648006800B110BD01200449086000F0D4
:1012200007F800200149086000BFF4E784000020AF
:1012300010B53848006800B910BD37480068374914
:101240000968441A34B93648006818B90020314991
:101250000860F1E71CB932480068002857D03148CF
:10126000006831490968884203D8304800888442C0
:101270000FD12C48006820442D492C4A1288114473
:10128000884206D92A482949098808442549096815
:10129000441A28482849097830F81100A04204DA95
:1012A00024482549097830F811402449097841F04B
:1012B000800022461B49096801F0CAFD19480068F0
:1012C0002044184908601548006820441349086004
:1012D000174816490988084412490968884202D10A
:1012E0001348104908600C4800680C490968884296
:1012F0000AD110481049097830F81100A04203D1F2
:1013000001200749086002E000200549086000BF8D
:1013100092E7000088000020900000209400002048
:101320008C0000209C00002098000020303600082F
:10133000D201002038360008D50000202D360008E4
:1013400010B504461148006828B111480068401CD7
:101350000F49086010BD01200C4908600D49086064
:1013600000F01EF800200B490860084908600A4890
:1013700000680A490968884206D007490968074A8F
:101380001268881AFFF7E4FE00BFE3E7A000002020
:10139000A8000020A4000020B0000020B40000201D
:1013A00010B5194800681949401A19490988081ADE
:1013B0001849194A127831F81210884217DB12487E
:1013C00001681648007801F0B1F804460E4800683C
:1013D00020440D4908601248006898B1114800681F
:1013E00080B90F480068401E0D4908600AE00120DE
:1013F0000D4908600B48006820B109480068401C8E
:101400000749086010BD0000B00000201202002053
:101410003236000838360008D50000202E36000885
:10142000A8000020A4000020AC00002010B5044655
:1014300004F0040010B12046FFF782FF04F008001A
:1014400010B12046FFF7E2FE10BD704708B501213C
:101450006846FFF759FE012802D19DF8000008BD3B
:101460004FF0FF30FBE70146002070470020704737
:1014700010B5104800F04EF8D0B10E4800780E4973
:1014800008700C480088000A48700A480068000C80
:10149000887008480068000EC87006480079087116
:1014A000044840794871034880798871012010BD53
:1014B0000020FCE7BA0000201001002010B500F069
:1014C0003BF810BD10B504460F480078D0B1A120FC
:1014D0000E4908702020487000208870C87008717C
:1014E0004871022088710020C8710C722012487265
:1014F0000749097841F080000A22044901F0A8FC5C
:10150000012010BD0020FCE7C7000020520200208F
:101510002C36000801460748007908710548807993
:1015200088710448407948710248006808600120C9
:10153000704700005000002010B501210846FFF759
:1015400005FA01210420FFF701FA08490848FEF7CF
:1015500026FF08490648FEF722FF01218803FFF70E
:10156000F5F9FFF7DFFB012010BD0000C8370008C8
:1015700000080140CC37000810B5FFF7D3FB10BDC1
:10158000014601207047000070B50546284CA87937
:10159000082801D0002070BD0020A080687920B10B
:1015A000012809D002280BD102E00020208109E0A7
:1015B0004FF48060208105E04FF4C060208101E09D
:1015C0000020E8E700BF287920B1012809D00228CF
:1015D0000BD102E00020E08009E04FF40050E080F1
:1015E00005E04FF44050E08001E00020D3E700BF69
:1015F000287910490871A879887168794871286834
:101600000860286820600C2060810020A0812146AD
:101610000948FFF7FBFC012240F225510648FFF77D
:10162000D0FC01210448FFF789FC0120B3E700004A
:10163000EC020020500000200038014001B50121DB
:101640006846FFF789FD012802D19DF8000008BD1A
:101650004FF0FF30FBE7000010B50020174908608D
:10166000174908601749086017490860174908605A
:101670001748184908601849086000201749086091
:101680001749086017490860174908601748184942
:10169000086018490860002017490880FFF76CFFB0
:1016A0004FF4165015490860002008714871082051
:1016B00088710846FFF768FF10BD00008400002015
:1016C000880000208C000020900000209400002062
:1016D000D2010020980000209C000020A0000020E3
:1016E000A4000020A8000020AC000020120200206E
:1016F000B0000020B4000020B8000020BA00002094
:1017000010B5FFF7A9FF10BD10B528480068B8B99B
:101710002748006827490968884211D12448006891
:10172000254988420CD001202049086022482049E0
:101730000860204908600020204908601B490860B3
:101740001F480068D0B119480068B8B91B48006844
:10175000A0B9012015490860FFF722FE00201349B7
:1017600008601348006813490968884206D0104988
:101770000968104A1268881AFFF7EAFC11480068E5
:1017800090B91148006878B9104800681049096894
:10179000401A09D001200B4908600B490860FFF787
:1017A00047FD00200749086010BD0000A000002090
:1017B000B0000020B400002012020020AC00002085
:1017C000A800002084000020880000209000002055
:1017D0009400002001460020704700207047014619
:1017E0000020704710B50446024804802046FFF7E9
:1017F000C7FE10BDB800002010B50E4800780D4996
:10180000497840EA01200B49897840EA01400949BA
:10181000C97840EA01600849086006480079087103
:101820000448407948710348807988710846FFF779
:10183000ABFE10BD10010020BA00002010B5044618
:101840002046FEF7DDFC43F230012046FEF7F8FCAF
:1018500010BD000010B50246937803F00F01908888
:10186000937803F0800353B1294B1B88294C2468DB
:1018700004EB01142360431C23F0010020E0244BFF
:101880001B88244C246804EB0114A3603E280ED965
:1018900000F11F0323F01F000123C3EB401343F4A7
:1018A00000431C4C246804EB0114E36008E0431C73
:1018B00023F001004302174C246804EB0114E36099
:1018C000134B1B880344124C2380D37803F003038B
:1018D00033B1012B07D0022B08D0032B0FD10BE023
:1018E0004FF400700BE04FF4806008E0002000230C
:1018F0000BB140F4807002E04FF4C06000BF00BF45
:101900000843054C04EB8103C3F8000C10BD000034
:101910003C000020380000200050004030B9402139
:10192000034A1180114609888031118070470000F8
:101930003C00002000F020BB78B14FF480710B4ACE
:10194000116001210A4A116000211160121D11600D
:101950004FF4E051121F116006E00321044A1160A8
:101960009115024A121D11607047000010080140D5
:10197000405C004010B510488088104909788842C2
:1019800002DD0E48047801E00B48848814B9002079
:101990000B490870084822460168802001F058FA77
:1019A00004460548006820440349086008468088CA
:1019B000001B888010BD0000D800002015360008EC
:1019C000D600002010B508480168002000F0AEFDE8
:1019D000044605480068204403490860084680889A
:1019E000001B888010BD0000D8000020704710B593
:1019F000044600212046FEF723FC10BD10B5044626
:101A000043F220012046FEF71BFC10BD10B5044632
:101A100004F00200002870D001F0E8F9A949097823
:101A2000C809FFF7E3FFA748C088A7498880A548F1
:101A30000078C0F3411010B1012875D1A9E0A14888
:101A400040780C2871D2DFE800F0060DA11BA12917
:101A5000464D4E62719400F0D3FE00B9B5E0FFF739
:101A600089FF94E0002000F02BFF00B9ADE001F009
:101A7000C5F99648006810B194480068804786E030
:101A8000012000F01DFF00B99FE001F0B7F98F4879
:101A9000006810B18D480068804778E000BF894831
:101AA000007800F01F0030B98648807840F0800050
:101AB0008749087001E0002001E000BF012000B963
:101AC00083E08349097801F07F00012101F07CF96E
:101AD00001F094F95BE000F05BFD00B975E0FFF701
:101AE00049FF54E071E000BF7648007800F01F0025
:101AF00020B978487449086002E079E0002001E0EC
:101B000000BF012000B960E0FFF734FF3FE000F0C4
:101B10004FFF00B959E001F071F96F48006810B14A
:101B20006D480068804732E04EE02FE000BF654816
:101B3000007800F01F00012812D16648007860B1DB
:101B40006048007965490978884206DA5D4800797D
:101B5000634908445C49086001E0002004E001E0BA
:101B6000002001E000BF012000B92EE0FFF702FFD6
:101B70000DE001F00FF800B927E001F03FF95948F6
:101B8000006810B157480068804700E01DE000BFC2
:101B90002DE04C48007800F01F0020B1012803D050
:101BA00002280FD10DE010E000F072F900B10AE058
:101BB00000F0E0F900B106E000F0EAF800B102E060
:101BC00003E002E001E012E000BF3E480078C009F7
:101BD00030B93C48C08818B1002001F0FFF802E09D
:101BE000802001F0FBF800203749888000BF00BF4B
:101BF00004F0040098B333480078C00980BB324831
:101C0000808860B3FFF7DEFE2F48808838BB2D4800
:101C10000078C0F3411010B1012818D100E017E09E
:101C20002848007800F01F0020B1012803D00228C6
:101C30000BD109E00CE000F091F800B106E000F0F3
:101C400055F800B102E003E002E001E007E000BF68
:101C5000802001F0C3F800201B49888000BF02E00B
:101C6000FFE701F0D3F804F00800F0B11548007860
:101C70000121B1EBD01F08D11348808810B91A4850
:101C8000007890B1FFF776FE0FE01148007800F081
:101C9000800050B10E48007800F07F000C490870B9
:101CA00000210B48007801F08FF804F0400010B1DB
:101CB0000020FFF7C3FD04F0800010B18020FFF783
:101CC000BDFD10BDE0000020D8000020A0360008B7
:101CD000C6000020C700002098360008D40000206D
:101CE0002C0000209C360008D600002010B51848B3
:101CF000007918490978884205D0154800791649B5
:101D00000978884222D11248407820B102280AD0AE
:101D100020281AD111E0FFF760FD18B101F06EF82C
:101D2000012010BD11E00A494888FFF758FD18B19D
:101D300001F064F80120F4E707E0FFF75DFD18B15A
:101D400001F05CF80120ECE700BF00BF0020E8E7ED
:101D5000E00000202A3600082B36000810B50A489B
:101D600000790A49097888420CD107484078092847
:101D700007D100F09DFB18B101F040F8012010BD23
:101D800000BF00BF0020FAE7E00000201636000880
:101D900010B53A4800793A490978884205D0374861
:101DA000007938490978884266D134484078042857
:101DB00033D007DC78B1012812D002281BD00328C9
:101DC00059D11DE0202832D0212835D022283ED0FC
:101DD000232850D145E02C482C490860012010BD33
:101DE000FFF744FB30B1284828490860FFF7C2FDDF
:101DF0000120F4E73FE02448244908600120EEE791
:101E00001E494888FFF72FFB30B11F481F49086063
:101E1000FFF7B0FD0120E2E72DE018494888FFF701
:101E20006FF918B100F0EAFF0120D8E723E0164867
:101E3000164908600120D2E7FFF71AFB30B11248BB
:101E400012490860FFF796FD0120C8E713E00B492F
:101E50004888FFF7C7FC18B100F0D0FF0120BEE7AB
:101E600009E006494888FFF7B5FC18B100F0C6FF45
:101E70000120B4E700BF00BF0020B0E7E000002071
:101E80002A3600082B36000810010020D800002058
:101E900010B5314800793149097888425AD12E4825
:101EA00040780C2855D2DFE800F054062E415454F7
:101EB0005454541D394C00F0F5F990B12648C078BF
:101EC000012803D126482749086006E02248C07847
:101ED000032802D1244823490860FFF74BFD012065
:101EE00010BD36E01C48C078022803D11F481D49A8
:101EF000086006E01848C078032802D11A4819493A
:101F000008600120ECE700F0B5F930B11848154938
:101F10000860FFF72FFD0120E2E71AE000F0A0FAC9
:101F200018B100F06BFF0120DAE712E000F0B0F921
:101F300030B10F480B490860FFF71CFD0120CFE7C7
:101F400007E000F0ABFA18B100F058FF0120C7E736
:101F500000BF00BF0020C3E7E000002016360008E5
:101F600051010020D80000203600002092010020FE
:101F7000100100200020704700200B4908700B4919
:101F800008600B4908600B4908600B4908800B4941
:101F900008800B4908600B4908600B4908800B4911
:101FA00008600B4908807047E8000020EC00002022
:101FB000F0000020F4000020F8000020FA000020CB
:101FC000FC00002000010020040100200801002086
:101FD0000C01002070B506466648008866490988ED
:101FE000884224DB6548006808BB0020644908601B
:101FF00060490880634801780123421C184601F0BB
:102000003DF95D4908800846008880B15D485C491B
:1020100008605D480078012804DC08460068401C20
:10202000086004E054480088401C53490880524826
:10203000008800285ED15548006818B10020534937
:10204000086057E052480068002853D04E48007896
:1020500001281CDC4E48006800284BD0002049496C
:102060000870444908800223464A521C002101207E
:1020700001F004F9404908800846008818B1414839
:10208000401C3F49086000204149086032E03D485B
:10209000047800BF202C00DB00240120A0403C4934
:1020A0000968084010B3601C3649087000203149A7
:1020B0000880601CC1B20223324A521C012001F088
:1020C000DDF82D4908800846008838B12D482C4994
:1020D000086029480088401C274908800120A0404A
:1020E0002B49096881432A48016002E0601CC4B2A0
:1020F000D0E700BF2048008810B920480068A0B38E
:102100001D4800881B490988401A85B22148224988
:10211000097830F81100A84204DA1E481E490978EF
:1021200030F811501D49097841F080002A461449C1
:10213000096800F08DFE12480068284410490860C4
:102140000C48008828440B49088008460088144938
:10215000098888420ADA0F480F49097830F81100D7
:10216000A84203D101200549086002E0002003498C
:10217000086070BDFA000020F8000020FC0000207C
:10218000F40000205001002022360008EC0000205E
:10219000F00000201E360008D50000201736000889
:1021A0002436000838B505462248008828B9224858
:1021B0002249086000201F49088020480168204803
:1021C000007800F0B3F984B21C48006820441B4931
:1021D00008601848008820441649088064B1084601
:1021E000008818490988884206DA1748174909788B
:1021F00030F81100A0421BDD15480078012809DCE9
:10220000012000900B4803880B4A0021022001F0B6
:1022100063F90AE00120009006480088431E064842
:102220000178421C022001F057F900200149088082
:1022300038BD0000040100209101002000010020B1
:1022400018360008263600081E360008D500002083
:102250002336000810B5044604F0080010B12046EB
:10226000FFF7B8FE04F0040010B12046FFF79AFF14
:1022700010BD0000034880780349085C03490870DA
:1022800001207047E00000203400002010010020F1
:1022900010B500F0F1FF02490870012010BD0000E8
:1022A0001001002010B500240C48C078012804D08B
:1022B000022804D0032806D103E0094C03E00020E3
:1022C00010BD084C00BF00BF044A9178D0780023AD
:1022D000224600F0D3FF0120F2E70000E0000020DA
:1022E00051010020360000202DE9F04151480078CE
:1022F00000287DD00026504801780078401C4E4AC6
:1023000010704E48007800EB400204209040401EC0
:10231000814203DB00204849087001260025484817
:102320000088FF2804DA46480088401C4449088099
:1023300044484249097830F81100414909888842E7
:1023400000D10125002462E04FF000089EB13E4814
:10235000005DFF2804DA3C48005D401C3A490855FE
:102360003A48005D38B13848005D3849095D884217
:1023700001DB4FF001083548005D3049097801EB79
:1023800041020221914088402E492C4A127831F8AE
:102390001210884204DA2D48005D08B1012000E0E7
:1023A000002007463DB137B10120A0402849096807
:1023B0000843274908602548005D2649095D884291
:1023C00013D02148005D2349095D884209DB0120C3
:1023D000A0401F49096808431D49086000201649AC
:1023E00008701C48005D19490855B8F1000F00E05D
:1023F0001EE00AD037B90120A040154909680843FA
:1024000013490860002010490855601CC4B21248E6
:102410000078844298DB15B10020094908800C48F7
:10242000006828B10D48008810B90020FFF7D2FDE0
:10243000BDE8F081C70000200E010020D50000207B
:10244000300000201A36000832000020330000203F
:10245000F00000203400002022360008F8000020A0
:102460000B48807830B10A48C2788078401E094B0A
:102470001A540BE0002105E00548C078054A505485
:10248000481CC1B2044800788142F5DB0120704746
:10249000E0000020340000202236000810B5034977
:1024A000887801F017F8012010BD0000E00000203E
:1024B00038B500240D48C078012804D0022804D083
:1024C000032806D103E0002038BD094C01E0094C87
:1024D00000BF00BF0020054A0090D3889178D078D3
:1024E000224600F0F9FF0120EEE70000E0000020A6
:1024F000920100203600002010B50548C06940F464
:1025000000000349C86100F005F8FEF709FA10BDA4
:10251000001002401420012181404209920002F182
:10252000E022C2F8001100BF704770472DE9F04368
:1025300005460C4605F00F061248006800EB061031
:1025400080681149022202FB00190E48006800EB66
:1025500006108089C0F309074FF0000805E039F83C
:10256000041B2180A41C08F10108781CB8EB500F53
:10257000F5D34FF440512846FDF762FE3846BDE8DA
:10258000F083000038000020006000407047000029
:102590001CB56248007800F01F0010B1012875D109
:1025A0009DE05E48C078082871D2DFE800F094040E
:1025B000207894940A4B5A485A4908601220009097
:1025C0008BE05948007828B958480078012801D193
:1025D00000201CBD5548007818B95548514908607D
:1025E00002E054484F4908600A20009075E04E48C8
:1025F000007828B94D480078012801D10020E8E78B
:102600004A48007810B94C48019001E04B480190CD
:10261000002407E00198007818B101984188084427
:102620000190641C3D488078A042F3D10198007865
:1026300008B90020CDE73B4901980860019840881F
:1026400000904AE03848007828B9384800780128D6
:1026500001D10020BDE73548007810B93848019015
:1026600001E038480190002407E00198007818B193
:102670000198418808440190641C28488078A04251
:10268000F3D10198007818B90020A2E72FE022E0EA
:102690002449019808600198408800901DE02A486C
:1026A0000190002407E00198007818B101980178A2
:1026B00008440190641C19488078A042F3D1019825
:1026C000007808B9002084E716490198086001984D
:1026D0000078009001E000207BE700BF09E0694638
:1026E00001A800F037F808B9002072E701E00020E7
:1026F0006FE700BF0B488088009988420CD90949D0
:10270000009888800846808810490978491E08404A
:1027100010B901200E49087001205AE7E00000209E
:10272000CE360008D800002011360008D500002061
:10273000E0360008E1360008E236000846370008B7
:1027400047370008483700084A37000815360008A0
:10275000D600002002462048C078212804D0222834
:1027600024D0232833D130E01B4800791B4B1B7841
:10277000984201D0002070471948007828B91948BC
:102780000078012801D10020F5E71648007810B93B
:102790001548106001E015481060154B1B88106843
:1027A0001844144B18600920086012E00A480079A8
:1027B0000A4B1B78984201D00020DCE70E480D4BF5
:1027C00018600E480088086003E00020D3E700206E
:1027D000D1E700BF0120CEE7E00000201636000858
:1027E00011360008D5000020E23600084637000800
:1027F000CC360008D8000020A8360008CA360008E9
:102800002748007800F01F0020B1012806D00228D8
:1028100041D116E02348244B18603EE0234800785D
:1028200060B11F480079224B1B78984206DA0020DD
:10283000204B188018461C4B186001E000207047A0
:102840002BE01748007900F08F0101F0800028B1DB
:1028500001F00F034FF48030984001E001208840E0
:1028600002461248007810B901F00F0080B91248F2
:102870000068104060B111480068104008B10120A4
:1028800000E000200B4B18801846074B186001E051
:102890000020D4E701E00020D1E700BF0120CEE70F
:1028A000E0000020C4000020D8000020C700002065
:1028B000D400002010010020C8000020CC0000201F
:1028C00070B506463448007800F01F0020B101289A
:1028D0001DD002285BD11CE02F484088012813D16D
:1028E00046B100F0B3FA2D48008840F002002B49B1
:1028F00008800BE0002000F0A9FA2848008820F0AA
:1029000002002649088001E0002070BD41E000205F
:10291000FBE72148007900F08F0404F0800028B123
:1029200004F00F014FF48030884001E00120A04006
:1029300005461B48007838B304F00F0020B319484F
:102940000068284000B314484088D8B946B12046F2
:1029500000F044FA1448006828431349086015E061
:1029600012480068284008B10120CEE72046FEF753
:1029700065FF2046FFF70AFE0B480068A8430A4996
:10298000086003E00020C0E70020BEE701E000206F
:10299000BBE700BF0120B8E7E0000020C400002032
:1029A000C7000020C8000020CC000020D00000207C
:1029B0002DE9F04100266A48007800F01F00002849
:1029C0006FD16748807800286CD06648007830B9AD
:1029D00065480078012802D10020BDE8F0816248F6
:1029E000007808B9614D00E0614D7FE06878022809
:1029F00004D0042853D0052874D154E0687958498C
:102A00008978884247D1564880785A490870287991
:102A100059490870002403E0002058490855641CF7
:102A2000574800888442F7D3012414E00120A040D5
:102A300054490968084010B12046FEF7D8FF4FF40A
:102A40008030A0404F490968084018B144F0800028
:102A5000FEF7CDFF641C102CE8D34FF0011049495C
:102A60000860002048490860484908600120FEF7D6
:102A700055FFE87900F0400030B14548008840F04B
:102A800001004349088009E04148008820F0010026
:102A90003F49088002E06888054427E022E0EE789C
:102AA00020E058E027E0E6B9A87800F08F0404F0B1
:102AB000800028B104F00F014FF48030884001E01D
:102AC0000120A04007462F48006838432D49086080
:102AD0002846FEF7BFFE2046FEF790FF204600F096
:102AE00063F900BF00BF2878054400BF287800289C
:102AF0007FF47CAF26E000201E490870012414E01A
:102B00000120A0401F490968084010B12046FEF787
:102B10006EFF4FF48030A0401A490968084018B190
:102B200044F08000FEF763FF641C102CE8D34FF0E4
:102B30000110144908600020134908601349086017
:102B4000FEF7ECFE064880780A490978884201D0F1
:102B5000002042E701E000203FE700BF01203CE702
:102B6000E000002011360008D5000020E236000801
:102B700046370008C7000020D40000202C000020A9
:102B800012360008C8000020CC000020D000002031
:102B9000C40000202DE9F05F0027B846BB46B946C7
:102BA0004948007800F01F0001287CD14748007890
:102BB00010B90020BDE8F09F4FF0000A44480078AB
:102BC00028B944480078012801D10020F2E74148A3
:102BD000007808B9404C00E0404C6CE06078022876
:102BE00004D004280BD0052861D11EE06079374954
:102BF0000978884202D0608804445CE057E0A778F6
:102C000094F803804FF000092F480079B8420BD1A7
:102C10002D488078404507D14FF0010A304810F820
:102C200007B0014601F8078041E027480079B84223
:102C30003CD1A07800F08F0606F0800028B106F0A5
:102C40000F014FF48030884001E00120B04005467C
:102C50001D488078404515D1224800682843214905
:102C6000086021480068A8431F4908602046FEF715
:102C7000F1FD3046FEF7C2FE304600F095F849EA15
:102C8000050913E0D84511D109EA050070B91548C6
:102C90000068A8431349086013480068A843124914
:102CA0000860304600E00AE0FEF7A1FE00BF00BF6A
:102CB0002078044400BF207800288FD101E0002054
:102CC00078E700BF504675E7E0000020C70000200D
:102CD00011360008D5000020E2360008463700080B
:102CE0002C000020C8000020CC0000200020284933
:102CF00008602848006808B1481400E0002040F44B
:102D00001C402449096811B14FF4804100E00021C2
:102D100008432149096811B14FF4007100E0002116
:102D200008431D49096811B14FF4807100E000218A
:102D300008431749091F08604020184908800020EF
:102D40001749086012490C31086014480088154979
:102D5000096808601148008840301049088008461A
:102D600000881049096888600C48008840300B4989
:102D7000088048F2FF700B490968C8604FF448505A
:102D800003494439086080200149083108607047D0
:102D9000445C004054360008503600083C000020D7
:102DA000400000203800002010B504462046FDF702
:102DB00027FA10BDFEF7A4BC10B5FFF795FABDE8E1
:102DC0001040FEF7A1BC000001B1704740F0800246
:102DD000014B1A6000BFF8E74C5C004010B5044698
:102DE00041F210012046FDF72BFA10BD10B5024943
:102DF0000020FFF79BFB10BDE000002010B5002273
:102E00001146802000F024F810BD000010B50249E2
:102E10000020FFF78BFB10BD100100200548006863
:102E200040F00800034908600846006840F00400CC
:102E300008607047405C00400348006820F00800CC
:102E40000149086070470000405C00407047000086
:102E50002DE9F04707460D46144607F00F061648C1
:102E6000006800EB061000681449022202FB001AF9
:102E70004FF0000805E028884AF8040BAD1C08F163
:102E80000108601CB8EB500FF5D30B48006800EB4D
:102E9000061044600A4901EB8600D0F8000C1FFAC6
:102EA00080F909F03000102803D030213846FDF7B2
:102EB000C7F92046BDE8F0873800002000600040D8
:102EC0000050004070B55948046804F4806068B14F
:102ED000FFF70CFF00F05EFB5548006810B1544846
:102EE000006880476FF480605049086004F4006017
:102EF00058B1FFF793FF4F48006810B14D48006884
:102F000080476FF400604949086004F4805058B16C
:102F1000FFF792FF4848006810B1474800688047B3
:102F20006FF480504149086004F4007048B1434890
:102F3000006810B14148006880476FF400703B4959
:102F4000086004F4807070B101203D490860374882
:102F5000001F006820F480703449091F08606FF476
:102F60008070091D086004F4804050B13548006845
:102F700018B102203349096888476FF480402B4913
:102F8000086004F4005050B12E48006818B10120C8
:102F90002C49096888476FF40050244908603CE0D8
:102FA0006FF400402149086004F00F05264901EB49
:102FB0008500D0F8006C06F40040C0B126F4004053
:102FC00048F68F710840204A02EB8501C1F8000CD9
:102FD0001E4850F8250050B106F400620AB10222E2
:102FE00000E004221046194A52F82510884706F0DE
:102FF000800090B126F0800048F68F710840124A98
:1030000002EB8501C1F8000C104850F8250020B1F2
:103010000E4850F8251008208847044800680446E8
:1030200000F400400028BBD170BD0000445C0040AB
:10303000403600084436000848360008503600087C
:103040004000002054360008005000405836000868
:1030500002E008C8121F08C1002AFAD17047704761
:10306000002001E001C1121F002AFBD170470000BF
:10307000FDF77CF8FDF75EFDFDF768FB684800682A
:1030800038B16748674908600846006801686648C3
:103090008847FDF753FB0020644908601AE0634845
:1030A00001680068401C614A106011B9FDF74EFBD1
:1030B0000DE05E480068052802D1FDF73FFB06E001
:1030C0005A480068192802D10020584908600A208F
:1030D000FDF77CF85648006800F400600028DED157
:1030E000FDF72CFB00F048FA012000F0BFF80020AB
:1030F0004E4908601AE04D4801680068401C4B4A80
:10310000106011B9FDF722FB0DE048480068052862
:1031100002D1FDF713FB06E044480068322802D1D3
:103120000020424908600A20FDF750F800F094F8AA
:103130000028E0D0FDF702FB6420FDF747F80020EF
:103140003A4908603B483C4908604FF0FF303B4932
:1031500008603B49086061E03248006880B9334844
:1031600001680068401C314A10603648814204D131
:10317000002011460860FDF7FDFA00F04DF91BE054
:1031800000F04AF9A8B92C480068B0F57A7F02D15E
:10319000FDF7DCFA07E02848006820B9FDF7CEFA11
:1031A00024482549086024480068401E22490860D8
:1031B00002E0204820490860FDF702FB1F48006834
:1031C000401C18B9FEF742F91C4908601B4800680A
:1031D000401C58B119490878FDF762FD1749096884
:1031E000884203D14FF0FF3014490860144800684A
:1031F000401C18B9FDF726FD114908601048006809
:10320000401C58B10E490878FEF718FA0C490968B5
:10321000884203D14FF0FF30094908609CE7000065
:103220000040000814000020D835000820000020CD
:1032300008080140400D0300240000201800002071
:103240001C00002040420F0010B500F0C5F8BDE89A
:103250001040FEF733B900000348007808B10120A0
:1032600070470020FCE70000C700002010B50446AE
:103270002046FEF761FB10BD002070472DE9F041AC
:1032800004460F4615461E46012C02D0032C38D1A9
:1032900036E026B1012E04D0022E2FD100E000BF6F
:1032A0002CE01948006819490968884202D1184879
:1032B0000078F8B11748144A126800EB82114022D6
:1032C0002846FCF72FFF10480068401C0E49086094
:1032D00008460068402801D1002008600A480068BC
:1032E0000A490968884202D1002009490870402033
:1032F000BDE8F08101200849087000BF00BF00E070
:1033000000BF00BF0020F3E76C0000206800002031
:1033100065000020FC1200206400002070B5044607
:103320000E46154623480088854201DD002070BD09
:103330002148007800283AD00120204908600CE09C
:103340001D48007848B900201C4908601C490860E5
:103350001C4908801C490880E9E71B4800880028B0
:10336000EED11A4804702A463146401CFCF7DAFEBA
:1033700016481349086000201249088012490D8040
:1033800013480078012805DC0D480068401C0C49F2
:10339000086004E00C480088401C0B4908800020AD
:1033A000FEF718FE00200B4908550120BFE700205A
:1033B000BDE7000024360008C7000020EC00002014
:1033C000F4000020FA000020F80000205001002046
:1033D0002236000832000020002008490870084901
:1033E0000860084908600120074908700020074963
:1033F00008700749086007490860704758000020B6
:103400005C000020600000206400002065000020B7
:10341000680000206C00002010B525480068254990
:103420000968884203D12448007800283DD0234A07
:10343000234B1B6802EB8311224A1D4B1B6802EBD6
:103440008310FDF77FF81A480068441C402C00D117
:10345000002417480460006816490968884202D1B0
:103460000020154908701848007860B100201649FE
:1034700008701248124A126800EB821140220020A4
:10348000FFF74CFF0FE00E480068441C402C00D1B1
:1034900000240B48046000680C490968884202D186
:1034A00001200B490870012010BD0020FCE700003E
:1034B000600000205C00002058000020FC1200206A
:1034C00068000020FC020020640000206C00002046
:1034D00065000020704700002DE9F041064688464F
:1034E00014461D46069F022E02D0032E36D134E02C
:1034F00005B933E02078072807D11A48006818B1C9
:10350000184909688868804728E01748007830B172
:103510001648006816490968884200D11EE015491E
:10352000124A126801EB82102A462146FCF7FAFD86
:103530000E480068401C0D49086008460068402895
:1035400001D10020086009480068094909688842DB
:1035500002D101200449087000E000BF00BFBDE8AF
:10356000F081000014000020580000205C000020C2
:1035700060000020FC02002010B500200449087003
:10358000FFF762FEFEF7D1FFFEF7B6FF10BD0000A9
:10359000D500002009480078094908800020094921
:1035A0000870094908704FF00110084908600020B0
:1035B0000749086007490860704700001036000896
:1035C000C4000020C6000020C7000020C800002062
:1035D000CC000020D00000205D070008A9070008EB
:1035E0000030021000010210C0000048300003103B
:1035F00040000048B0000310F000004800020048FE
:103600000380002808000000FFCF002800E0002809
:1036100000000300034002030300010040004000DB
:10362000040001014000400001000001010202000D
:10363000400040004000100040004000000000003A
:10364000B52D000800000000000000000000000090
:10365000B92D0008000000000D1A00084B140008E6
:103660002D14000855220008000000000000000092
:10367000000000000000000000000000000000004A
:10368000000000000000000000000000000000003A
:1036900000000000000000003519000800000000D4
:1036A00000000000000000000600FF0901A1011554
:1036B0000026FF0075089540090181029540090127
:1036C000910295010901B102C00021004C001201D4
:1036D00010010200004051C201F00001010200018E
:1036E00000000902630003010080320904000001A8
:1036F0000202010305240010010524010302042431
:1037000002060524060001070581034000020904A2
:103710000100020A0000040705020240000007053C
:103720008202400000090402000203000005092192
:103730000001000122210007058303400001070565
:103740000303400001000000000004030904120309
:1037500058003800390033002000410052004D006D
:10376000140343004D005300490053002D00440052
:10377000410050001C0343004D005300490053001A
:103780002D0044004100500020004300440043004D
:103790001C0343004D005300490053002D0044001A
:1037A0004100500020004400430049001C03430036
:1037B0004D005300490053002D00440041005000CB
:1037C0002000480049004400000403480002031898
:1037D0000004030000020300183800080000002065
:1037E000100100005030000828390008002800208F
:1037F000080000005030000828390008100100209F
:10380000EC21000060300008303900080828002052
:10381000400000006030000800A24A0400000000E0
:103820000000000001020304060708090000000070
:103830000000000000000000000000000000000088
:10384000FFFFFFFF0000000000000000000000007C
:1038500000600040000000000000000000000000C8
:103860000000000000000000000000000000000058
:103870000000000000000000000000000000000048
:10388000000000000000000000000000010203042E
:1038900001020304060708090204060800000000EC
:1038A0000000000000000000000000000000000018
:1038B0000000000000000000000000000000000008
:1038C00000000000000000000000000000000000F8
:1038D00000000000000000000000000000000000E8
:1038E00000000000000000000000000000000000D8
:1038F00000000000000000000000000000000000C8
:1039000000000000000000000000000000000000B7
:1039100000000000000000000000000000000000A7
:103920000000000000000000000000000000000097
:020000040800F2
:104000000D700008E54700080170000870B506460D
:104010000D46307808B9012400E03478012C02D034
:10402000022C0CD105E0012009490870FCF752FC74
:1040300009E0022006490870FCF714FC03E00020A8
:104040002870012070BD00BF2C700120FAE700002D
:104050000828002018B502460B461078547840EA2C
:1040600004210C4800680C4CB0FBF4F0801C0324C5
:10407000B0FBF4F041430846009000BF00BF009C35
:10408000641E0094002CFAD100BF0020187001209B
:1040900018BD00000000002040420F0010B504468B
:1040A000002004490870FCF703FC00202070012068
:1040B00010BD00000828002002460020052A1AD062
:1040C00008DC012A0FD0022A0ED0032A0DD0042AC0
:1040D00021D10BE0062A0FD0F02A0ED0FE2A16D0EE
:1040E000FF2A18D10DE016E015E014E00B4B1B6819
:1040F0000B6004200FE00EE00DE003230B700120A5
:1041000009E040230B7000234B70022003E04023A2
:104110000B70012000BF00BF704700002070000836
:1041200070B504460D4613480078022804D000BF3D
:10413000FF202870012070BD21780E48C175C07D18
:104140000C49897D884200DBF2E7082000F0F0FF8F
:104150006078A17840EA0120E17840EA01402179C5
:1041600040EA0166304601F05BFF00202870012024
:10417000E1E7000008280020F0B502460E4612F8DC
:10418000013B114883750025002109E012F8014B1D
:104190000D4818304454083020F811502544491C6B
:1041A0009942F3D3002108E007481830405C2D1AEB
:1041B0000548303020F81150491C9942F4D30020B2
:1041C00030700120F0BD00000828002070B50646C0
:1041D0000C4611480078022804D000BFFF20207050
:1041E000012070BD31780C48C175C07D0A49897DB8
:1041F000884200DBF2E70E2000F09AFF01F0C2F9DE
:104200000546002020706570280AA070280CE07018
:10421000280E20710520E4E7082800202DE9F0474A
:1042200004460D46002005F8010B4FF0010814F874
:10423000019B12E014F8017B2A462146384601F022
:1042400095FA07F03F0606B94026F01DC60834442B
:1042500007F0800008B13544B0445FEA0900A9F1D5
:104260000109E7D14046BDE8F08700002DE9F04F95
:1042700087B006460C46002005900025A346A41CE6
:10428000D94908708146049016F8011BD748C175BA
:10429000C07DD649897D884200DB9BE116F8010B81
:1042A000069048E116F8017B07F0010008B10B20E9
:1042B00000E00A20824607F00200002879D0049826
:1042C000002846D0C948B0F80A80D14514D107F07B
:1042D000100088B900BFF8B201A901F09BFA0546A9
:1042E000022D24D15FEA0800A8F101081FD0BE48C2
:1042F00000780028EFD01AE0B9F10A0F04D04FF08F
:104300000A09484600F014FF00BF01A90E2001F081
:1043100081FA0546022D08D15FEA0800A8F10108DC
:1043200003D0B14800780028EFD000200490012D80
:1043300000D006E1019804F8010B0198000A04F886
:10434000010B0198000C04F8010B0198000E04F811
:10435000010B07F01000002860D03078717840EA37
:104360000120B17840EA0140F17840EA0160039011
:10437000361D9E4880890290D14503D0D1464846DB
:1043800000F0D6FE9948B0F80A8000BFF8B20021CC
:1043900001F040FA0546022D08D15FEA0800A8F1B5
:1043A000010803D0904800780028EFD0012D01D0FB
:1043B000C7E056E000BF8D48B0F80A8000BFF8B2F1
:1043C00001A901F027FA0546022D08D15FEA08008D
:1043D000A8F1010803D0844800780028EFD0012D0F
:1043E00000D00EE081480069019908400399884295
:1043F00007D00298411E029118B17B48007800282E
:10440000D9D000BF794800690199084003998842D2
:1044100001D045F01005012D22D092E0049800282B
:104420001ED1D14503D0D146484600F081FE6F48E9
:10443000B0F80A8000BFF8B2002101F0EBF90546A0
:10444000022D08D15FEA0800A8F1010803D06648F0
:1044500000780028EFD0012D00D072E001200490F8
:1044600062E0049878B3B9F10A0F04D04FF00A095A
:10447000484600F05DFE5D48B0F80A8000BF01A923
:104480000E2001F0C7F90546022D08D15FEA0800A9
:10449000A8F1010803D0544800780028EFD0012D7E
:1044A00000D04EE0019804F8010B0198000A04F8CE
:1044B000010B0198000C04F8010B0198000E04F8A0
:1044C000010B002004903078717840EA0120B17827
:1044D00040EA0140F17840EA01600190361D07F0A2
:1044E000200020B141480199016101251CE0D1451E
:1044F00003D0D146484600F01BFE3C48B0F80A8085
:1045000000BFF8B201A901F085F90546022D08D1D6
:104510005FEA0800A8F1010803D0334800780028BA
:10452000EFD0012D00D00CE00598401C05902E48DE
:10453000007800B105E00698411E069100287FF43E
:10454000B1AE00BF012D44D1B9F10A0F04D04FF034
:104550000A09484600F0ECFD049830B32348B0F84F
:104560000A8000BF01A90E2001F054F90546022D72
:1045700008D15FEA0800A8F1010803D01A480078C2
:104580000028EFD0012D00D024E0019804F8010BA1
:104590000198000A04F8010B0198000C04F8010BC3
:1045A0000198000E04F8010B13E01048B0F80A80DF
:1045B00000BF00210E2001F02DF90546022D08D183
:1045C0005FEA0800A8F1010803D007480078002836
:1045D000EFD000BF05988BF800008BF80150A4EBDA
:1045E0000B0007B0BDE8F08F042800200828002049
:1045F0002DE9FC5F04460D464FF0000B0026A9464E
:10460000ED1C00206349087014F8011B6248C17555
:10461000C07D6149897D884200DBAEE02078617809
:1046200040EA0128A41CB8F1000F00D1A5E014F85D
:10463000017B07F0010008B10B2000E00A20009088
:10464000009800F075FD07F0020000284FD0524896
:10465000B0F80AA000BFF8B2002101F0DBF806466E
:10466000022E08D15FEA0A00AAF1010A03D04948E4
:1046700000780028EFD0012E00D07EE031E0B8F1C4
:10468000000F06D100980A2802D00A2000F050FD41
:104690000E274148B0F80AA000BFF8B201A901F006
:1046A000B9F80646022E08D15FEA0A00AAF1010A0B
:1046B00003D0384800780028EFD0012E00D05CE00D
:1046C000019805F8010B0198000A05F8010B019803
:1046D000000C05F8010B0198000E05F8010B0BF119
:1046E000010B5FEA0800A8F10108C8D144E024E00A
:1046F0002078617840EA0120A17840EA0140E17821
:1047000040EA01600190241D2348B0F80AA000BFD0
:10471000F8B201A901F07EF80646022E08D15FEA40
:104720000A00AAF1010A03D01A4800780028EFD045
:10473000012E00D021E00BF1010B5FEA0800A8F187
:104740000108D5D100980A2802D00A2000F0F0FC18
:104750001148B0F80AA000BF00210E2001F05AF85D
:104760000646022E08D15FEA0A00AAF1010A03D028
:10477000084800780028EFD000BF89F800B04FEA61
:104780001B2089F8010089F80260A5EB0900BDE84B
:10479000FC9F0000042800200828002070B5044673
:1047A0000D46207810B1012810D107E0627802F0A0
:1047B00001000B4A1268116888470BE0627802F02A
:1047C0000100074A12685168884703E0FF202870FB
:1047D000012070BD00BF002028700120F9E7000013
:1047E0000028002070B506460D463078802807DB8B
:1047F00030789F2804DC2946304600F0C3F870BDAD
:10480000307805F8010B16F8010B172874D2DFE891
:1048100000F00C141A205A607BAF96252BAFAFAF77
:10482000AFAF30363C42484E54003078691CFFF739
:1048300043FC04462C70A01CE1E729463046FFF7F4
:10484000ADFF044699E029463046FFF7DFFB0446FA
:1048500093E02846FFF722FC04468EE029463046C6
:10486000FFF7F8FB044688E0284600F090F804467D
:1048700083E02946304600F06BFB04467DE0294684
:10488000304600F02BFB044677E02946304600F026
:104890000FFC044671E02946304600F09FF80446BC
:1048A0006BE029463046FFF7B9FC044665E029462F
:1048B0003046FFF761FC04465FE029463046FFF7CB
:1048C00085FC044659E02946304600F01BFC0446AE
:1048D00053E02B480078012802D002280DD105E0D2
:1048E0002946304600F08CF804460BE02946304655
:1048F000FFF7BCFC044605E03AE000202870687031
:10490000022400BF00BF38E01D480078012802D013
:1049100002280CD105E02946304600F023FA04466F
:104920000BE029463046FFF763FE044605E0002011
:1049300028706870A870032400BF00BF1DE01048F5
:104940000078012802D002280CD105E02946304623
:1049500000F024F8044609E029463046FFF7E0FB62
:10496000044603E0FF202870022048E700BF04E06F
:10497000FF2005F8010C012041E700BF601C3EE765
:10498000082800200246FF200870012070470146D9
:1049900000BF0020487008700220704738B50446F8
:1049A0000D460D480078012803D0FF202870012013
:1049B00038BD6078A17840EA0120E17840EA014002
:1049C000217940EA016000906946002001F05AFD1B
:1049D000002028700120EBE70828002010B50246CF
:1049E000137803F00300401C044C2075C3F38004CB
:1049F0000248447500200870012010BD08280020DE
:104A00002DE9F04F85B006460C46002003900025A6
:104A1000A146A41CD149087082460290761C16F863
:104A2000010B049047E116F8018B08F00200002802
:104A30007ED0BAF1000F3CD0C948478908F0110078
:104A4000012811D100BF6946404601F01BFD054613
:104A5000022D1CD13800A7F101018FB217D0BF4839
:104A600000780028EFD012E000BF69460E2001F068
:104A700009FD0546022D08D13800A7F101018FB2CA
:104A800003D0B64800780028EFD04FF0000A012D7F
:104A900000D017E1009804F8010B0098000A04F810
:104AA000010B0098000C04F8010B0098000E04F8AC
:104AB000010B08F0100000285AD03078717840EAD5
:104AC0000120B17840EA0140F17840EA016B361DDF
:104AD000A3488089019008F00100A8B1A048478947
:104AE00000BF0021404601F0CDFC0546022D08D153
:104AF0003800A7F101018FB203D098480078002850
:104B0000EFD0012D00D0DDE000BF9548478900BF00
:104B10006946404601F0B6FC0546022D0AD1380030
:104B2000A7F101018FB205D08C480078002800E081
:104B300063E0EDD0012D00D00EE0894800690099B6
:104B40000840584508D00198411E89B2019118B11A
:104B5000824800780028D8D000BF814800690099B9
:104B60000840584501D045F01005012D42D0A9E07C
:104B70007B48478908F00100C8B1BAF1000F39D16C
:104B800000BF0021404601F07DFC0546022D08D102
:104B90003800A7F101018FB203D0704800780028D7
:104BA000EFD0012D00D08DE04FF0010A22E000BFD0
:104BB0006946404601F066FC0546022D08D13800E2
:104BC000A7F101018FB203D0644800780028EFD02C
:104BD000012D00D076E0009804F8010B0098000A3F
:104BE00004F8010B0098000C04F8010B0098000E6B
:104BF00004F8010B0020029055E0BAF1000F26D016
:104C00005748478900BF69460E2001F03BFC054626
:104C1000022D08D13800A7F101018FB203D04F480F
:104C200000780028EFD0012D00D04BE0009804F868
:104C3000010B0098000A04F8010B0098000C04F81E
:104C4000010B0098000E04F8010B4FF0000A3078B9
:104C5000717840EA0120B17840EA0140F17840EAF9
:104C600001600090361D08F0200020B13C480099FA
:104C70000161012517E03A48478900BF694640466F
:104C800001F000FC0546022D08D13800A7F1010112
:104C90008FB203D0314800780028EFD0012D00D02A
:104CA00010E0012002900398401CC0B203902B48F2
:104CB000007800B106E00498411EC9B204910028B2
:104CC0007FF4B1AE00BF012D3DD1BAF1000F25D068
:104CD0002348478900BF69460E2001F0D3FB0546F3
:104CE000022D08D13800A7F101018FB203D01B4873
:104CF00000780028EFD0012D00D025E0009804F8BE
:104D0000010B0098000A04F8010B0098000C04F84D
:104D1000010B0098000E04F8010B14E0029890B10A
:104D20000F48478900BF00210E2001F0ABFB05466C
:104D3000022D08D13800A7F101018FB203D0074836
:104D400000780028EFD000BF039889F8000089F8A8
:104D50000150A4EB090005B0BDE8F08F0428002045
:104D6000082800202DE9F84F04460D464FF0000BAF
:104D70000026A846ED1C002056490870641C2078C7
:104D8000617840EA012AA41CBAF1000F00D195E035
:104D900014F8017B07F0020000284FD007F0010053
:104DA000B0B14D48B0F80A9000BFF8B2002101F050
:104DB00069FB0646022E08D15FEA0900A9F1010944
:104DC00003D0444800780028EFD0012E00D075E0D1
:104DD0002EE0BAF1000F03D107F0010000B10E2759
:104DE0003D48B0F80A9000BFF8B2694601F04AFBAE
:104DF0000646022E08D15FEA0900A9F1010903D095
:104E0000344800780028EFD0012E00D056E00098FA
:104E100005F8010B0098000A05F8010B0098000C3A
:104E200005F8010B0098000E05F8010B0BF1010BC2
:104E30005FEA0A00AAF1010ACBD13EE024E0207823
:104E4000617840EA0120A17840EA0140E17840EA37
:104E500001600090241D2048B0F80A9000BFF8B20D
:104E6000694601F00FFB0646022E08D15FEA0900F1
:104E7000A9F1010903D0174800780028EFD0012ECE
:104E800000D01BE00BF1010B5FEA0A00AAF1010A56
:104E9000D5D11148B0F80A9000BF00210E2001F0D2
:104EA000F1FA0646022E08D15FEA0900A9F10109CC
:104EB00003D0084800780028EFD000BF88F800B081
:104EC0004FEA1B2088F8010088F80260A5EB080073
:104ED000BDE8F88F042800200828002030B50246DD
:104EE0000C461078557840EA0520957840EA054050
:104EF000D57840EA05631BB9FF202070012030BD42
:104F000011480068B3EB900F04D301200F4D687077
:104F1000686014E000200D4D6870581E0A4D2D6821
:104F200000EB5500B0FBF3F1022905D9891E881C5E
:104F30000325B0FBF5F100E00121044841600020A9
:104F400020700120DBE7000000000020082800207E
:104F50002DE9F0470646884634787578B078F178C0
:104F600040EA0120317940EA0140717940EA016765
:104F700005F0010038B104F0010010B101F000FAB1
:104F800001E001F0EFF905F0020038B104F0020091
:104F900010B101F047FA01E001F036FA05F0040023
:104FA00010B1A01001F04CFA05F0200010B1601112
:104FB00000BF00BF05F0800010B1E011FBF738FC26
:104FC000002F52D03748874200D9074600BF002043
:104FD0004FF0E02188613448006878433349B0FBE2
:104FE000F1F04FF0E02148610520086100BF00BFEB
:104FF00005F0010020B101F0BBF9604000B124E0F0
:1050000005F0020028B101F005FA80EA640000B161
:105010001BE005F0040028B101F00AFA80EAA400C0
:1050200000B112E005F0200028B100BF002080EAA6
:10503000641000B109E005F0800028B101F016FA13
:1050400080EAE41000B100E007E000BF4FF0E0208C
:105050000069C0F300400028CAD000BF00BF002094
:105060004FF0E021086100BF00BF01F081F98146E7
:1050700001F0D0F949EA400901F0DAF949EA80097A
:1050800001F0ECF949EAC000002140EA411901F0C1
:10509000EDF949EAC010C4B288F800400120BDE82B
:1050A000F0870000C0C62D000000002040420F0025
:1050B00070B504460D4614F8016B0EB94FF48076B6
:1050C0002146304601F066FF00202870012070BDA7
:1050D00010B50948006840080849B0FBF1F0801E8F
:1050E0000749486064210648418101200449087548
:1050F000FBF7DEFB10BD00000000002040420F0067
:105100000828002002461078084B187250789378CF
:1051100040EA032305484381D078137940EA03230A
:105120000248838100200870012070470828002071
:1051300010B504460548407818B1204600F008F83C
:1051400002E0204600F0A6F810BD0000082800206C
:1051500070B5054601F066F901F004F900BF00BF23
:1051600001F00EF900BF00BF01F0FCF800BF00BF66
:1051700001F006F900BF00BF01F046F901F0F2F8B6
:1051800000BF00BF01F0FCF800BF00BF01F0EAF86B
:1051900000BF00BF01F0F4F800BF00BF012001F024
:1051A0004FF93B48C17D203030F8114008E001F054
:1051B000D9F800BF00BF01F0E3F800BF00BF641ED4
:1051C000002CF4D13248C17D1830405C441E0CE004
:1051D000E8B201F035F901F0C5F800BF00BF01F0F9
:1051E000CFF800BF00BF6D08641E002CF0D1284826
:1051F000C17D303030F811402CB3E8B201F020F915
:1052000001F0B0F800BF00BF01F0BAF800BF00BF66
:10521000012001F015F9641E08E001F0A3F800BFB9
:1052200000BF01F0ADF800BF00BF641E002CF4D138
:1052300001F0F8F801F096F800BF00BF01F0A0F807
:1052400000BF00BF0DE001F0EDF8E8B201F0F8F8A2
:1052500001F088F800BF00BF01F092F800BF00BF66
:1052600000BF01F07FF800BF00BF01F089F800BF68
:1052700000BF01F0C9F801F075F800BF00BF01F0F0
:105280007FF800BF00BF012001F0DAF870BD000018
:105290000828002038B5054601F0C4F801F062F88E
:1052A000B7494868009000BF00BF0099491E0091AF
:1052B0000029FAD100BF01F063F8B14948680090B5
:1052C00000BF00BF0099491E00910029FAD100BF1C
:1052D00001F048F8AA494868009000BF00BF009953
:1052E000491E00910029FAD100BF01F049F8A449F4
:1052F0004868009000BF00BF0099491E0091002936
:10530000FAD100BF01F080F801F02CF89C49486800
:10531000009000BF00BF0099491E00910029FAD1FA
:1053200000BF01F02DF896494868009000BF00BF0B
:105330000099491E00910029FAD100BF01F012F82E
:105340008F494868009000BF00BF0099491E009136
:105350000029FAD100BF01F013F88949486800908C
:1053600000BF00BF0099491E00910029FAD100BF7B
:10537000012001F065F88248C17D203030F81140ED
:105380001AE000F0EFFF7E494868009000BF00BFC0
:105390000099491E00910029FAD100BF00F0F0FFEA
:1053A00077494868009000BF00BF0099491E0091EE
:1053B0000029FAD100BF641E002CE2D17048C17DE3
:1053C0001830405C441E1EE0E8B201F039F800F0ED
:1053D000C9FF6B494868009000BF00BF0099491E93
:1053E00000910029FAD100BF00F0CAFF6449486863
:1053F000009000BF00BF0099491E00910029FAD11A
:1054000000BF6D08641E002CDED15D48C17D3030C8
:1054100030F81140002C5AD0E8B201F011F800F039
:10542000A1FF57494868009000BF00BF0099491E7E
:1054300000910029FAD100BF00F0A2FF504948684E
:10544000009000BF00BF0099491E00910029FAD1C9
:1054500000BF012000F0F4FF641E1AE000F082FF9C
:1054600047494868009000BF00BF0099491E00915D
:105470000029FAD100BF00F083FF4149486800903D
:1054800000BF00BF0099491E00910029FAD100BF5A
:10549000641E002CE2D100F0C5FF00F063FF384924
:1054A0004868009000BF00BF0099491E0091002984
:1054B000FAD100BF00F064FF31494868009000BF96
:1054C00000BF0099491E00910029FAD11EE000F0AA
:1054D000A9FFE8B200F0B4FF00F044FF2849486893
:1054E000009000BF00BF0099491E00910029FAD129
:1054F00000BF00F045FF22494868009000BF00BF90
:105500000099491E00910029FAD100BF00F02AFF3E
:105510001B494868009000BF00BF0099491E0091D8
:105520000029FAD100BF00F02BFF15494868009010
:1055300000BF00BF0099491E00910029FAD100BFA9
:1055400000F062FF00F00EFF0D494868009000BFB8
:1055500000BF0099491E00910029FAD100BF00F058
:105560000FFF07494868009000BF00BF0099491E1F
:1055700000910029FAD100BF012000F061FF38BD81
:1055800008280020F8B500F04DFF00F0EBFE76494A
:105590004868009000BF00BF0099491E0091002993
:1055A000FAD100BF00F0ECFE6F494868009000BFE0
:1055B00000BF0099491E00910029FAD100BF00F0F8
:1055C00023FF00F0CFFE68494868009000BF00BF8D
:1055D0000099491E00910029FAD100BF00F0D0FEC9
:1055E00061494868009000BF00BF0099491E0091C2
:1055F0000029FAD100BF00F0B5FE5B494868009071
:1056000000BF00BF0099491E00910029FAD100BFD8
:1056100000F0B6FE54494868009000BF00BF0099F2
:10562000491E00910029FAD100BF4F48C57D1AE0FC
:1056300000F098FE4C494868009000BF00BF0099F8
:10564000491E00910029FAD100BF00F099FE464999
:105650004868009000BF00BF0099491E00910029D2
:10566000FAD100BF6D1E002DE2D100241F2520E0DD
:1056700000F078FE3C494868009000BF00BF0099E8
:10568000491E00910029FAD100BF00F0E7FE06464E
:1056900000F076FE34494868009000BF00BF0099D2
:1056A000491E00910029FAD100BF44EAC67464087B
:1056B0006D1E002DDCD100F0B5FE00F053FE2A492E
:1056C0004868009000BF00BF0099491E0091002962
:1056D000FAD100BF00F0C2FE064600F051FE22499A
:1056E0004868009000BF00BF0099491E0091002942
:1056F000FAD100BF44EAC67400F034FE1A49486883
:10570000009000BF00BF0099491E00910029FAD106
:1057100000BF00F035FE14494868009000BF00BF8C
:105720000099491E00910029FAD100BF00F06CFEDB
:1057300000F018FE0C494868009000BF00BF0099B7
:10574000491E00910029FAD100BF00F019FE064958
:105750004868009000BF00BF0099491E00910029D1
:10576000FAD100BF2046F8BD082800202DE9F84FE7
:1057700004460F46904604F03F0606B9402604F062
:10578000400010B100F04EFE01E000F03DFE3AE0B6
:1057900017F801AB00254FF0080928E00AF0FF00D8
:1057A00000F04EFE00F0DEFD19494868009000BF91
:1057B00000BF0099491E00910029FAD100BF00F0F6
:1057C0004DFE834600F0DCFD11494868009000BFA3
:1057D00000BF0099491E00910029FAD100BF4FEA8D
:1057E0005A0A6D0845EACB15A9F10109761EB9F1EF
:1057F000000F01D0002ED1D125FA09F504F0800068
:1058000008B108F8015B002EC2D1BDE8F88F000096
:105810000828002070B504460D460648407820B19F
:105820002946204600F008F870BD2946204600F0C1
:105830003FF9F9E7082800202DE9F0470646884699
:1058400000F0F0FD00F08EFD00BF00BF00F098FDFD
:1058500000BF00BF00F0D8FD00F084FD00BF00BF16
:1058600000F08EFD00BF00BF00F07CFD00BF00BF58
:1058700000F086FD00BF00BF8C48C47D08E000F04A
:1058800071FD00BF00BF00F07BFD00BF00BF641EC4
:10589000002CF4D1C6F3470000F0D2FD00F062FD09
:1058A00000BF00BF00F0DAFD074600F069FD00BF51
:1058B00000BF4FEA4709C6F3870000F0C1FD00F0C2
:1058C00051FD00BF00BF00F0C9FD074600F058FDC4
:1058D00000BF00BF49EA0709C6F3C70000F0B0FDEA
:1058E00000F040FD00BF00BF00F0B8FD074600F02B
:1058F00047FD00BF00BF49EA8709B9F1010F0AD08F
:1059000000F090FD00F02EFD00BF00BF00F038FD5C
:1059100000BF00BFA1E006F00200002852D0002521
:105920001F240EE000F01EFD00BF00BF00F096FD3A
:10593000074600F025FD00BF00BF45EAC7756D08AA
:10594000641E002CEED15948817DC07D081A441E8A
:1059500014B300F007FD00BF00BF00F07FFD074655
:1059600000F00EFD00BF00BF641E08E000F0FAFC6E
:1059700000BF00BF00F004FD00BF00BF641E002C8C
:10598000F4D100F04FFD00F0EDFC00BF00BF00F0CF
:10599000F7FC00BF00BF0DE000F044FD00F0E2FCAA
:1059A00000BF00BF00F05AFD074600F0E9FC00BF51
:1059B00000BF00BF45EAC775B8F1000F4CD0C8F86A
:1059C000005049E0D8F800501F240CE0E8B200F085
:1059D00037FD00F0C7FC00BF00BF00F0D1FC00BFE6
:1059E00000BF6D08641E002CF0D13048817DC07D61
:1059F000081A441E14B3E8B200F022FD00F0B2FC15
:105A000000BF00BF00F0BCFC00BF00BF641E08E088
:105A100000F0A8FC00BF00BF00F0B2FC00BF00BF58
:105A2000641E002CF4D100F0FDFC00F09BFC00BFD4
:105A300000BF00F0A5FC00BF00BF0DE000F0F2FCCD
:105A4000E8B200F0FDFC00F08DFC00BF00BF00F0EC
:105A500097FC00BF00BF00BF00BF00F083FC00BF89
:105A600000BF00F08DFC00BF00BF00F0CDFC00F0D7
:105A700079FC00BF00BF00F083FC00BF00BF012025
:105A800000F0DEFC0948047A08E000F06BFC00BF7F
:105A900000BF00F075FC00BF00BF00BF2000A4F1F4
:105AA0000104F2D109F0FF00BDE8F08708280020CA
:105AB0002DE9F8430746894600F0B4FC00F052FC9B
:105AC000F9494868009000BF00BF0099491E009145
:105AD0000029FAD100BF00F053FCF3494868009058
:105AE00000BF00BF0099491E00910029FAD100BFF4
:105AF00000F08AFC00F036FCEB494868009000BFDB
:105B000000BF0099491E00910029FAD100BF00F0A2
:105B100037FCE5494868009000BF00BF0099491E66
:105B200000910029FAD100BF00F01CFCDE49486852
:105B3000009000BF00BF0099491E00910029FAD1D2
:105B400000BF00F01DFCD8494868009000BF00BFAE
:105B50000099491E00910029FAD100BFD248C47DA6
:105B60001AE000F0FFFBD0494868009000BF00BF7A
:105B70000099491E00910029FAD100BF00F000FCF5
:105B8000C9494868009000BF00BF0099491E0091B4
:105B90000029FAD100BF641E002CE2D1C7F34700F0
:105BA00000F04EFC00F0DEFBBF494868009000BFEB
:105BB00000BF0099491E00910029FAD100BF00F0F2
:105BC0004DFC064600F0DCFBB7494868009000BF7A
:105BD00000BF0099491E00910029FAD100BF4FEA89
:105BE0004608C7F3870000F02BFC00F0BBFBAE4972
:105BF0004868009000BF00BF0099491E009100292D
:105C0000FAD100BF00F02AFC064600F0B9FBA64915
:105C10004868009000BF00BF0099491E009100290C
:105C2000FAD100BF48EA0608C7F3C70000F008FC35
:105C300000F098FB9C494868009000BF00BF0099A5
:105C4000491E00910029FAD100BF00F007FC06466A
:105C500000F096FB94494868009000BF00BF00998F
:105C6000491E00910029FAD100BF48EA8608B8F120
:105C7000010F1CD000F0D6FB00F074FB8A49486885
:105C8000009000BF00BF0099491E00910029FAD181
:105C900000BF00F075FB84494868009000BF00BF5A
:105CA0000099491E00910029FAD100BF57E107F081
:105CB000020000287ED000251F2420E000F052FBC7
:105CC00079494868009000BF00BF0099491E0091C3
:105CD0000029FAD100BF00F0C1FB064600F050FBDE
:105CE00071494868009000BF00BF0099491E0091AB
:105CF0000029FAD100BF45EAC6756D08641E002C64
:105D0000DCD16948817DC07D081A441E002C59D021
:105D100000F028FB64494868009000BF00BF00996C
:105D2000491E00910029FAD100BF00F097FB0646FA
:105D300000F026FB5C494868009000BF00BF009956
:105D4000491E00910029FAD100BF641E1AE000F03C
:105D500009FB55494868009000BF00BF0099491EE3
:105D600000910029FAD100BF00F00AFB4E494868B3
:105D7000009000BF00BF0099491E00910029FAD190
:105D800000BF641E002CE2D100F04CFB00F0EAFAE8
:105D900045494868009000BF00BF0099491E009126
:105DA0000029FAD100BF00F0EBFA3F4948680090A3
:105DB00000BF00E02DE000BF0099491E00910029BE
:105DC000FAD11EE000F02EFB00F0CCFA364948680C
:105DD000009000BF00BF0099491E00910029FAD130
:105DE00000BF00F03BFB064600F0CAFA2E494868A7
:105DF000009000BF00BF0099491E00910029FAD110
:105E000000BF45EAC675B9F1000F01D0C9F80050CE
:105E1000A4E0D9F800501F241EE0E8B200F010FB07
:105E200000F0A0FA20494868009000BF00BF009928
:105E3000491E00910029FAD100BF00F0A1FA1A49C9
:105E40004868009000BF00BF0099491E00910029DA
:105E5000FAD100BF6D08641E002CDED11248817D8E
:105E6000C07D081A441E002C59D0E8B200F0E8FAB0
:105E700000F078FA0C494868009000BF00BF009914
:105E8000491E00910029FAD100BF00F079FA0649B5
:105E90004868009000BF00BF0099491E009100298A
:105EA000FAD100BF641E1CE00828002000F05AFA56
:105EB0005A494868009000BF00BF0099491E0091F0
:105EC0000029FAD100BF00F05BFA544948680090FD
:105ED00000BF00BF0099491E00910029FAD100BF00
:105EE000641E002CE2D100F09DFA00F03BFA4B4911
:105EF0004868009000BF00BF0099491E009100292A
:105F0000FAD100BF00F03CFA44494868009000BF55
:105F100000BF0099491E00910029FAD11EE000F04F
:105F200081FAE8B200F08CFA00F01CFA3B494868AC
:105F3000009000BF00BF0099491E00910029FAD1CE
:105F400000BF00F01DFA35494868009000BF00BF4F
:105F50000099491E00910029FAD100BF00BF00F04E
:105F600001FA2E494868009000BF00BF0099491E01
:105F700000910029FAD100BF00F002FA27494868D1
:105F8000009000BF00BF0099491E00910029FAD17E
:105F900000BF00F039FA00F0E5F9204948680090A8
:105FA00000BF00BF0099491E00910029FAD100BF2F
:105FB00000F0E6F919494868009000BF00BF009959
:105FC000491E00910029FAD100BF012000F038FAE3
:105FD0001248047A19E000F0C5F9104948680090A9
:105FE00000BF00BF0099491E00910029FAD100BFEF
:105FF00000F0C6F909494868009000BF00BF009949
:10600000491E00910029FAD100BF2000A4F101042B
:10601000E1D108F0FF00BDE8F88300000828002067
:1060200038B5054600F0FEF900F09CF9CC49486807
:10603000009000BF00BF0099491E00910029FAD1CD
:1060400000BF00F09DF9C6494868009000BF00BF3E
:106050000099491E00910029FAD100BF00F0D4F93F
:1060600000F080F9BE494868009000BF00BF009969
:10607000491E00910029FAD100BF00F081F9B8490A
:106080004868009000BF00BF0099491E0091002998
:10609000FAD100BF00F066F9B1494868009000BF2E
:1060A00000BF0099491E00910029FAD100BF00F0FD
:1060B00067F9AB494868009000BF00BF0099491ECE
:1060C00000910029FAD100BFA548C47D1AE000F074
:1060D00049F9A3494868009000BF00BF0099491ED4
:1060E00000910029FAD100BF00F04AF99C494868A4
:1060F000009000BF00BF0099491E00910029FAD10D
:1061000000BF641E002CE2D1002000F099F900F0DD
:1061100029F993494868009000BF00BF0099491EC3
:1061200000910029FAD100BF00F02AF98C49486893
:10613000009000BF00BF0099491E00910029FAD1CC
:1061400000BF00F00FF986494868009000BF00BF0B
:106150000099491E00910029FAD100BF00F010F902
:106160007F494868009000BF00BF0099491E009118
:106170000029FAD100BF00F0F5F87949486800908D
:1061800000BF00BF0099491E00910029FAD100BF4D
:1061900000F0F6F872494868009000BF00BF00990F
