:020000040800F2
:100000000050002001010008010700080107000856
:1000100001070008010700080107000800000000B0
:1000200000000000000000000000000001070008C0
:10003000010700080000000001070008190100087E
:100040001B0100081B0100081B0100081B01000820
:100050001B0100081B0100081B0100081B01000810
:100060001B0100081B0100081B0100081B01000800
:100070001B0100081B0100081B0100081B010008F0
:100080001B0100081B0100081B0100081B010008E0
:10009000A12800081B0100081B0100081B01000823
:1000A0001B0100081B0100081B0100081B010008C0
:1000B0001B0100081B0100081B0100081B010008B0
:1000C0001B0100081B0100081B0100081B010008A0
:1000D0001B0100084D0E00081B0100081B01000851
:1000E0001B0100081B0100081B010008DFF80CD0F1
:1000F00000F03CF800480047252A00080050002086
:100100000648804706480047FEE7FEE7FEE7FEE7B1
:10011000FEE7FEE7FEE7FEE7FEE7FEE72D0C000840
:10012000ED00000840EA01039B0703D009E008C97D
:10013000121F08C0042AFAD203E011F8013B00F8AC
:10014000013B521EF9D27047D2B201E000F8012BF8
:10015000491EFBD270470022F6E710B513460A4647
:1001600004461946FFF7F0FF204610BD064C074D28
:1001700006E0E06840F0010394E807009847103477
:10018000AC42F6D3FFF7B6FF1C3100085C31000823
:1001900010B50E48806940F01D000C4988610121AE
:1001A0000B4800F099F90B490B4800F00AF90B498C
:1001B000094800F006F90A490A4800F002F90A491C
:1001C0000A4800F0FEF800F0D1FA10BD001002401D
:1001D00000023000202F000800080140242F0008F2
:1001E000282F0008000C01402C2F000800100140AF
:1001F00008B50B4909684FF47A72B1FBF2F1891C1A
:100200000622B1FBF2F148430146009100BF00BF56
:10021000009A521E0092002AFAD100BF08BD0000C9
:100220000000002030B500F00F010D4C04EB8103FD
:10023000D3F8002C00F0800343B148F6CF7313408D
:10024000254605EB8104C4F8003C07E04CF68F73AB
:100250001340034D05EB8104C4F8003C30BD0000A1
:100260000050004070B500F00F02104D05EB820405
:10027000D4F8003C00F080045CB101F030045C4034
:1002800048F6BF752C40094E06EB8205C5F8004CB8
:100290000AE001F440545C404BF68F752C40034E4D
:1002A00006EB8205C5F8004C70BD00000050004010
:1002B00030B5044604254FF4302000F06FF80546B1
:1002C000042D17D10C48006940F002000A4908616A
:1002D00008464461006940F0400008614FF4302056
:1002E00000F05CF805460448006941F6FD710840DD
:1002F00001490861284630BD0020024004200B4916
:10030000C96801F0010109B101200EE00749C9687F
:1003100001F0040109B1022007E00449C96801F0B5
:10032000100109B1032000E00420704700200240C2
:100330000348006940F080000149086170470000EF
:100340000020024070B504460D460426F00200F07D
:1003500025F80646042E11D10948006940F0010035
:10036000074908612580F00200F018F806460448A5
:10037000006941F6FE71084001490861304670BDD0
:100380000020024002480349486003484860704723
:100390002301674500200240AB89EFCD00B502463E
:1003A0000423FFF7ABFF034603E0FFF7A7FF034675
:1003B000521E012B01D1002AF7D102B9052318469C
:1003C00000BD2DE9F0410246002500260020002353
:1003D0000024002791F803C00CF00F0591F803C02A
:1003E0000CF0100CBCF1000F03D091F802C04CEAE5
:1003F000050591F800C0BCF1000F31D01468002051
:100400002BE04FF0010C0CFA00F3B1F800C00CEA3D
:1004100003069E4220D183004FF00F0C0CFA03F725
:10042000BC4305FA03FC4CEA040491F803C0BCF198
:10043000280F06D14FF0010C0CFA00FCC2F814C0D2
:100440000AE091F803C0BCF1480F05D14FF0010C50
:100450000CFA00FCC2F810C0401C0828D1D314606C
:10046000B1F800C0BCF1FF0F34DD546800202EE06D
:1004700000F1080C4FF0010808FA0CF3B1F800C0C5
:100480000CEA03069E4221D183004FF00F0C0CFAB8
:1004900003F7BC4305FA03FC4CEA040491F803C0DB
:1004A000BCF1280F05D100F1080C08FA0CF8C2F8CD
:1004B000148091F803C0BCF1480F07D100F1080C7B
:1004C0004FF0010808FA0CF8C2F81080401C082808
:1004D000CED35460BDE8F081F0B50A460023002475
:1004E0000021002500F00046B6F1004F02D11D4E5C
:1004F000F16901E01B4E7168C0F3034583B200F45B
:100500004016B6F5401F08D121F07061154E76688F
:1005100026F07066134F7E6012E000F48016B6F588
:10052000801F06D1032606FA05F4A14341F070614D
:1005300006E0460D360103FA06F6B14341F070615C
:1005400022B1460D360103FA06F6314300F00046AB
:10055000B6F1004F02D1034EF16101E0014E71602E
:10056000F0BD0000000001402DE9F04704460D46B3
:100570004FF0FF0A2078D02872DB2078D7286FDC74
:10058000207805F8010B14F8010BD038082868D240
:10059000DFE800F00412151821335672504807683E
:1005A00005F8017B380A05F8010B380C05F8010B3A
:1005B000380E05F8010B74E0FFF7E4FE71E0FFF779
:1005C000B7FE6EE027683846FFF772FE042801D0B8
:1005D0004FF0FF0A65E0D4F80080A68806E018F81E
:1005E000011BFF2902D04FF0FF0A04E03000A6F102
:1005F00001018EB2F3D100BF53E02768A688382EE0
:1006000002DD4FF0FF0A1AE0A41D12E014F8019B6E
:100610002EB114F8011B49EA0129701E86B2494621
:100620003846FFF78FFE042802D04FF0FF0A05E09E
:10063000BF1C3000A6F101018EB2E7D100BF30E04F
:10064000D4F80080A6883E2E02DD4FF0FF0A12E0AB
:10065000002005F8010B09E026B998F800A005E094
:1006600023E01AE018F8010B05F8010B3000A6F1A1
:1006700001018EB2F0D114E000BFBFF34F8F1948D3
:10068000006800F4E06018490843001D154908603F
:10069000BFF34F8F00BF00BFFEE76D1E4FF0FF0A94
:1006A00000BF00BF85F800A017E01048006890B1B7
:1006B0000F4BDFF840C0DCF800C003EB8C110E4B91
:1006C000DFF838C0DCF800C003EB8C10074B1B6868
:1006D0005A68904701E0FF202870BDE8F0870000CD
:1006E000002004E00CED00E00000FA0514000020FA
:1006F0008414002064000020840400205C0000209A
:1007000072B61749086880F3088800BF00F02EF819
:10071000002412E000F070F8FA20FFF769FD00F005
:1007200063F800F043F8FA20FFF762FD00F036F8B6
:100730004FF47A70FFF75CFD641C052CEADB00BF08
:10074000BFF34F8F0748006800F4E0600649084394
:10075000001D04490860BFF34F8F00BF00BFFEE7D4
:10076000000000080CED00E00000FA0510B5084894
:10077000806940F00800064988614FF4005005493F
:100780000860054903481438FFF71BFE10BD000040
:1007900000100240140C0140002F00084FF40050DC
:1007A0000149086070470000140C01404FF40050EC
:1007B0000149086070470000100C014000B5024676
:1007C00002F0010010B1FFF7F1FF01E0FFF7E6FFD3
:1007D00000BD00000348006880F400500149086033
:1007E000704700000C0C01404FF4005001490860B4
:1007F00070470000140C01404FF40050014908609C
:1008000070470000100C014000B5024602F00100E4
:1008100010B1FFF7F1FF01E0FFF7E6FF00BD0000B8
:1008200070B5002400F046FA054605F0040008B152
:1008300044F0400405F0020008B144F0400405F023
:10084000010008B144F0100400F052FA054605F02A
:10085000080008B144F0080405F0040008B144F0B1
:10086000020405F0020008B144F0010400F00EFAA1
:1008700008B144F0040405480068604028B1A0B203
:1008800000F088FD08B10148046070BD2800002018
:1008900000F0010149B100BF0949096821F0F001E8
:1008A00041F04001064A116009E000BF04490968AF
:1008B00021F0F00141F07001014A116000BF704762
:1008C000040C014010B537200D49086048150D494A
:1008D000086000BF0B481038006820F0F00040F0BE
:1008E000400008491039086000BF07490448103823
:1008F000FFF767FD054902481038FFF762FD10BD9C
:1009000010080140140C0140102F0008142F00089B
:1009100010B504490448FFF754FD04490448FFF7A3
:1009200050FD10BD182F0008000801401C2F0008C2
:10093000000C014010B530200D49086048150D49E4
:1009400008600D490A481038FFF73BFD0B4908487D
:100950001038FFF736FD00BF06481038006820F059
:10096000F00040F0400003491039086000BF10BD9E
:1009700010080140140C0140082F00080C2F00083B
:1009800010B50748806940F0040005498861881562
:1009900004490860044903481438FFF712FD10BDEC
:1009A0000010024014080140042F000829B1064A33
:1009B00092690243044B9A6104E0034A92698243BC
:1009C000014B9A61704700000010024030B50021D1
:1009D0000022002400232D4D6D6805F00C0121B18B
:1009E000042905D0082923D105E0294D056022E01E
:1009F000274D05601FE0254D6D6805F47012234DED
:100A00006D6805F48034022505EB92421CB9214D36
:100A1000554305600BE01D4D6D6805F400351DB1B3
:100A20001C4D5543056002E0194D5543056002E039
:100A3000174D056000BF00BF144D6D6805F0F00153
:100A40000909154D6B5C0568DD4045600F4D6D680B
:100A500005F4E061090A104D6B5C4568DD40856076
:100A60000A4D6D6805F46051C90A0B4D6B5C456811
:100A7000DD40C560054D6D6805F44041890B074DAB
:100A80006B5CC568B5FBF3F5056130BD0010024035
:100A900000127A0000093D006C0000207C0000205C
:100AA00010B500F001F810BD0CB5002001900090C9
:100AB0003348006840F480303149086000BF304856
:100AC000006800F4003000900198401C01900098EC
:100AD00018B90198B0F5A06FF1D12948006800F469
:100AE000003010B10120009001E00020009000983B
:100AF000012843D12348006840F0100021490860D4
:100B00000846006820F0030008600846006840F0CE
:100B1000010008601A484068194948600846406862
:100B200048600846406840F4806048600846406875
:100B300020F47C1048600846406840F4A2004860F9
:100B40000846006840F08070086000BF0C480068EC
:100B500000F000700028F9D00948406820F0030038
:100B6000074948600846406840F00200486000BFFE
:100B70000348406800F00C000828F9D10CBD0000C3
:100B8000001002400020024010B500210020002289
:100B9000214B5B6803F00C0121B1042906D0082920
:100BA00028D107E01D4B1E4C236027E01B4B1C4C3B
:100BB000236023E0184B5B6803F47010164B5B68EE
:100BC00003F48032022303EB904022B9154B4343D8
:100BD000134C23600DE0104B5B6803F4003323B12A
:100BE000104B43430E4C236003E00C4B43430C4C2F
:100BF000236003E0094B0A4C236000BF00BF064B93
:100C00005B68C3F30313084CE15C054B1B68CB40E6
:100C1000034C236010BD00000010024000127A0057
:100C20000000002000093D000400002010B513481A
:100C3000006840F00100114908600846406810490A
:100C400008400E494860084600680E4908400B49B4
:100C500008600846006820F4802008600846406864
:100C600020F4FE0048604FF41F008860FFF718FF73
:100C70004FF000600449086010BD00000010024001
:100C80000000FFF8FFFFF6FE08ED00E001480068F5
:100C9000704700004800002008B50121684600F0B8
:100CA00037F8012802D19DF8000008BD4FF0FF3051
:100CB000FBE7000000200C49097801F0010109B1AF
:100CC00040F002000849097801F0040109B140F040
:100CD00004000649096831B90349097801F00201A5
:100CE00009B140F002007047400000204800002099
:100CF0000020704701B50121684600F071F8012815
:100D000002D19DF8000008BD4FF0FF30FBE7000066
:100D100030B5024600201EE04B1E99B20F4BB3F9CE
:100D200004300E4CB4F90640A34214D00B4C638837
:100D30005C1C0A4D6C8005F10804E45C02F8014B70
:100D40002B465B88DBB22C4663802346DB885B1C2A
:100D50001BB2E380401C0029DED130BD6C030020B3
:100D600010B5252000F01F0201219140164A4309C9
:100D700042F8231000BF002014490860144908609D
:100D80001449087108208871002048714FF4E1303F
:100D90000860084600F05EFB4FF484710E48FFF7D0
:100DA000DAF94FF484710D48FFF7D5F9252000F0EA
:100DB0001F02012191404209920002F1E022C2F893
:100DC000001100BF012010BD80E100E044000020C0
:100DD000480000204C0000206C020020740300201A
:100DE0002DE9F04104460D4600261EE0681E85B23E
:100DF000144880881349C988401A07B2FF2F14DCB1
:100E000014F8012B0F490888411C0E4B198003F17F
:100E100008010A5418460088C0B2083908800846FC
:100E20008088401C00B28880761C002DDED12EB157
:100E3000012240F22771044800F0C1F83046BDE8B5
:100E4000F0810000640200200038014070B5344891
:100E500000883449086040F22771314800F085F875
:100E600020B331480068012803D12D4800F03DF936
:100E700023E02E48B0F904002C49B1F9061088424D
:100E800015D02A484688701C284A508002F1080074
:100E9000815D234800F02EF924484088C0B22349E0
:100EA00048800846C088401C00B2C88005E0002287
:100EB00040F227711A4800F082F840F22551184894
:100EC00000F053F850B31A4880881949C988401A6D
:100ED00005B2FF2D22DC124800F002F9C4B2144919
:100EE0000888411C124A118002F108010C5444B9CF
:100EF00002210B4800F02CF818B101200D490860C0
:100F000002E000200B49086009480088C0B2084987
:100F1000088008468088401C00B2888070BD0000B0
:100F200000380140400000204400002064020020FE
:100F30006C0300204800002021B1828942F4005255
:100F4000828104E082894DF6FF731A4082817047E6
:100F500002460020B1F5007F00D100BF13880B408E
:100F60000BB1012000E00020704770B5024600245C
:100F700000230025002040F66A16B14200D100BFD0
:100F8000C1F3421501F01F03012606FA03F3012DF8
:100F900002D19689334006E0022D02D1168A3340F1
:100FA00001E0968A33400C12012606FA04F41688F2
:100FB000344013B10CB1012000E0002070BDF0B549
:100FC0000346002400260025002040F66A17B94297
:100FD00000D100BF1846C1F3421401F01F060127DB
:100FE00007FA06F5012C01D10C3004E0022C01D1E6
:100FF000103000E014301AB107682F43076002E098
:101000000768AF430760F0BD2DE9F04786B005469D
:101010000E460024A24600BFA1460027B08900B1B9
:1010200000BF2F462C8A4CF6FF700440F088044322
:101030002C82AC894EF6F3100440B0883189084305
:10104000718908430443AC81AC8A4FF6FF400440E9
:10105000B0890443AC8201A8FFF7B8FC1F4887425F
:1010600002D1DDF810A001E0DDF80CA0A88900F4A1
:10107000004040B10AEBCA0000EB0A103168490099
:10108000B0FBF1F807E00AEBCA0000EB0A10316888
:101090008900B0FBF1F86420B8FBF0F004012009EE
:1010A000642101FB1089A88900F4004040B132207E
:1010B00000EBC900B0FBF1F000F00700044308E0CA
:1010C000322000EB09106421B0FBF1F000F00F00BA
:1010D00004432C8106B0BDE8F087000000380140D1
:1010E00001468888C0F308007047818941F00101FA
:1010F00081817047C1F308028280704700207047E9
:1011000070B50B4D0C460346D5E90C0188420BD94E
:10111000401A844200DD044622461846FFF702F8D2
:10112000686B2044686300E00024204670BD000026
:10113000A8000020002070472DE9F041194C0D4611
:101140000746D4E90401401A17490A88101A0028F2
:1011500002DC0020BDE8F081854200DD0546D4E9CF
:1011600006020026904210D3104A09884319114400
:101170008B420AD30E1A904632463946FEF7D2FF0A
:101180003744AD1B4046C4F8188035B12A4639466D
:10119000FEF7C8FFA0692844A0612169A81901448D
:1011A0002161D7E7A8000020502F0008DA010020B5
:1011B00010B5054C6068002805D10120606000F082
:1011C00005F80020606010BDA80000202DE9F04760
:1011D000224CA06800283BD0D4E90401421AE06800
:1011E0004FF00006104335D01D481E4FDFF87880C1
:1011F0000088DFF878903D182046C1696AB1A0697F
:10120000814203D38818A84200D36A1A99F80030A3
:1012100038F81300904200DA02461548E66000787C
:1012200040F0800001F002FBE1690144E161626984
:101230008D420244626100D1E761216991420BD184
:1012400099F8002038F81210814205D10120E060A1
:10125000BDE8F087A660FBE7E660F9E7A80000209C
:10126000502F0008DA010020582F000883000020CA
:101270004D2F000810B50B4C206A18B1A06A401C15
:10128000A06210BD01202062606200F00DF8002015
:1012900060622062D4E90C018842F2D0401AFFF764
:1012A00049FF10BDA800002010B5134C144A134884
:1012B000216B1288144B081A101A124A1B7832F844
:1012C000132090420EDB1148007800F009FF216BDB
:1012D00008442063A06A00280CD0616A002909D163
:1012E000401E06E00120E062606A002802D0A06A89
:1012F000401CA06210BD0000A80000201A020020BF
:10130000522F0008582F0008830000204E2F00089D
:1013100010B50446400702D52046FFF7ABFF200773
:1013200004D52046BDE81040FFF742BF10BD70470E
:1013300008B501216846FFF7E3FE012802D04FF00F
:10134000FF3008BD9DF8000008BD00207047002058
:101350007047000010B50B4800F042F8002810D08C
:10136000084A0948116801700B0A43700B0C83701E
:10137000090EC170117901715179417191798171B1
:10138000012010BDE00000201801002010B500F081
:1013900039F810BD0F4910B50978C1B10E49A12225
:1013A00002230A7020224A7000228A70CA700A71D1
:1013B0004A718B71CA710872000A487207480A2282
:1013C000007840F0800001F031FA012010BD0020CB
:1013D00010BD0000810000205A0200204C2F0008A0
:1013E00001460748007908710548807988710448EA
:1013F0004079487102480068086001207047000089
:101400004C00002010B501210846FFF7CFFA01215A
:101410000420FFF7CBFA01218803FFF7C7FAFFF793
:101420009FFC05490548FEF7CCFF05490348FEF738
:10143000C8FF012010BD00000A310008000801406B
:101440000E31000810B5FFF78BFC10BD01460120DE
:101450007047000070B50546284CA879082801D0CF
:10146000002070BD0020A080687920B1012809D03B
:1014700002280BD102E00020208109E04FF48060B7
:10148000208105E04FF4C060208101E00020E8E702
:1014900000BF287920B1012809D002280BD102E031
:1014A0000020E08009E04FF40050E08005E04FF4B8
:1014B0004050E08001E00020D3E700BF28791049C8
:1014C0000871A87988716879487128680860286867
:1014D00020600C2060810020A08121460948FFF790
:1014E00093FD012240F225510648FFF768FD0121D6
:1014F0000448FFF721FD0120B3E700007404002039
:101500004C0000200038014001B501216846FFF77A
:1015100013FE012802D04FF0FF3008BD9DF80000F7
:1015200008BD000010B510480024104944608460D4
:10153000C4600461C0E90541C0E9071444620C4974
:101540008462C0E90B4141630480FFF77BFF0648DA
:101550004FF41651383001600471447108218171D3
:10156000FFF778FF10BD0000A8000020DA0100207E
:101570001A02002010B5FFF7D5FF10BD70B5174C4B
:1015800000250126206A50B9D4E90C10814206D109
:101590001348814203D02063E56225626063A06A3C
:1015A00070B1206A60B9E06A50B92662FFF77CFE2C
:1015B0002562D4E90C01884202D0401AFFF7BAFD37
:1015C000D4E90101084308D1D4E90401884204D0D8
:1015D0006660A660FFF7FAFD656070BDA800002098
:1015E0001A0200200020704700207047002070473A
:1015F000024910B50880FFF729FF10BDA8000020A0
:10160000084810B5C178026861F31F6206490A6094
:1016100002790A7142794A71807988710846FFF728
:1016200019FF10BD18010020E000002010B504468D
:101630002046FEF7F7FD43F230012046FEF712FE8A
:1016400010BD000010B50246937803F00F0190889A
:10165000937803F0800353B1294B1B88294C2468ED
:1016600004EB01142360431C23F0010020E0244B11
:101670001B88244C246804EB0114A3603E280ED977
:1016800000F11F0323F01F000123C3EB401343F4B9
:1016900000431C4C246804EB0114E36008E0431C85
:1016A00023F001004302174C246804EB0114E360AB
:1016B000134B1B880344124C2380D37803F003039D
:1016C00033B1012B07D0022B08D0032B0FD10BE035
:1016D0004FF400700BE04FF4806008E0002000231E
:1016E0000BB140F4807002E04FF4C06000BF00BF57
:1016F0000843054C04EB8103C3F8000C10BD000047
:101700003C000020380000200050004030B940214B
:10171000034A11801146098880311180704700000A
:101720003C00002000F088BA78B14FF480710B4A79
:10173000116001210A4A116000211160121D11601F
:101740004FF4E051121F116006E00321044A1160BA
:101750009115024A121D11607047000010080140E7
:10176000405C004010B50B4C0B48A28801788A42BF
:1017700000D9CAB21AB90749002018390871802067
:10178000216801F053F8216801442160A188081AFA
:10179000A08010BD98000020352F000810B5064C21
:1017A0000020216800F09CFC216801442160A18890
:1017B000081AA08010BD000098000020704710B5E6
:1017C000044600212046FEF74DFD10BD10B504462D
:1017D00043F220012046FEF745FD10BD2DE9F047FC
:1017E000DFF844820646A8F1080580074FF0000A9A
:1017F000A5F1180424D500F0EDFF98F80000474645
:10180000C009FFF7DBFFF888A8803978C1F34110E1
:1018100010B1012877D17DE098F80120834FDFF8DF
:1018200010920C2A6FD2DFE802F0060C951C952B63
:101830003B953F45526100F05FFD33E0FFF792FFBB
:1018400096E0002000F096FD00285CD000F0C8FF74
:10185000386820B16169002921D0082050E048464D
:1018600053E0012000F086FD002873D000F0B8FF9F
:1018700038680028F3D06169002979D004203FE05E
:1018800011F01F0F66D198F80200012140F080008E
:10189000207000F07F0000F08BFF00F0A1FF67E0F8
:1018A00000F050FC78B3C9E711F01F0F52D15E4829
:1018B0001F3819E000F0B4FD28B300F091FF38683C
:1018C00018B1616929B301201AE05A481DE001F0FE
:1018D0001F0101293ED16178A9B198F80400A178CF
:1018E000884237D2544908442860A7E700F060FED8
:1018F00048B100F075FF386830B1616949B1022024
:1019000001F0E6FA34E025E04C48016809B10846E8
:1019100080472DE011F01F0004D0012805D00228D7
:1019200018D111E000F02AF913E000F02DF9F8B910
:1019300000F080F9E0B900F0CFF8C8B900F0CEF8B7
:10194000B0B900F01FF904E000F0C4F880B900F06D
:1019500017F968B998F80010090604D4B8F8060019
:1019600008B1002000E0802000F02CFFA5F804A0C2
:10197000700735D598F80000474600062ED4A88891
:1019800058B3FFF70BFFA88838BB3878C0F3411174
:10199000F1B101291CD110F01F0004D0012805D09D
:1019A000022815D10EE000F077F810E000F07AF888
:1019B00098B900F047F880B900F046F868B900F02F
:1019C0006FF804E000F03CF838B900F067F820B98F
:1019D000802000F0F7FEA5F804A001E000F006FF6B
:1019E000300713D598F80000000606D5A88821799D
:1019F00008430BD0FFF7B6FE08E02078010605D5B6
:101A000000F07F002070002100F0D2FE700602D5A9
:101A10000020FFF70BFE300604D5BDE8F04780201C
:101A2000FFF704BEBDE8F087A0000020C42F000827
:101A3000C02F0008B82F00082C000020BC2F000881
:101A4000002070470020704710B51048104A0179F7
:101A50001278914203D00F4A1278914214D1417802
:101A600021B1022905D020290ED10AE0FFF7BCFDE3
:101A700002E04088FFF7BAFD30B100F0B1FE01206E
:101A800010BDFFF7BDFDF7E7002010BDA00000204E
:101A90004A2F00084B2F0008002070470020704795
:101AA0000020704710B50948094A0179127891421F
:101AB00009D14078092806D100F0D8FA18B100F011
:101AC0008FFE012010BD002010BD0000A0000020EE
:101AD000362F0008002070470020704770B522495B
:101AE000224A08791278904203D0214A1278904213
:101AF00038D11D4849781F4C1F4D408804291FD0FC
:101B000007DC79B101290FD002290BD0032929D193
:101B100011E0202906D021291AD022291BD02329FF
:101B200020D11BE02C6011E0FFF711FC05E02C60D8
:101B3000FFF718FE0AE0FFF708FC0028F7D111E0D4
:101B4000FFF7DCFA0CE000BF00F04AFE012070BD98
:101B5000FFF700FCF1E7FFF74BFD01E0FFF742FD67
:101B60000028F1D1002070BDA00000204A2F0008FD
:101B70004B2F00081801002098000020002070471B
:101B800000207047002070472DE9F041224C234986
:101B90002079097888423DD16078214D214E224F2D
:101BA0000C2837D2DFE800F03606212D36363636DF
:101BB0003616243200F070F960B3E078012802D0C4
:101BC000032803D003E01948286000E02E60FFF7E7
:101BD000C9FD13E0E078022802D0032803D00DE00D
:101BE000134828600AE02E6008E000F03DF90AE0A2
:101BF00000F014FA0CE000BF00F0F2FD0120BDE897
:101C0000F08100F03FF928B12F60E0E700F024FAFE
:101C10000028F1D10020F2E7A0000020362F0008B4
:101C200098000020360000201801002059010020F3
:101C30009A01002000207047084800214170C160CF
:101C4000016141618161C1614180818001624162C4
:101C50008162C180C162018170470000E8000020FC
:101C60002DE9F05FDFF84081DFF840A1DFF840B1F7
:101C70000127504C08F101090025A561606910B1E8
:101C8000A761BDE8F09F6761A088618888421AD388
:101C9000206AC0B9E561A580012398F8001008F119
:101CA0000102184600F098FF0004000C60800CD080
:101CB0004149C4F81C800978012902D8C4F81C9055
:101CC0003BE0401C60806088B8BBE068A8BB21692D
:101CD00099B339484246007801280FD81570A5807D
:101CE0000223521C0021012000F076FF0004000CAA
:101CF000608001D0C4F81C9025611EE01678202E6B
:101D000000D3002607FA06F0084240D0701CC1B28A
:101D10001170A580022308F10102012000F05CFF90
:101D20000104090C618003D0491CC4F81C80618047
:101D3000216907FA06F0814321616088216A014325
:101D40002AD0A188401A9BF8001086B23AF81100F8
:101D5000B04200D20646676218483246E169007810
:101D600040F0800000F062FDE06915493044E06118
:101D7000A088304480B2A080098888420AD29BF8AB
:101D800000103AF81100B04204D1276205E0761C39
:101D9000F6B2B4E7256200E065626561A0690028DB
:101DA0007FF46BAF6DE70000580100203E2F000864
:101DB00083000020E8000020422F0008372F000891
:101DC000442F0008F8B5194C194D0026E08800B9D9
:101DD000A5621848A16A007800F082F90004A16A9F
:101DE000000C0144A162E18801448BB2E3800AD077
:101DF000114909888B4206D2114A1049127831F8EC
:101E00001210814210D90F48017801200129009059
:101E100003D80021064A022003E029786A1C022028
:101E20005B1E00F0F7FFE680F8BD0000E800002030
:101E300099010020382F0008462F00083E2F000887
:101E400083000020432F000810B50446000702D588
:101E50002046FFF705FF600704D52046BDE8104087
:101E6000FFF7B0BF10BD0000034804498078085C4C
:101E70000349087001207047A000002034000020B2
:101E80001801002010B500F0A5FE024908700120DD
:101E900010BD0000180100200B4910B5C8780022C1
:101EA000012804D0022804D0032806D103E0074A01
:101EB00002E0002010BD064A521C8978002300F081
:101EC0008BFE012010BD0000A00000205801002062
:101ED000350000202DE9F05F4648007800287DD0CD
:101EE000454800273D4601784A1C0270434A147851
:101EF000042204EB440A02FA0AF2521E914201DB68
:101F0000057001273E4900230A88FF2A01D2521C8E
:101F10000A803C4A8E46098832F81490894500D1DF
:101F200001238346002100699BF8006043E000BF65
:101F30004FF0000C6FB1344A545CFF2C01D2641C8A
:101F40005454324C645C24B1525CA24201D34FF031
:101F5000010C2E4A4FF0020808FA0AF8525C02FA05
:101F600008F44C4502DA0AB1012400E0002433B140
:101F70002CB14FF0010808FA01F848EA0000DFF838
:101F8000908018F8018042450AD01F4A525C4245B1
:101F900003D301228A40104300261C4A02F8018024
:101FA000BCF1000F05D014B901228A401043164A33
:101FB0005554491CC9B2174A12789142B8D3CBF88C
:101FC000100059468BF800600BB1AEF8005008B114
:101FD000CA6852B1104A1378012200E003E09A4027
:101FE0009043CBF81000BDE8F09FBDE8F05F002003
:101FF000FFF736BE81000020E800002083000020AB
:10200000300000203A2F000832000020330000206A
:1020100034000020422F00085801002010B50A4863
:1020200009498078C97810B1084A815409E0002034
:10203000074B084A02E01954401CC0B21478A04271
:10204000F9D3012010BD0000A000002033000020C3
:1020500034000020422F0008034810B5807800F0BB
:10206000D7FE012010BD0000A00000200C4908B5DB
:10207000C8780022012804D0022804D0032806D101
:1020800003E0002008BD074A00E0074A521C002375
:102090000093CB88897800F0BDFE012008BD0000C8
:1020A000A0000020990100203500002010B505484F
:1020B000C06940F400000349C86100F005F8FEF76C
:1020C0005FFC10BD00100240142001218140420934
:1020D000920002F1E022C2F8001100BF7047704781
:1020E0002DE9F04305460C4605F00F06124800683E
:1020F00000EB061080681149022202FB00190E480D
:10210000006800EB06108089C0F309074FF0000853
:1021100005E039F8041B2180A41C08F10108781C93
:10212000B8EB500FF5D34FF440512846FEF79AF81C
:102130003846BDE8F0830000380000200060004011
:10214000704700007CB54048A0F120050178A0F15F
:10215000080411F01F0102D0012973D15CE0C3789B
:10216000394839492038394AC0788978082B69D2EA
:10217000DFE803F06804123F6868082C34482060E8
:10218000122047E0117800295CD018B13148206056
:102190000A203FE03048FAE712780AB9012851D006
:1021A00018B12E480090002008E02D48FAE7009A68
:1021B000137813B153881A440092401C8142F6D11F
:1021C00000980178E9B32060408823E01278C2B318
:1021D00018B124480090002008E02348FAE7009A4C
:1021E000137813B153881A440092401C8142F6D1EF
:1021F000E6E71E480090002005E0009B1A780AB12F
:102200001A440092401C8142F7D100980178C1B174
:1022100020600078019005E001A9684600F02AF8E6
:1022200000280DD0A1880198814208D9104980B2B8
:10223000A0800978491E084201D10120287101209F
:102240007CBDFFE70020FBE7A0000020312F000845
:10225000EE2F000801300008003000086E30000842
:1022600002300008703000086F300008723000083B
:10227000352F000830B5164A164C174BD578127911
:10228000212D02D0222D20D115E02478A2421CD18C
:10229000124A1478124A12780CB9012A15D042B1A8
:1022A000104A02601046104A128810441860092033
:1022B00008E00E4AF5E72078824206D10C48186003
:1022C0000C4800880860012030BD002030BD0000AF
:1022D000A0000020362F000898000020312F0008B1
:1022E000830000206E300008EC2F00080230000848
:1022F000C82F0008EA2F000870B51C481B4D007855
:10230000A5F1080510F01F040AD01848A5F118011E
:10231000174B4A780079012C06D0022C24D109E011
:1023200012481A3828601DE0F2B1897888421BD221
:10233000002015E000F08F04200605D504F00F06FC
:102340004FF48030B04001E00120A0400AB92207DC
:102350000AD18A68024207D0C9680142E8D0012048
:1023600018802B60012070BD002070BDA0000020EF
:102370001801002070B5294A0146A2F12004107806
:1023800010F01F031046408804D0012B28D0022BE8
:1023900026D110E0012823D129B100F045FAE088C8
:1023A00040F0020005E0002000F03EFAE08820F056
:1023B0000200E08030E0127902F08F06320605D587
:1023C00006F00F024FF48035954001E00125B5403D
:1023D00062782AB1320703D0A2682A4200D008B13D
:1023E000002070BD0D482038C06800EA050031B1FA
:1023F00090B9304600F0E6F9E06828430BE058B1A8
:102400002069284208D13046FFF710F93046FFF71F
:1024100097FEE068A843E060012070BDA0000020A6
:102420002DE9F84F5C4F00200090387810F01F0F16
:102430006FD1B8784FF000094FF0010B4FF4803A9C
:10244000A7F1200600287AD0544801783046C07899
:1024500009B901285DD008B1514C6BE0514C69E0DD
:102460006078022804D0042844D0052860D144E0D4
:102470006179B87881423BD170702079B0700020CA
:10248000494A4A4903E000BF02F80090401C0B880B
:102490009842F9D30125B0460BFA05F0D8F8081098
:1024A000084202D02846FFF78AF9D8F808100AFA3D
:1024B00005F0084203D045F08000FFF780F96D1C5D
:1024C000102DE9D34FF00110C8E902090120C8F826
:1024D0001090FFF71BF9E0794006B8F8060002D526
:1024E00040F0010001E020F00100A8F806001FE024
:1024F00060881EE0E07800901AE00098C0B9A078EB
:1025000000F08F05280605D505F00F010AFA01F045
:1025100002E03CE00BFA05F0B16801432046B160EF
:10252000FFF790F82846FFF751F9284600F030F9F8
:10253000207804442078002892D124E0FFE7C846A0
:1025400086F8019001245D464FEA0A09B16805FA50
:1025500004F0084202D02046FFF731F9B16809FAC9
:1025600004F0084203D044F08000FFF728F9641C0F
:10257000102CEBD34FF00110C6E902080020C6F87A
:102580001080FFF7C3F8B8787178884202D0002035
:10259000BDE8F88F0120FBE7A0000020312F0008E4
:1025A0006E300008023000082C000020322F000896
:1025B0002DE9FC5F444E00273D463078BB4600F0D5
:1025C0001F00B84601287DD1A6F1200148780028D7
:1025D00075D03E48BA4602780846C0780AB9012844
:1025E00070D0894608B13A4C65E03A4C63E06078B7
:1025F000022804D0042809D005285AD117E06179AF
:1026000099F80100814254D0608853E0A77830796E
:10261000E5784FF00008B8424BD1B078A84248D1D5
:102620002D484FF0010A10F807B0C55541E0307948
:10263000B8423ED1A07800F08F000190000605D589
:10264000019800F00F014FF4803001E00199012062
:1026500088400090B078A84217D1D9F80810009AA5
:1026600020461143C9F80810D9F80C109143C9F855
:102670000C10FEF7E7FF0198FFF7A8F8019800F0AB
:1026800087F8009948EA010813E05D4511D10099E7
:1026900018EA010F0DD1D9F80810009A9143C9F832
:1026A0000810D9F80C109143C9F80C100198FFF7E5
:1026B00086F8207804442078002898D15046BDE858
:1026C000FC9FFFE70020FAE7A0000020312F000860
:1026D0006E300008023000082C000020002027493E
:1026E00008602748006808B1481400E0002040F462
:1026F0001C402349096811B14FF4804100E00021DA
:1027000008432049096811B14FF4007100E000212D
:1027100008431C49096811B14FF4807100E00021A1
:1027200008431649091F0860402017490880002007
:1027300012490C310860144800881449096808607F
:1027400011480088403010490880084600880F4929
:10275000096888600C48008840300B49088048F2BE
:10276000FF700A490968C8604FF44850034944396A
:10277000086080200149083108607047445C0040CF
:10278000742F0008702F00083C0000203800002043
:1027900010B504462046FDF745FD10BDFEF7EABE24
:1027A00010B5FFF797FBBDE81040FEF7E7BE00004D
:1027B00001B1704740F08002014B1A6000BFF8E79A
:1027C0004C5C004010B5044641F210012046FDF774
:1027D00049FD10BD01490020FFF782BCA000002088
:1027E00000221146802000F021B80000014900209D
:1027F000FFF776BC180100200548006840F008008B
:10280000034908600846006840F00400086070470B
:10281000405C00400348006820F00800014908605F
:1028200070470000405C0040704700002DE9F04711
:1028300007460D46144607F00F061648006800EBE1
:10284000061000681449022202FB001A4FF000082B
:1028500005E028884AF8040BAD1C08F10108601C4B
:10286000B8EB500FF5D30B48006800EB061044603E
:102870000A4901EB8600D0F8000C1FFA80F909F034
:102880003000102803D030213846FDF7EBFC2046FD
:10289000BDE8F08738000020006000400050004094
:1028A00070B55048056805F4806068B1FFF716FF01
:1028B00000F010FB4C48006810B14B48006880479E
:1028C0006FF480604749086005F4006058B1FFF775
:1028D00093FF4648006810B14448006880476FF491
:1028E00000604049086005F4805058B1FFF792FF3E
:1028F0003F48006810B13E48006880476FF4805040
:102900003849086005F4007048B13A48006810B1D1
:102910003848006880476FF400703249086005F459
:10292000804050B13448006818B10220324909682B
:1029300088476FF480402B49086005F4005050B17F
:102940002D48006818B101202B49096888476FF4A9
:102950000050244908603CE06FF4004021490860C1
:1029600005F00F04254901EB8400D0F8006C06F453
:102970000040C0B126F4004048F68F7108401F4A5D
:1029800002EB8401C1F8000C1D4850F8240050B13E
:1029900006F400620AB1022200E004221046184A3E
:1029A00052F82410884706F0800090B126F080008D
:1029B00048F68F710840114A02EB8401C1F8000CFF
:1029C0000F4850F8240020B10D4850F8241008207A
:1029D000884704480068054600F400400028BBD141
:1029E00070BD0000445C0040602F0008642F0008A8
:1029F000682F0008702F0008742F00080050004056
:102A0000782F000802E008C8121F08C1002AFAD176
:102A100070477047002001E001C1121F002AFBD15E
:102A200070470000FDF7B4FBFEF7AEF8FDF7BEFE01
:102A30005648006838B1554855490860084600684E
:102A4000016854488847FDF7A9FE6420FDF7D0FBD4
:102A500000F030FA012000F0BBF800204E49086079
:102A60001AE04D4801680068401C4B4A106011B9DB
:102A7000FDF79CFE0DE048480068052802D1FDF7EF
:102A80008DFE06E044480068322802D10020424909
:102A900008600A20FDF7ACFB00F092F80028E0D0B7
:102AA000FDF77CFE6420FDF7A3FB00203A49086097
:102AB0003A483B4908604FF0FF303A4908603A49CC
:102AC000086061E03248006880B9334801680068F6
:102AD000401C314A10603548814204D10020114623
:102AE0000860FDF777FE00F035F91BE000F032F9E1
:102AF000A8B92B480068B0F57A7F02D1FDF756FEE1
:102B000007E02748006820B9FDF748FE234824491C
:102B1000086023480068401E2149086002E01F4801
:102B20001F490860FDF77CFE1E480068401C18B96C
:102B3000FEF7FEFB1B4908601A480068401C58B1AC
:102B400018490878FEF7D6F816490968884203D173
:102B50004FF0FF301349086013480068401C18B953
:102B6000FEF79AF8104908600F480068401C58B1F9
:102B70000D490878FEF7C8FC0B490968884203D163
:102B80004FF0FF30084908609CE700000040000853
:102B900014000020F82E000820000020400D030043
:102BA00024000020180000201C00002040420F00DC
:102BB00010B500F0AFF8BDE81040FEF7E7BB00002D
:102BC00002484078002800D0012070478000002093
:102BD000FEF7AABD002070472DE9F04104460F46DC
:102BE00015461E46012C02D0032C38D136E026B102
:102BF000012E04D0022E2FD100E000BF2CE0194896
:102C0000006819490968884202D118480078F8B16B
:102C10001748144A126800EB821140222846FDF73B
:102C200081FA10480068401C0E4908600846006898
:102C3000402801D1002008600A4800680A49096854
:102C4000884202D10020094908704020BDE8F08187
:102C500001200849087000BF00BF00E000BF00BFAE
:102C60000020F3E7680000206400002061000020DD
:102C700084140020600000202DE9F04107461F4821
:102C800016460088824202DD0020BDE8F0811C4823
:102C900000780028F9D01B4C01224FF00008E260B8
:102CA00000E0B0B1626A12B1A269002AF9D1164DF2
:102CB0003246681C2F70FDF735FAE5611349A4F818
:102CC0000480B0B26080097801290BD86D1CE561E1
:102CD0000AE0C4F80C80C4F81C80A4F80480A4F8AE
:102CE0000280D1E7401C60800020FEF7B9FF084851
:102CF00000F807800120C4F80C80C6E7442F0008C4
:102D000081000020E800002058010020422F000828
:102D1000320000200020084908700849086008496E
:102D2000086001200749087000200749087007491A
:102D300008600749086070475400002058000020D0
:102D40005C00002060000020610000206400002082
:102D50006800002010B525480068254909688842A8
:102D600003D12448007800283DD0234A234B1B6818
:102D700002EB8311224A1D4B1B6802EB8310FDF707
:102D8000F3FB1A480068441C402C00D1002417486B
:102D90000460006816490968884202D1002015497C
:102DA00008701848007860B1002016490870124871
:102DB000124A126800EB821140220020FFF75CFFEC
:102DC0000FE00E480068441C402C00D100240B4842
:102DD000046000680C490968884202D101200B494F
:102DE0000870012010BD0020FCE700005C000020FE
:102DF00058000020540000208414002064000020AB
:102E00008404002060000020680000206100002091
:102E1000704700002DE9F0410646884614461D46DD
:102E2000069F022E02D0032E36D134E005B933E0DE
:102E30002078072807D11A48006818B1184909688E
:102E40008868804728E01748007830B11648006845
:102E500016490968884200D11EE01549124A1268D5
:102E600001EB82102A462146FDF75CF90E48006806
:102E7000401C0D49086008460068402801D1002028
:102E800008600948006809490968884202D10120A0
:102E90000449087000E000BF00BFBDE8F0810000F9
:102EA0001400002054000020580000205C00002086
:102EB00084040020054910B50020C870FFF778FE93
:102EC000FFF70DF9BDE81040FFF7F0B880000020D3
:102ED0007047000006484FF0011201780548C18094
:102EE000002101704170C0E90221016170470000BA
:102EF000302F000880000020BD07000809080008E6
:102F000000200210000102100700004830000310EA
:102F10000600004837000310370000480002004850
:102F2000F787000008000000FFFF000000E000003D
:102F300000000300034002030300010040004000C2
:102F400004000101400040000100000101020200F4
:102F50004000400040001000400040000000000021
:102F60009D27000800000000000000000000000095
:102F7000A127000800000000DD1700082F1300083B
:102F800011130008491E00080000000000000000A6
:102F90000000000000000000000000000000000031
:102FA0000000000000000000000000000000000021
:102FB00000000000000000002517000800000000CD
:102FC00000000000000000000600FF0901A101153B
:102FD0000026FF007508954009018102954009010E
:102FE000910295010901B102C000210054001201B3
:102FF0000002EF02014051C201F000010102030191
:10300000000009026B000301008032080B0002027D
:10301000020104090400000102020004052400105A
:103020000105240101010424020205240600010710
:1030300005810340000209040100020A000005079F
:103040000502024000000705820240000009040258
:1030500000020300000609210001000122210007EF
:103060000583034000010705030340000100000041
:10307000000004030904120358003800390033002B
:103080002000410052004D00140343004D00530046
:10309000490053002D004400410050001A03300045
:1030A000300030003100410030003000300030008E
:1030B0003000300030001C0343004D005300490035
:1030C00053002D0044004100500020004300440004
:1030D00043001C0343004D005300490053002D00E2
:1030E00044004100500020004400430049001C03FC
:1030F00043004D005300490053002D00440041009F
:103100005000200048004900440000040348000229
:103110000318000400000002000000005C310008F9
:103120000000002018010000042A00087432000882
:103130000028002008000000042A0008743200085B
:10314000180100206C230000142A00087C320008BB
:103150000828002040000000142A0008006CDC024F
:103160000000000000000000010203040607080937
:10317000000000000000000000000000000000004F
:1031800000000000FFFFFFFF000000000000000043
:10319000000000000060004000000000000000008F
:1031A000000000000000000000000000000000001F
:1031B000000000000000000000000000000000000F
:1031C00000000000000000000000000001020304F5
:1031D00001020304060708090204060800000000B3
:1031E00000000000000000000000000000000000DF
:1031F00000000000000000000000000000000000CF
:1032000000000000000000000000000000000000BE
:1032100000000000000000000000000000000000AE
:10322000000000000000000000000000000000009E
:10323000000000000000000000000000000000008E
:10324000000000000000000000000000000000007E
:10325000000000000000000000000000000000006E
:10326000000000000000000000000000000000005E
:0C32700000000000000000000000000052
:020000040800F2
:104000001D700008E54700081170000870B50646ED
:104010000D46307808B9012400E03478012C02D034
:10402000022C0CD105E0012009490870FCF782FC44
:1040300009E0022006490870FCF744FC03E0002078
:104040002870012070BD00BF2C700120FAE700002D
:104050000828002018B502460B461078547840EA2C
:1040600004210C4800680C4CB0FBF4F0801C0324C5
:10407000B0FBF4F041430846009000BF00BF009C35
:10408000641E0094002CFAD100BF0020187001209B
:1040900018BD00000000002040420F0010B504468B
:1040A000002004490870FCF733FC00202070012038
:1040B00010BD00000828002002460020052A1AD062
:1040C00008DC012A0FD0022A0ED0032A0DD0042AC0
:1040D00021D10BE0062A0FD0F02A0ED0FE2A16D0EE
:1040E000FF2A18D10DE016E015E014E00B4B1B6819
:1040F0000B6004200FE00EE00DE003230B700120A5
:1041000009E040230B7000234B70022003E04023A2
:104110000B70012000BF00BF704700003070000826
:1041200070B504460D4613480078022804D000BF3D
:10413000FF202870012070BD21780E48C175C07D18
:104140000C49897D884200DBF2E7082000F0F0FF8F
:104150006078A17840EA0120E17840EA01402179C5
:1041600040EA0166304601F05BFF00202870012024
:10417000E1E7000008280020F0B502460E4612F8DC
:10418000013B114883750025002109E012F8014B1D
:104190000D4818304454083020F811502544491C6B
:1041A0009942F3D3002108E007481830405C2D1AEB
:1041B0000548303020F81150491C9942F4D30020B2
:1041C00030700120F0BD00000828002070B50646C0
:1041D0000C4611480078022804D000BFFF20207050
:1041E000012070BD31780C48C175C07D0A49897DB8
:1041F000884200DBF2E70E2000F09AFF01F0C2F9DE
:104200000546002020706570280AA070280CE07018
:10421000280E20710520E4E7082800202DE9F0474A
:1042200004460D46002005F8010B4FF0010814F874
:10423000019B12E014F8017B2A462146384601F022
:1042400095FA07F03F0606B94026F01DC60834442B
:1042500007F0800008B13544B0445FEA0900A9F1D5
:104260000109E7D14046BDE8F08700002DE9F04F95
:1042700087B006460C46002005900025A346A41CE6
:10428000D94908708146049016F8011BD748C175BA
:10429000C07DD649897D884200DB9BE116F8010B81
:1042A000069048E116F8017B07F0010008B10B20E9
:1042B00000E00A20824607F00200002879D0049826
:1042C000002846D0C948B0F80A80D14514D107F07B
:1042D000100088B900BFF8B201A901F09BFA0546A9
:1042E000022D24D15FEA0800A8F101081FD0BE48C2
:1042F00000780028EFD01AE0B9F10A0F04D04FF08F
:104300000A09484600F014FF00BF01A90E2001F081
:1043100081FA0546022D08D15FEA0800A8F10108DC
:1043200003D0B14800780028EFD000200490012D80
:1043300000D006E1019804F8010B0198000A04F886
:10434000010B0198000C04F8010B0198000E04F811
:10435000010B07F01000002860D03078717840EA37
:104360000120B17840EA0140F17840EA0160039011
:10437000361D9E4880890290D14503D0D1464846DB
:1043800000F0D6FE9948B0F80A8000BFF8B20021CC
:1043900001F040FA0546022D08D15FEA0800A8F1B5
:1043A000010803D0904800780028EFD0012D01D0FB
:1043B000C7E056E000BF8D48B0F80A8000BFF8B2F1
:1043C00001A901F027FA0546022D08D15FEA08008D
:1043D000A8F1010803D0844800780028EFD0012D0F
:1043E00000D00EE081480069019908400399884295
:1043F00007D00298411E029118B17B48007800282E
:10440000D9D000BF794800690199084003998842D2
:1044100001D045F01005012D22D092E0049800282B
:104420001ED1D14503D0D146484600F081FE6F48E9
:10443000B0F80A8000BFF8B2002101F0EBF90546A0
:10444000022D08D15FEA0800A8F1010803D06648F0
:1044500000780028EFD0012D00D072E001200490F8
:1044600062E0049878B3B9F10A0F04D04FF00A095A
:10447000484600F05DFE5D48B0F80A8000BF01A923
:104480000E2001F0C7F90546022D08D15FEA0800A9
:10449000A8F1010803D0544800780028EFD0012D7E
:1044A00000D04EE0019804F8010B0198000A04F8CE
:1044B000010B0198000C04F8010B0198000E04F8A0
:1044C000010B002004903078717840EA0120B17827
:1044D00040EA0140F17840EA01600190361D07F0A2
:1044E000200020B141480199016101251CE0D1451E
:1044F00003D0D146484600F01BFE3C48B0F80A8085
:1045000000BFF8B201A901F085F90546022D08D1D6
:104510005FEA0800A8F1010803D0334800780028BA
:10452000EFD0012D00D00CE00598401C05902E48DE
:10453000007800B105E00698411E069100287FF43E
:10454000B1AE00BF012D44D1B9F10A0F04D04FF034
:104550000A09484600F0ECFD049830B32348B0F84F
:104560000A8000BF01A90E2001F054F90546022D72
:1045700008D15FEA0800A8F1010803D01A480078C2
:104580000028EFD0012D00D024E0019804F8010BA1
:104590000198000A04F8010B0198000C04F8010BC3
:1045A0000198000E04F8010B13E01048B0F80A80DF
:1045B00000BF00210E2001F02DF90546022D08D183
:1045C0005FEA0800A8F1010803D007480078002836
:1045D000EFD000BF05988BF800008BF80150A4EBDA
:1045E0000B0007B0BDE8F08F042800200828002049
:1045F0002DE9FC5F04460D464FF0000B0026A9464E
:10460000ED1C00206349087014F8011B6248C17555
:10461000C07D6149897D884200DBAEE02078617809
:1046200040EA0128A41CB8F1000F00D1A5E014F85D
:10463000017B07F0010008B10B2000E00A20009088
:10464000009800F075FD07F0020000284FD0524896
:10465000B0F80AA000BFF8B2002101F0DBF806466E
:10466000022E08D15FEA0A00AAF1010A03D04948E4
:1046700000780028EFD0012E00D07EE031E0B8F1C4
:10468000000F06D100980A2802D00A2000F050FD41
:104690000E274148B0F80AA000BFF8B201A901F006
:1046A000B9F80646022E08D15FEA0A00AAF1010A0B
:1046B00003D0384800780028EFD0012E00D05CE00D
:1046C000019805F8010B0198000A05F8010B019803
:1046D000000C05F8010B0198000E05F8010B0BF119
:1046E000010B5FEA0800A8F10108C8D144E024E00A
:1046F0002078617840EA0120A17840EA0140E17821
:1047000040EA01600190241D2348B0F80AA000BFD0
:10471000F8B201A901F07EF80646022E08D15FEA40
:104720000A00AAF1010A03D01A4800780028EFD045
:10473000012E00D021E00BF1010B5FEA0800A8F187
:104740000108D5D100980A2802D00A2000F0F0FC18
:104750001148B0F80AA000BF00210E2001F05AF85D
:104760000646022E08D15FEA0A00AAF1010A03D028
:10477000084800780028EFD000BF89F800B04FEA61
:104780001B2089F8010089F80260A5EB0900BDE84B
:10479000FC9F0000042800200828002070B5044673
:1047A0000D46207810B1012810D107E0627802F0A0
:1047B00001000B4A1268116888470BE0627802F02A
:1047C0000100074A12685168884703E0FF202870FB
:1047D000012070BD00BF002028700120F9E7000013
:1047E0000028002070B506460D463078802807DB8B
:1047F00030789F2804DC2946304600F0C3F870BDAD
:10480000307805F8010B16F8010B172874D2DFE891
:1048100000F00C141A205A607BAF96252BAFAFAF77
:10482000AFAF30363C42484E54003078691CFFF739
:1048300043FC04462C70A01CE1E729463046FFF7F4
:10484000ADFF044699E029463046FFF7DFFB0446FA
:1048500093E02846FFF722FC04468EE029463046C6
:10486000FFF7F8FB044688E0284600F090F804467D
:1048700083E02946304600F06BFB04467DE0294684
:10488000304600F02BFB044677E02946304600F026
:104890000FFC044671E02946304600F09FF80446BC
:1048A0006BE029463046FFF7B9FC044665E029462F
:1048B0003046FFF761FC04465FE029463046FFF7CB
:1048C00085FC044659E02946304600F01BFC0446AE
:1048D00053E02B480078012802D002280DD105E0D2
:1048E0002946304600F08CF804460BE02946304655
:1048F000FFF7BCFC044605E03AE000202870687031
:10490000022400BF00BF38E01D480078012802D013
:1049100002280CD105E02946304600F023FA04466F
:104920000BE029463046FFF763FE044605E0002011
:1049300028706870A870032400BF00BF1DE01048F5
:104940000078012802D002280CD105E02946304623
:1049500000F024F8044609E029463046FFF7E0FB62
:10496000044603E0FF202870022048E700BF04E06F
:10497000FF2005F8010C012041E700BF601C3EE765
:10498000082800200246FF200870012070470146D9
:1049900000BF0020487008700220704738B50446F8
:1049A0000D460D480078012803D0FF202870012013
:1049B00038BD6078A17840EA0120E17840EA014002
:1049C000217940EA016000906946002001F062FD13
:1049D000002028700120EBE70828002010B50246CF
:1049E000137803F00300401C044C2075C3F38004CB
:1049F0000248447500200870012010BD08280020DE
:104A00002DE9F04F85B006460C46002003900025A6
:104A1000A146A41CD149087082460290761C16F863
:104A2000010B049047E116F8018B08F00200002802
:104A30007ED0BAF1000F3CD0C948478908F0110078
:104A4000012811D100BF6946404601F023FD05460B
:104A5000022D1CD13800A7F101018FB217D0BF4839
:104A600000780028EFD012E000BF69460E2001F068
:104A700011FD0546022D08D13800A7F101018FB2C2
:104A800003D0B64800780028EFD04FF0000A012D7F
:104A900000D017E1009804F8010B0098000A04F810
:104AA000010B0098000C04F8010B0098000E04F8AC
:104AB000010B08F0100000285AD03078717840EAD5
:104AC0000120B17840EA0140F17840EA016B361DDF
:104AD000A3488089019008F00100A8B1A048478947
:104AE00000BF0021404601F0D5FC0546022D08D14B
:104AF0003800A7F101018FB203D098480078002850
:104B0000EFD0012D00D0DDE000BF9548478900BF00
:104B10006946404601F0BEFC0546022D0AD1380028
:104B2000A7F101018FB205D08C480078002800E081
:104B300063E0EDD0012D00D00EE0894800690099B6
:104B40000840584508D00198411E89B2019118B11A
:104B5000824800780028D8D000BF814800690099B9
:104B60000840584501D045F01005012D42D0A9E07C
:104B70007B48478908F00100C8B1BAF1000F39D16C
:104B800000BF0021404601F085FC0546022D08D1FA
:104B90003800A7F101018FB203D0704800780028D7
:104BA000EFD0012D00D08DE04FF0010A22E000BFD0
:104BB0006946404601F06EFC0546022D08D13800DA
:104BC000A7F101018FB203D0644800780028EFD02C
:104BD000012D00D076E0009804F8010B0098000A3F
:104BE00004F8010B0098000C04F8010B0098000E6B
:104BF00004F8010B0020029055E0BAF1000F26D016
:104C00005748478900BF69460E2001F043FC05461E
:104C1000022D08D13800A7F101018FB203D04F480F
:104C200000780028EFD0012D00D04BE0009804F868
:104C3000010B0098000A04F8010B0098000C04F81E
:104C4000010B0098000E04F8010B4FF0000A3078B9
:104C5000717840EA0120B17840EA0140F17840EAF9
:104C600001600090361D08F0200020B13C480099FA
:104C70000161012517E03A48478900BF694640466F
:104C800001F008FC0546022D08D13800A7F101010A
:104C90008FB203D0314800780028EFD0012D00D02A
:104CA00010E0012002900398401CC0B203902B48F2
:104CB000007800B106E00498411EC9B204910028B2
:104CC0007FF4B1AE00BF012D3DD1BAF1000F25D068
:104CD0002348478900BF69460E2001F0DBFB0546EB
:104CE000022D08D13800A7F101018FB203D01B4873
:104CF00000780028EFD0012D00D025E0009804F8BE
:104D0000010B0098000A04F8010B0098000C04F84D
:104D1000010B0098000E04F8010B14E0029890B10A
:104D20000F48478900BF00210E2001F0B3FB054664
:104D3000022D08D13800A7F101018FB203D0074836
:104D400000780028EFD000BF039889F8000089F8A8
:104D50000150A4EB090005B0BDE8F08F0428002045
:104D6000082800202DE9F84F04460D464FF0000BAF
:104D70000026A846ED1C002056490870641C2078C7
:104D8000617840EA012AA41CBAF1000F00D195E035
:104D900014F8017B07F0020000284FD007F0010053
:104DA000B0B14D48B0F80A9000BFF8B2002101F050
:104DB00071FB0646022E08D15FEA0900A9F101093C
:104DC00003D0444800780028EFD0012E00D075E0D1
:104DD0002EE0BAF1000F03D107F0010000B10E2759
:104DE0003D48B0F80A9000BFF8B2694601F052FBA6
:104DF0000646022E08D15FEA0900A9F1010903D095
:104E0000344800780028EFD0012E00D056E00098FA
:104E100005F8010B0098000A05F8010B0098000C3A
:104E200005F8010B0098000E05F8010B0BF1010BC2
:104E30005FEA0A00AAF1010ACBD13EE024E0207823
:104E4000617840EA0120A17840EA0140E17840EA37
:104E500001600090241D2048B0F80A9000BFF8B20D
:104E6000694601F017FB0646022E08D15FEA0900E9
:104E7000A9F1010903D0174800780028EFD0012ECE
:104E800000D01BE00BF1010B5FEA0A00AAF1010A56
:104E9000D5D11148B0F80A9000BF00210E2001F0D2
:104EA000F9FA0646022E08D15FEA0900A9F10109C4
:104EB00003D0084800780028EFD000BF88F800B081
:104EC0004FEA1B2088F8010088F80260A5EB080073
:104ED000BDE8F88F042800200828002030B50246DD
:104EE0000C461078557840EA0520957840EA054050
:104EF000D57840EA05631BB9FF202070012030BD42
:104F000011480068B3EB900F04D301200F4D687077
:104F1000686014E000200D4D6870581E0A4D2D6821
:104F200000EB5500B0FBF3F1022905D9891E881C5E
:104F30000325B0FBF5F100E00121044841600020A9
:104F400020700120DBE7000000000020082800207E
:104F50002DE9F0470646884634787578B078F178C0
:104F600040EA0120317940EA0140717940EA016765
:104F700005F0010038B104F0010010B101F000FAB1
:104F800001E001F0EFF905F0020038B104F0020091
:104F900010B101F047FA01E001F036FA05F0040023
:104FA00010B1A01001F050FA05F0200010B160110E
:104FB00000BF00BF05F0800010B1E011FBF768FCF6
:104FC000002F52D03748874200D9074600BF002043
:104FD0004FF0E02188613448006878433349B0FBE2
:104FE000F1F04FF0E02148610520086100BF00BFEB
:104FF00005F0010020B101F0BBF9604000B124E0F0
:1050000005F0020028B101F005FA80EA640000B161
:105010001BE005F0040028B101F00AFA80EAA400C0
:1050200000B112E005F0200028B100BF002080EAA6
:10503000641000B109E005F0800028B101F01EFA0B
:1050400080EAE41000B100E007E000BF4FF0E0208C
:105050000069C0F300400028CAD000BF00BF002094
:105060004FF0E021086100BF00BF01F081F98146E7
:1050700001F0D0F949EA400901F0DAF949EA80097A
:1050800001F0F0F949EAC000002140EA411901F0BD
:10509000F5F949EAC010C4B288F800400120BDE823
:1050A000F0870000C0C62D000000002040420F0025
:1050B00070B504460D4614F8016B0EB94FF48076B6
:1050C0002146304601F06EFF00202870012070BD9F
:1050D00010B50948006840080849B0FBF1F0801E8F
:1050E0000749486064210648418101200449087548
:1050F000FBF70EFC10BD00000000002040420F0036
:105100000828002002461078084B187250789378CF
:1051100040EA032305484381D078137940EA03230A
:105120000248838100200870012070470828002071
:1051300010B504460548407818B1204600F008F83C
:1051400002E0204600F0A6F810BD0000082800206C
:1051500070B5054601F066F901F004F900BF00BF23
:1051600001F00EF900BF00BF01F0FCF800BF00BF66
:1051700001F006F900BF00BF01F046F901F0F2F8B6
:1051800000BF00BF01F0FCF800BF00BF01F0EAF86B
:1051900000BF00BF01F0F4F800BF00BF012001F024
:1051A00053F93B48C17D203030F8114008E001F050
:1051B000D9F800BF00BF01F0E3F800BF00BF641ED4
:1051C000002CF4D13248C17D1830405C441E0CE004
:1051D000E8B201F039F901F0C5F800BF00BF01F0F5
:1051E000CFF800BF00BF6D08641E002CF0D1284826
:1051F000C17D303030F811402CB3E8B201F024F911
:1052000001F0B0F800BF00BF01F0BAF800BF00BF66
:10521000012001F019F9641E08E001F0A3F800BFB5
:1052200000BF01F0ADF800BF00BF641E002CF4D138
:1052300001F0F8F801F096F800BF00BF01F0A0F807
:1052400000BF00BF0DE001F0EDF8E8B201F0FCF89E
:1052500001F088F800BF00BF01F092F800BF00BF66
:1052600000BF01F07FF800BF00BF01F089F800BF68
:1052700000BF01F0C9F801F075F800BF00BF01F0F0
:105280007FF800BF00BF012001F0DEF870BD000014
:105290000828002038B5054601F0C4F801F062F88E
:1052A000B7494868009000BF00BF0099491E0091AF
:1052B0000029FAD100BF01F063F8B14948680090B5
:1052C00000BF00BF0099491E00910029FAD100BF1C
:1052D00001F048F8AA494868009000BF00BF009953
:1052E000491E00910029FAD100BF01F049F8A449F4
:1052F0004868009000BF00BF0099491E0091002936
:10530000FAD100BF01F080F801F02CF89C49486800
:10531000009000BF00BF0099491E00910029FAD1FA
:1053200000BF01F02DF896494868009000BF00BF0B
:105330000099491E00910029FAD100BF01F012F82E
:105340008F494868009000BF00BF0099491E009136
:105350000029FAD100BF01F013F88949486800908C
:1053600000BF00BF0099491E00910029FAD100BF7B
:10537000012001F069F88248C17D203030F81140E9
:105380001AE000F0EFFF7E494868009000BF00BFC0
:105390000099491E00910029FAD100BF00F0F0FFEA
:1053A00077494868009000BF00BF0099491E0091EE
:1053B0000029FAD100BF641E002CE2D17048C17DE3
:1053C0001830405C441E1EE0E8B201F03DF800F0E9
:1053D000C9FF6B494868009000BF00BF0099491E93
:1053E00000910029FAD100BF00F0CAFF6449486863
:1053F000009000BF00BF0099491E00910029FAD11A
:1054000000BF6D08641E002CDED15D48C17D3030C8
:1054100030F81140002C5AD0E8B201F015F800F035
:10542000A1FF57494868009000BF00BF0099491E7E
:1054300000910029FAD100BF00F0A2FF504948684E
:10544000009000BF00BF0099491E00910029FAD1C9
:1054500000BF012000F0F8FF641E1AE000F082FF98
:1054600047494868009000BF00BF0099491E00915D
:105470000029FAD100BF00F083FF4149486800903D
:1054800000BF00BF0099491E00910029FAD100BF5A
:10549000641E002CE2D100F0C5FF00F063FF384924
:1054A0004868009000BF00BF0099491E0091002984
:1054B000FAD100BF00F064FF31494868009000BF96
:1054C00000BF0099491E00910029FAD11EE000F0AA
:1054D000A9FFE8B200F0B8FF00F044FF284948688F
:1054E000009000BF00BF0099491E00910029FAD129
:1054F00000BF00F045FF22494868009000BF00BF90
:105500000099491E00910029FAD100BF00F02AFF3E
:105510001B494868009000BF00BF0099491E0091D8
:105520000029FAD100BF00F02BFF15494868009010
:1055300000BF00BF0099491E00910029FAD100BFA9
:1055400000F062FF00F00EFF0D494868009000BFB8
:1055500000BF0099491E00910029FAD100BF00F058
:105560000FFF07494868009000BF00BF0099491E1F
:1055700000910029FAD100BF012000F065FF38BD7D
:1055800008280020F8B500F04DFF00F0EBFE76494A
:105590004868009000BF00BF0099491E0091002993
:1055A000FAD100BF00F0ECFE6F494868009000BFE0
:1055B00000BF0099491E00910029FAD100BF00F0F8
:1055C00023FF00F0CFFE68494868009000BF00BF8D
:1055D0000099491E00910029FAD100BF00F0D0FEC9
:1055E00061494868009000BF00BF0099491E0091C2
:1055F0000029FAD100BF00F0B5FE5B494868009071
:1056000000BF00BF0099491E00910029FAD100BFD8
:1056100000F0B6FE54494868009000BF00BF0099F2
:10562000491E00910029FAD100BF4F48C57D1AE0FC
:1056300000F098FE4C494868009000BF00BF0099F8
:10564000491E00910029FAD100BF00F099FE464999
:105650004868009000BF00BF0099491E00910029D2
:10566000FAD100BF6D1E002DE2D100241F2520E0DD
:1056700000F078FE3C494868009000BF00BF0099E8
:10568000491E00910029FAD100BF00F0EBFE06464A
:1056900000F076FE34494868009000BF00BF0099D2
:1056A000491E00910029FAD100BF44EAC67464087B
:1056B0006D1E002DDCD100F0B5FE00F053FE2A492E
:1056C0004868009000BF00BF0099491E0091002962
:1056D000FAD100BF00F0C6FE064600F051FE224996
:1056E0004868009000BF00BF0099491E0091002942
:1056F000FAD100BF44EAC67400F034FE1A49486883
:10570000009000BF00BF0099491E00910029FAD106
:1057100000BF00F035FE14494868009000BF00BF8C
:105720000099491E00910029FAD100BF00F06CFEDB
:1057300000F018FE0C494868009000BF00BF0099B7
:10574000491E00910029FAD100BF00F019FE064958
:105750004868009000BF00BF0099491E00910029D1
:10576000FAD100BF2046F8BD082800202DE9F84FE7
:1057700004460F46904604F03F0606B9402604F062
:10578000400010B100F04EFE01E000F03DFE3AE0B6
:1057900017F801AB00254FF0080928E00AF0FF00D8
:1057A00000F052FE00F0DEFD19494868009000BF8D
:1057B00000BF0099491E00910029FAD100BF00F0F6
:1057C00051FE834600F0DCFD11494868009000BF9F
:1057D00000BF0099491E00910029FAD100BF4FEA8D
:1057E0005A0A6D0845EACB15A9F10109761EB9F1EF
:1057F000000F01D0002ED1D125FA09F504F0800068
:1058000008B108F8015B002EC2D1BDE8F88F000096
:105810000828002070B504460D460648407820B19F
:105820002946204600F008F870BD2946204600F0C1
:105830003FF9F9E7082800202DE9F0470646884699
:1058400000F0F0FD00F08EFD00BF00BF00F098FDFD
:1058500000BF00BF00F0D8FD00F084FD00BF00BF16
:1058600000F08EFD00BF00BF00F07CFD00BF00BF58
:1058700000F086FD00BF00BF8C48C47D08E000F04A
:1058800071FD00BF00BF00F07BFD00BF00BF641EC4
:10589000002CF4D1C6F3470000F0D6FD00F062FD05
:1058A00000BF00BF00F0DEFD074600F069FD00BF4D
:1058B00000BF4FEA4709C6F3870000F0C5FD00F0BE
:1058C00051FD00BF00BF00F0CDFD074600F058FDC0
:1058D00000BF00BF49EA0709C6F3C70000F0B4FDE6
:1058E00000F040FD00BF00BF00F0BCFD074600F027
:1058F00047FD00BF00BF49EA8709B9F1010F0AD08F
:1059000000F090FD00F02EFD00BF00BF00F038FD5C
:1059100000BF00BFA1E006F00200002852D0002521
:105920001F240EE000F01EFD00BF00BF00F09AFD36
:10593000074600F025FD00BF00BF45EAC7756D08AA
:10594000641E002CEED15948817DC07D081A441E8A
:1059500014B300F007FD00BF00BF00F083FD074651
:1059600000F00EFD00BF00BF641E08E000F0FAFC6E
:1059700000BF00BF00F004FD00BF00BF641E002C8C
:10598000F4D100F04FFD00F0EDFC00BF00BF00F0CF
:10599000F7FC00BF00BF0DE000F044FD00F0E2FCAA
:1059A00000BF00BF00F05EFD074600F0E9FC00BF4D
:1059B00000BF00BF45EAC775B8F1000F4CD0C8F86A
:1059C000005049E0D8F800501F240CE0E8B200F085
:1059D0003BFD00F0C7FC00BF00BF00F0D1FC00BFE2
:1059E00000BF6D08641E002CF0D13048817DC07D61
:1059F000081A441E14B3E8B200F026FD00F0B2FC11
:105A000000BF00BF00F0BCFC00BF00BF641E08E088
:105A100000F0A8FC00BF00BF00F0B2FC00BF00BF58
:105A2000641E002CF4D100F0FDFC00F09BFC00BFD4
:105A300000BF00F0A5FC00BF00BF0DE000F0F2FCCD
:105A4000E8B200F001FD00F08DFC00BF00BF00F0E7
:105A500097FC00BF00BF00BF00BF00F083FC00BF89
:105A600000BF00F08DFC00BF00BF00F0CDFC00F0D7
:105A700079FC00BF00BF00F083FC00BF00BF012025
:105A800000F0E2FC0948047A08E000F06BFC00BF7B
:105A900000BF00F075FC00BF00BF00BF2000A4F1F4
:105AA0000104F2D109F0FF00BDE8F08708280020CA
:105AB0002DE9F8430746894600F0B4FC00F052FC9B
:105AC000F9494868009000BF00BF0099491E009145
:105AD0000029FAD100BF00F053FCF3494868009058
:105AE00000BF00BF0099491E00910029FAD100BFF4
:105AF00000F08AFC00F036FCEB494868009000BFDB
:105B000000BF0099491E00910029FAD100BF00F0A2
:105B100037FCE5494868009000BF00BF0099491E66
:105B200000910029FAD100BF00F01CFCDE49486852
:105B3000009000BF00BF0099491E00910029FAD1D2
:105B400000BF00F01DFCD8494868009000BF00BFAE
:105B50000099491E00910029FAD100BFD248C47DA6
:105B60001AE000F0FFFBD0494868009000BF00BF7A
:105B70000099491E00910029FAD100BF00F000FCF5
:105B8000C9494868009000BF00BF0099491E0091B4
:105B90000029FAD100BF641E002CE2D1C7F34700F0
:105BA00000F052FC00F0DEFBBF494868009000BFE7
:105BB00000BF0099491E00910029FAD100BF00F0F2
:105BC00051FC064600F0DCFBB7494868009000BF76
:105BD00000BF0099491E00910029FAD100BF4FEA89
:105BE0004608C7F3870000F02FFC00F0BBFBAE496E
:105BF0004868009000BF00BF0099491E009100292D
:105C0000FAD100BF00F02EFC064600F0B9FBA64911
:105C10004868009000BF00BF0099491E009100290C
:105C2000FAD100BF48EA0608C7F3C70000F00CFC31
:105C300000F098FB9C494868009000BF00BF0099A5
:105C4000491E00910029FAD100BF00F00BFC064666
:105C500000F096FB94494868009000BF00BF00998F
:105C6000491E00910029FAD100BF48EA8608B8F120
:105C7000010F1CD000F0D6FB00F074FB8A49486885
:105C8000009000BF00BF0099491E00910029FAD181
:105C900000BF00F075FB84494868009000BF00BF5A
:105CA0000099491E00910029FAD100BF57E107F081
:105CB000020000287ED000251F2420E000F052FBC7
:105CC00079494868009000BF00BF0099491E0091C3
:105CD0000029FAD100BF00F0C5FB064600F050FBDA
:105CE00071494868009000BF00BF0099491E0091AB
:105CF0000029FAD100BF45EAC6756D08641E002C64
:105D0000DCD16948817DC07D081A441E002C59D021
:105D100000F028FB64494868009000BF00BF00996C
:105D2000491E00910029FAD100BF00F09BFB0646F6
:105D300000F026FB5C494868009000BF00BF009956
:105D4000491E00910029FAD100BF641E1AE000F03C
:105D500009FB55494868009000BF00BF0099491EE3
:105D600000910029FAD100BF00F00AFB4E494868B3
:105D7000009000BF00BF0099491E00910029FAD190
:105D800000BF641E002CE2D100F04CFB00F0EAFAE8
:105D900045494868009000BF00BF0099491E009126
:105DA0000029FAD100BF00F0EBFA3F4948680090A3
:105DB00000BF00E02DE000BF0099491E00910029BE
:105DC000FAD11EE000F02EFB00F0CCFA364948680C
:105DD000009000BF00BF0099491E00910029FAD130
:105DE00000BF00F03FFB064600F0CAFA2E494868A3
:105DF000009000BF00BF0099491E00910029FAD110
:105E000000BF45EAC675B9F1000F01D0C9F80050CE
:105E1000A4E0D9F800501F241EE0E8B200F014FB03
:105E200000F0A0FA20494868009000BF00BF009928
:105E3000491E00910029FAD100BF00F0A1FA1A49C9
:105E40004868009000BF00BF0099491E00910029DA
:105E5000FAD100BF6D08641E002CDED11248817D8E
:105E6000C07D081A441E002C59D0E8B200F0ECFAAC
:105E700000F078FA0C494868009000BF00BF009914
:105E8000491E00910029FAD100BF00F079FA0649B5
:105E90004868009000BF00BF0099491E009100298A
:105EA000FAD100BF641E1CE00828002000F05AFA56
:105EB0005A494868009000BF00BF0099491E0091F0
:105EC0000029FAD100BF00F05BFA544948680090FD
:105ED00000BF00BF0099491E00910029FAD100BF00
:105EE000641E002CE2D100F09DFA00F03BFA4B4911
:105EF0004868009000BF00BF0099491E009100292A
:105F0000FAD100BF00F03CFA44494868009000BF55
:105F100000BF0099491E00910029FAD11EE000F04F
:105F200081FAE8B200F090FA00F01CFA3B494868A8
:105F3000009000BF00BF0099491E00910029FAD1CE
:105F400000BF00F01DFA35494868009000BF00BF4F
:105F50000099491E00910029FAD100BF00BF00F04E
:105F600001FA2E494868009000BF00BF0099491E01
:105F700000910029FAD100BF00F002FA27494868D1
:105F8000009000BF00BF0099491E00910029FAD17E
:105F900000BF00F039FA00F0E5F9204948680090A8
:105FA00000BF00BF0099491E00910029FAD100BF2F
:105FB00000F0E6F919494868009000BF00BF009959
:105FC000491E00910029FAD100BF012000F03CFADF
:105FD0001248047A19E000F0C5F9104948680090A9
:105FE00000BF00BF0099491E00910029FAD100BFEF
:105FF00000F0C6F909494868009000BF00BF009949
:10600000491E00910029FAD100BF2000A4F101042B
:10601000E1D108F0FF00BDE8F88300000828002067
:1060200038B5054600F0FEF900F09CF9CC49486807
:10603000009000BF00BF0099491E00910029FAD1CD
:1060400000BF00F09DF9C6494868009000BF00BF3E
:106050000099491E00910029FAD100BF00F0D4F93F
:1060600000F080F9BE494868009000BF00BF009969
:10607000491E00910029FAD100BF00F081F9B8490A
:106080004868009000BF00BF0099491E0091002998
:10609000FAD100BF00F066F9B1494868009000BF2E
:1060A00000BF0099491E00910029FAD100BF00F0FD
:1060B00067F9AB494868009000BF00BF0099491ECE
:1060C00000910029FAD100BFA548C47D1AE000F074
:1060D00049F9A3494868009000BF00BF0099491ED4
:1060E00000910029FAD100BF00F04AF99C494868A4
:1060F000009000BF00BF0099491E00910029FAD10D
:1061000000BF641E002CE2D1002000F09DF900F0D9
:1061100029F993494868009000BF00BF0099491EC3
:1061200000910029FAD100BF00F02AF98C49486893
:10613000009000BF00BF0099491E00910029FAD1CC
:1061400000BF00F00FF986494868009000BF00BF0B
:106150000099491E00910029FAD100BF00F010F902
:106160007F494868009000BF00BF0099491E009118
:106170000029FAD100BF00F0F5F87949486800908D
:1061800000BF00BF0099491E00910029FAD100BF4D
:1061900000F0F6F872494868009000BF00BF00990F
:1061A000491E00910029FAD100BF1F241EE0E8B269
:1061B00000F04AF900F0D6F869494868009000BF3D
:1061C00000BF0099491E00910029FAD100BF00F0DC
:1061D000D7F863494868009000BF00BF0099491E86
:1061E00000910029FAD100BF6D08641E002CDED199
:1061F0005B48817DC07D081A441E002C57D0E8B250
:1062000000F022F900F0AEF855494868009000BF50
:1062100000BF0099491E00910029FAD100BF00F08B
:10622000AFF84F494868009000BF00BF0099491E71
:1062300000910029FAD100BF641E1AE000F092F824
:1062400047494868009000BF00BF0099491E00916F
:106250000029FAD100BF00F093F841494868009046
:1062600000BF00BF0099491E00910029FAD100BF6C
:10627000641E002CE2D100F0D5F800F073F8384924
:106280004868009000BF00BF0099491E0091002996
:10629000FAD100BF00F074F831494868009000BF9F
:1062A00000BF0099491E00910029FAD11EE000F0BC
:1062B000B9F8E8B200F0C8F800F054F82849486886
:1062C000009000BF00BF0099491E00910029FAD13B
:1062D00000BF00F055F822494868009000BF00BF99
:1062E0000099491E00910029FAD100BF00F03AF848
:1062F0001B494868009000BF00BF0099491E0091EB
:106300000029FAD100BF00F03BF815494868009019
:1063100000BF00BF0099491E00910029FAD100BFBB
:1063200000F072F800F01EF80D494868009000BFB8
:1063300000BF0099491E00910029FAD100BF00F06A
:106340001FF807494868009000BF00BF0099491E28
:1063500000910029FAD100BF012000F075F838BD86
:1063600008280020202001490860704714080140D7
:1063700002480068C0F34010704700000C0801405C
:106380002020014908607047100801400448006857
:1063900000F0100008B1012070470020FCE7000069
:1063A0000808014000F0010119B11021034A1160F1
:1063B00003E01021014A121D1160704710080140CE
:1063C00000BF0748006820F4702040F40020044912
:1063D0000860102002491031086000BF70470000BB
:1063E0000008014000BF0748006820F4702040F416
:1063F000403004490860102002491431086000BF91
:1064000070470000000801401020014908607047F3
:106410001408014002480068C0F3001070470000F3
:106420000808014010200149086070471008014029
:106430000448006800F0070008B101207047002000
:10644000FCE700000C08014000F0010119B1072130
:10645000034A116003E00721014A121D11607047D1
:10646000100801400448006800F0060008B101204F
:1064700070470020FCE7000008080140044800685D
:1064800000F4007008B1012070470020FCE7000014
:10649000080C014070B504460D460648407820B10E
:1064A0002946204600F008F870BD2946204600F035
:1064B0008FF9F9E7082800202DE9F04706468A46BB
:1064C00000270120FFF76EFFFFF74CFF00BF00BF62
:1064D000FFF756FF00BF00BF3546E8B2FFF762FF87
:1064E000FFF740FF00BF00BFFFF74AFF00BF00BF3C
:1064F0002F447510E8B2FFF755FFFFF733FF00BFD9
:1065000000BFFFF73DFF00BF00BF2F44B510E8B24A
:10651000FFF748FFFFF726FF00BF00BFFFF730FF80
:1065200000BF00BF2F44F510E8B2FFF73BFFFFF7B5
:1065300019FF00BF00BFFFF723FF00BF00BF2F44BC
:10654000F8B2FFF72FFFFFF70DFF00BF00BFFFF707
:1065500017FF00BF00BF0020FFF724FFFFF702FF77
:1065600000BF00BFFFF70CFF00BF00BF0120FFF717
:1065700019FFFFF7F7FE00BF00BFFFF701FF00BFE5
:1065800000BFFFF71DFF9148047D08E0FFF7EAFE1A
:1065900000BF00BFFFF7F4FE00BF00BF641E002C69
:1065A000F4D1FFF7DFFE00BF00BFFFF7EFFE0546A7
:1065B000FFF7E6FE00BF00BFA846FFF7D3FE00BF0F
:1065C00000BFFFF7E3FE0546FFF7DAFE00BF00BF9E
:1065D00048EA4508FFF7C6FE00BF00BFFFF7D6FE3A
:1065E0000546FFF7CDFE00BF00BF48EA8508B8F1B9
:1065F000010F7CD106F0020000283ED0A146002702
:10660000202410E0FFF7AEFE00BF00BFFFF7BEFE84
:106610000546FFF7B5FE00BF00BF2F444FEA5909FA
:1066200049EAC579641E002CECD1FFF79BFE00BF40
:1066300000BFFFF7ABFE0546FFF7A2FE00BF00BF9D
:1066400087EA050000F0010008B14FF00808BAF130
:10665000000F01D0CAF800905C48047D08E0FFF705
:1066600081FE00BF00BFFFF78BFE00BF00BF641EAE
:10667000002CF4D1FFF7B6FE32E05448047D08E068
:10668000FFF770FE00BF00BFFFF77AFE00BF00BF3C
:10669000641E002CF4D1FFF7A5FEDAF80090002765
:1066A00020240FE009F0FF00FFF77CFEFFF75AFE01
:1066B00000BF00BFFFF764FE00BF00BF4F444FEABA
:1066C0005909641E002CEDD1F8B2FFF76BFEFFF7FD
:1066D00049FE00BF00BFFFF753FE00BF00BF00BF71
:1066E0003A48047A7CB10020FFF75CFE09E011E033
:1066F000FFF738FE00BF00BFFFF742FE00BF00BF3C
:10670000641E002CF4D10120FFF74CFE08F0FF00BE
:10671000BDE8F087B8F1020F02D0B8F1040F3ED106
:106720002A48407D78B106F0020060B1212408E0DB
:10673000FFF718FE00BF00BFFFF722FE00BF00BF3B
:10674000641E002CF4D12148047D08E0FFF70AFE06
:1067500000BF00BFFFF714FE00BF00BF641E002C87
:10676000F4D1FFF73FFE1948407D90B106F00200DA
:1067700078B90020FFF716FE212408E0FFF7F2FDAC
:1067800000BF00BFFFF7FCFD00BF00BF641E002C70
:10679000F4D10120FFF706FE08F0FF00B8E70B4830
:1067A000007D00F1210408E0FFF7DCFD00BF00BF21
:1067B000FFF7E6FD00BF00BF641E002CF4D10120EE
:1067C000FFF7F0FD08F0FF00A2E700000828002016
:1067D00003B587B0002003900120FFF7E3FDFFF72A
:1067E000C1FDFE48406801900198009000BF00BFC5
:1067F0000098401E00900028FAD100BFFFF7C0FDAE
:10680000F648406801900198009000BF00BF0098D2
:10681000401E00900028FAD100BF07980590059807
:10682000C0B20190FFF7BEFDFFF79CFDEB4840684A
:1068300001900198009000BF00BF0098401E00909A
:106840000028FAD100BFFFF79BFDE44840680190A3
:106850000198009000BF00BF0098401E00900028E3
